{
	"tests/09常数.sol": {
		"Constant": {
			"abi": [
				{
					"inputs": [],
					"stateMutability": "nonpayable",
					"type": "constructor"
				},
				{
					"inputs": [],
					"name": "IMMUTABLE_ADDRESS",
					"outputs": [
						{
							"internalType": "address",
							"name": "",
							"type": "address"
						}
					],
					"stateMutability": "view",
					"type": "function"
				},
				{
					"inputs": [],
					"name": "IMMUTABLE_BLOCK",
					"outputs": [
						{
							"internalType": "uint256",
							"name": "",
							"type": "uint256"
						}
					],
					"stateMutability": "view",
					"type": "function"
				},
				{
					"inputs": [],
					"name": "IMMUTABLE_NUM",
					"outputs": [
						{
							"internalType": "uint256",
							"name": "",
							"type": "uint256"
						}
					],
					"stateMutability": "view",
					"type": "function"
				},
				{
					"inputs": [],
					"name": "IMMUTABLE_TEST",
					"outputs": [
						{
							"internalType": "uint256",
							"name": "",
							"type": "uint256"
						}
					],
					"stateMutability": "view",
					"type": "function"
				},
				{
					"inputs": [],
					"name": "test",
					"outputs": [
						{
							"internalType": "uint256",
							"name": "",
							"type": "uint256"
						}
					],
					"stateMutability": "pure",
					"type": "function"
				}
			],
			"devdoc": {
				"kind": "dev",
				"methods": {},
				"version": 1
			},
			"evm": {
				"assembly": "    /* \"tests/09\\xe5\\xb8\\xb8\\xe6\\x95\\xb0.sol\":76:1062  contract Constant {... */\n  mstore(0x40, 0x0100)\n    /* \"tests/09\\xe5\\xb8\\xb8\\xe6\\x95\\xb0.sol\":518:521  111 */\n  0x6f\n    /* \"tests/09\\xe5\\xb8\\xb8\\xe6\\x95\\xb0.sol\":477:521  uint256 public immutable IMMUTABLE_NUM = 111 */\n  0x80\n  swap1\n  dup2\n  mstore\n  pop\n    /* \"tests/09\\xe5\\xb8\\xb8\\xe6\\x95\\xb0.sol\":814:943  constructor(){... */\n  callvalue\n  dup1\n  iszero\n  tag_1\n  jumpi\n  0x00\n  dup1\n  revert\ntag_1:\n  pop\n    /* \"tests/09\\xe5\\xb8\\xb8\\xe6\\x95\\xb0.sol\":866:870  this */\n  address\n    /* \"tests/09\\xe5\\xb8\\xb8\\xe6\\x95\\xb0.sol\":838:871  IMMUTABLE_ADDRESS = address(this) */\n  0xffffffffffffffffffffffffffffffffffffffff\n  and\n  0xa0\n  dup2\n  0xffffffffffffffffffffffffffffffffffffffff\n  and\n  dup2\n  mstore\n  pop\n  pop\n    /* \"tests/09\\xe5\\xb8\\xb8\\xe6\\x95\\xb0.sol\":898:901  123 */\n  0x7b\n    /* \"tests/09\\xe5\\xb8\\xb8\\xe6\\x95\\xb0.sol\":882:901  IMMUTABLE_NUM = 123 */\n  0x80\n  dup2\n  dup2\n  mstore\n  pop\n  pop\n    /* \"tests/09\\xe5\\xb8\\xb8\\xe6\\x95\\xb0.sol\":929:935  test() */\n  tag_4\n    /* \"tests/09\\xe5\\xb8\\xb8\\xe6\\x95\\xb0.sol\":929:933  test */\n  shl(0x20, tag_5)\n    /* \"tests/09\\xe5\\xb8\\xb8\\xe6\\x95\\xb0.sol\":929:935  test() */\n  0x20\n  shr\n  jump\t// in\ntag_4:\n    /* \"tests/09\\xe5\\xb8\\xb8\\xe6\\x95\\xb0.sol\":912:935  IMMUTABLE_TEST = test() */\n  0xe0\n  dup2\n  dup2\n  mstore\n  pop\n  pop\n    /* \"tests/09\\xe5\\xb8\\xb8\\xe6\\x95\\xb0.sol\":76:1062  contract Constant {... */\n  jump(tag_6)\n    /* \"tests/09\\xe5\\xb8\\xb8\\xe6\\x95\\xb0.sol\":951:1053  function test() public pure returns(uint256){... */\ntag_5:\n    /* \"tests/09\\xe5\\xb8\\xb8\\xe6\\x95\\xb0.sol\":987:994  uint256 */\n  0x00\n    /* \"tests/09\\xe5\\xb8\\xb8\\xe6\\x95\\xb0.sol\":1006:1018  uint256 what */\n  dup1\n    /* \"tests/09\\xe5\\xb8\\xb8\\xe6\\x95\\xb0.sol\":1021:1022  9 */\n  0x09\n    /* \"tests/09\\xe5\\xb8\\xb8\\xe6\\x95\\xb0.sol\":1006:1022  uint256 what = 9 */\n  swap1\n  pop\n    /* \"tests/09\\xe5\\xb8\\xb8\\xe6\\x95\\xb0.sol\":1040:1044  what */\n  dup1\n    /* \"tests/09\\xe5\\xb8\\xb8\\xe6\\x95\\xb0.sol\":1033:1045  return(what) */\n  swap2\n  pop\n  pop\n    /* \"tests/09\\xe5\\xb8\\xb8\\xe6\\x95\\xb0.sol\":951:1053  function test() public pure returns(uint256){... */\n  swap1\n  jump\t// out\n    /* \"tests/09\\xe5\\xb8\\xb8\\xe6\\x95\\xb0.sol\":76:1062  contract Constant {... */\ntag_6:\n  mload(0x80)\n  mload(0xa0)\n  mload(0xc0)\n  mload(0xe0)\n  codecopy(0x00, dataOffset(sub_0), dataSize(sub_0))\n  0x00\n  assignImmutable(\"0x1572b593c53d839d80004aa4b8c51211864104f06ace9e22be9c4365b50655ea\")\n  0x00\n  assignImmutable(\"0xf4c2b5de886427473655d4c904c743576dc2d53249b7535d96c06cc97ae7216b\")\n  0x00\n  assignImmutable(\"0x939eb54753ed0cc7e2272bfb34cbe098308c93936ed54d79078f76ade0b2e789\")\n  0x00\n  assignImmutable(\"0x8e8fab5f003314da8d1873ea7720e8d9f47650136d916064d1edb8a11d682624\")\n  return(0x00, dataSize(sub_0))\nstop\n\nsub_0: assembly {\n        /* \"tests/09\\xe5\\xb8\\xb8\\xe6\\x95\\xb0.sol\":76:1062  contract Constant {... */\n      mstore(0x40, 0x80)\n      callvalue\n      dup1\n      iszero\n      tag_1\n      jumpi\n      0x00\n      dup1\n      revert\n    tag_1:\n      pop\n      jumpi(tag_2, lt(calldatasize, 0x04))\n      shr(0xe0, calldataload(0x00))\n      dup1\n      0x1d9afdd2\n      eq\n      tag_3\n      jumpi\n      dup1\n      0x4064572e\n      eq\n      tag_4\n      jumpi\n      dup1\n      0xed7ff875\n      eq\n      tag_5\n      jumpi\n      dup1\n      0xf1513021\n      eq\n      tag_6\n      jumpi\n      dup1\n      0xf8a8fd6d\n      eq\n      tag_7\n      jumpi\n    tag_2:\n      0x00\n      dup1\n      revert\n        /* \"tests/09\\xe5\\xb8\\xb8\\xe6\\x95\\xb0.sol\":648:688  uint256 public immutable IMMUTABLE_BLOCK */\n    tag_3:\n      tag_8\n      tag_9\n      jump\t// in\n    tag_8:\n      mload(0x40)\n      tag_10\n      swap2\n      swap1\n      tag_11\n      jump\t// in\n    tag_10:\n      mload(0x40)\n      dup1\n      swap2\n      sub\n      swap1\n      return\n        /* \"tests/09\\xe5\\xb8\\xb8\\xe6\\x95\\xb0.sol\":695:734  uint256 public immutable IMMUTABLE_TEST */\n    tag_4:\n      tag_12\n      tag_13\n      jump\t// in\n    tag_12:\n      mload(0x40)\n      tag_14\n      swap2\n      swap1\n      tag_11\n      jump\t// in\n    tag_14:\n      mload(0x40)\n      dup1\n      swap2\n      sub\n      swap1\n      return\n        /* \"tests/09\\xe5\\xb8\\xb8\\xe6\\x95\\xb0.sol\":477:521  uint256 public immutable IMMUTABLE_NUM = 111 */\n    tag_5:\n      tag_15\n      tag_16\n      jump\t// in\n    tag_15:\n      mload(0x40)\n      tag_17\n      swap2\n      swap1\n      tag_11\n      jump\t// in\n    tag_17:\n      mload(0x40)\n      dup1\n      swap2\n      sub\n      swap1\n      return\n        /* \"tests/09\\xe5\\xb8\\xb8\\xe6\\x95\\xb0.sol\":598:640  address public immutable IMMUTABLE_ADDRESS */\n    tag_6:\n      tag_18\n      tag_19\n      jump\t// in\n    tag_18:\n      mload(0x40)\n      tag_20\n      swap2\n      swap1\n      tag_21\n      jump\t// in\n    tag_20:\n      mload(0x40)\n      dup1\n      swap2\n      sub\n      swap1\n      return\n        /* \"tests/09\\xe5\\xb8\\xb8\\xe6\\x95\\xb0.sol\":951:1053  function test() public pure returns(uint256){... */\n    tag_7:\n      tag_22\n      tag_23\n      jump\t// in\n    tag_22:\n      mload(0x40)\n      tag_24\n      swap2\n      swap1\n      tag_11\n      jump\t// in\n    tag_24:\n      mload(0x40)\n      dup1\n      swap2\n      sub\n      swap1\n      return\n        /* \"tests/09\\xe5\\xb8\\xb8\\xe6\\x95\\xb0.sol\":648:688  uint256 public immutable IMMUTABLE_BLOCK */\n    tag_9:\n      immutable(\"0xf4c2b5de886427473655d4c904c743576dc2d53249b7535d96c06cc97ae7216b\")\n      dup2\n      jump\t// out\n        /* \"tests/09\\xe5\\xb8\\xb8\\xe6\\x95\\xb0.sol\":695:734  uint256 public immutable IMMUTABLE_TEST */\n    tag_13:\n      immutable(\"0x1572b593c53d839d80004aa4b8c51211864104f06ace9e22be9c4365b50655ea\")\n      dup2\n      jump\t// out\n        /* \"tests/09\\xe5\\xb8\\xb8\\xe6\\x95\\xb0.sol\":477:521  uint256 public immutable IMMUTABLE_NUM = 111 */\n    tag_16:\n      immutable(\"0x8e8fab5f003314da8d1873ea7720e8d9f47650136d916064d1edb8a11d682624\")\n      dup2\n      jump\t// out\n        /* \"tests/09\\xe5\\xb8\\xb8\\xe6\\x95\\xb0.sol\":598:640  address public immutable IMMUTABLE_ADDRESS */\n    tag_19:\n      immutable(\"0x939eb54753ed0cc7e2272bfb34cbe098308c93936ed54d79078f76ade0b2e789\")\n      dup2\n      jump\t// out\n        /* \"tests/09\\xe5\\xb8\\xb8\\xe6\\x95\\xb0.sol\":951:1053  function test() public pure returns(uint256){... */\n    tag_23:\n        /* \"tests/09\\xe5\\xb8\\xb8\\xe6\\x95\\xb0.sol\":987:994  uint256 */\n      0x00\n        /* \"tests/09\\xe5\\xb8\\xb8\\xe6\\x95\\xb0.sol\":1006:1018  uint256 what */\n      dup1\n        /* \"tests/09\\xe5\\xb8\\xb8\\xe6\\x95\\xb0.sol\":1021:1022  9 */\n      0x09\n        /* \"tests/09\\xe5\\xb8\\xb8\\xe6\\x95\\xb0.sol\":1006:1022  uint256 what = 9 */\n      swap1\n      pop\n        /* \"tests/09\\xe5\\xb8\\xb8\\xe6\\x95\\xb0.sol\":1040:1044  what */\n      dup1\n        /* \"tests/09\\xe5\\xb8\\xb8\\xe6\\x95\\xb0.sol\":1033:1045  return(what) */\n      swap2\n      pop\n      pop\n        /* \"tests/09\\xe5\\xb8\\xb8\\xe6\\x95\\xb0.sol\":951:1053  function test() public pure returns(uint256){... */\n      swap1\n      jump\t// out\n        /* \"#utility.yul\":7:84   */\n    tag_26:\n        /* \"#utility.yul\":44:51   */\n      0x00\n        /* \"#utility.yul\":73:78   */\n      dup2\n        /* \"#utility.yul\":62:78   */\n      swap1\n      pop\n        /* \"#utility.yul\":7:84   */\n      swap2\n      swap1\n      pop\n      jump\t// out\n        /* \"#utility.yul\":90:208   */\n    tag_27:\n        /* \"#utility.yul\":177:201   */\n      tag_34\n        /* \"#utility.yul\":195:200   */\n      dup2\n        /* \"#utility.yul\":177:201   */\n      tag_26\n      jump\t// in\n    tag_34:\n        /* \"#utility.yul\":172:175   */\n      dup3\n        /* \"#utility.yul\":165:202   */\n      mstore\n        /* \"#utility.yul\":90:208   */\n      pop\n      pop\n      jump\t// out\n        /* \"#utility.yul\":214:436   */\n    tag_11:\n        /* \"#utility.yul\":307:311   */\n      0x00\n        /* \"#utility.yul\":345:347   */\n      0x20\n        /* \"#utility.yul\":334:343   */\n      dup3\n        /* \"#utility.yul\":330:348   */\n      add\n        /* \"#utility.yul\":322:348   */\n      swap1\n      pop\n        /* \"#utility.yul\":358:429   */\n      tag_36\n        /* \"#utility.yul\":426:427   */\n      0x00\n        /* \"#utility.yul\":415:424   */\n      dup4\n        /* \"#utility.yul\":411:428   */\n      add\n        /* \"#utility.yul\":402:408   */\n      dup5\n        /* \"#utility.yul\":358:429   */\n      tag_27\n      jump\t// in\n    tag_36:\n        /* \"#utility.yul\":214:436   */\n      swap3\n      swap2\n      pop\n      pop\n      jump\t// out\n        /* \"#utility.yul\":442:568   */\n    tag_28:\n        /* \"#utility.yul\":479:486   */\n      0x00\n        /* \"#utility.yul\":519:561   */\n      0xffffffffffffffffffffffffffffffffffffffff\n        /* \"#utility.yul\":512:517   */\n      dup3\n        /* \"#utility.yul\":508:562   */\n      and\n        /* \"#utility.yul\":497:562   */\n      swap1\n      pop\n        /* \"#utility.yul\":442:568   */\n      swap2\n      swap1\n      pop\n      jump\t// out\n        /* \"#utility.yul\":574:670   */\n    tag_29:\n        /* \"#utility.yul\":611:618   */\n      0x00\n        /* \"#utility.yul\":640:664   */\n      tag_39\n        /* \"#utility.yul\":658:663   */\n      dup3\n        /* \"#utility.yul\":640:664   */\n      tag_28\n      jump\t// in\n    tag_39:\n        /* \"#utility.yul\":629:664   */\n      swap1\n      pop\n        /* \"#utility.yul\":574:670   */\n      swap2\n      swap1\n      pop\n      jump\t// out\n        /* \"#utility.yul\":676:794   */\n    tag_30:\n        /* \"#utility.yul\":763:787   */\n      tag_41\n        /* \"#utility.yul\":781:786   */\n      dup2\n        /* \"#utility.yul\":763:787   */\n      tag_29\n      jump\t// in\n    tag_41:\n        /* \"#utility.yul\":758:761   */\n      dup3\n        /* \"#utility.yul\":751:788   */\n      mstore\n        /* \"#utility.yul\":676:794   */\n      pop\n      pop\n      jump\t// out\n        /* \"#utility.yul\":800:1022   */\n    tag_21:\n        /* \"#utility.yul\":893:897   */\n      0x00\n        /* \"#utility.yul\":931:933   */\n      0x20\n        /* \"#utility.yul\":920:929   */\n      dup3\n        /* \"#utility.yul\":916:934   */\n      add\n        /* \"#utility.yul\":908:934   */\n      swap1\n      pop\n        /* \"#utility.yul\":944:1015   */\n      tag_43\n        /* \"#utility.yul\":1012:1013   */\n      0x00\n        /* \"#utility.yul\":1001:1010   */\n      dup4\n        /* \"#utility.yul\":997:1014   */\n      add\n        /* \"#utility.yul\":988:994   */\n      dup5\n        /* \"#utility.yul\":944:1015   */\n      tag_30\n      jump\t// in\n    tag_43:\n        /* \"#utility.yul\":800:1022   */\n      swap3\n      swap2\n      pop\n      pop\n      jump\t// out\n\n    auxdata: 0xa2646970667358221220410597240d0aa7183475dbd5f1abf066f677ed794353b8b1c3970089b5fc68a164736f6c634300081a0033\n}\n",
				"bytecode": {
					"linkReferences": {},
					"object": "610100604052606f608090815250348015610018575f80fd5b503073ffffffffffffffffffffffffffffffffffffffff1660a08173ffffffffffffffffffffffffffffffffffffffff1681525050607b6080818152505061006461007060201b60201c565b60e0818152505061007d565b5f80600990508091505090565b60805160a05160c05160e05161024b6100af5f395f61011501525f60f101525f61015d01525f610139015261024b5ff3fe608060405234801561000f575f80fd5b5060043610610055575f3560e01c80631d9afdd2146100595780634064572e14610077578063ed7ff87514610095578063f1513021146100b3578063f8a8fd6d146100d1575b5f80fd5b6100616100ef565b60405161006e91906101a4565b60405180910390f35b61007f610113565b60405161008c91906101a4565b60405180910390f35b61009d610137565b6040516100aa91906101a4565b60405180910390f35b6100bb61015b565b6040516100c891906101fc565b60405180910390f35b6100d961017f565b6040516100e691906101a4565b60405180910390f35b7f000000000000000000000000000000000000000000000000000000000000000081565b7f000000000000000000000000000000000000000000000000000000000000000081565b7f000000000000000000000000000000000000000000000000000000000000000081565b7f000000000000000000000000000000000000000000000000000000000000000081565b5f80600990508091505090565b5f819050919050565b61019e8161018c565b82525050565b5f6020820190506101b75f830184610195565b92915050565b5f73ffffffffffffffffffffffffffffffffffffffff82169050919050565b5f6101e6826101bd565b9050919050565b6101f6816101dc565b82525050565b5f60208201905061020f5f8301846101ed565b9291505056fea2646970667358221220410597240d0aa7183475dbd5f1abf066f677ed794353b8b1c3970089b5fc68a164736f6c634300081a0033",
					"opcodes": "PUSH2 0x100 PUSH1 0x40 MSTORE PUSH1 0x6F PUSH1 0x80 SWAP1 DUP2 MSTORE POP CALLVALUE DUP1 ISZERO PUSH2 0x18 JUMPI PUSH0 DUP1 REVERT JUMPDEST POP ADDRESS PUSH20 0xFFFFFFFFFFFFFFFFFFFFFFFFFFFFFFFFFFFFFFFF AND PUSH1 0xA0 DUP2 PUSH20 0xFFFFFFFFFFFFFFFFFFFFFFFFFFFFFFFFFFFFFFFF AND DUP2 MSTORE POP POP PUSH1 0x7B PUSH1 0x80 DUP2 DUP2 MSTORE POP POP PUSH2 0x64 PUSH2 0x70 PUSH1 0x20 SHL PUSH1 0x20 SHR JUMP JUMPDEST PUSH1 0xE0 DUP2 DUP2 MSTORE POP POP PUSH2 0x7D JUMP JUMPDEST PUSH0 DUP1 PUSH1 0x9 SWAP1 POP DUP1 SWAP2 POP POP SWAP1 JUMP JUMPDEST PUSH1 0x80 MLOAD PUSH1 0xA0 MLOAD PUSH1 0xC0 MLOAD PUSH1 0xE0 MLOAD PUSH2 0x24B PUSH2 0xAF PUSH0 CODECOPY PUSH0 PUSH2 0x115 ADD MSTORE PUSH0 PUSH1 0xF1 ADD MSTORE PUSH0 PUSH2 0x15D ADD MSTORE PUSH0 PUSH2 0x139 ADD MSTORE PUSH2 0x24B PUSH0 RETURN INVALID PUSH1 0x80 PUSH1 0x40 MSTORE CALLVALUE DUP1 ISZERO PUSH2 0xF JUMPI PUSH0 DUP1 REVERT JUMPDEST POP PUSH1 0x4 CALLDATASIZE LT PUSH2 0x55 JUMPI PUSH0 CALLDATALOAD PUSH1 0xE0 SHR DUP1 PUSH4 0x1D9AFDD2 EQ PUSH2 0x59 JUMPI DUP1 PUSH4 0x4064572E EQ PUSH2 0x77 JUMPI DUP1 PUSH4 0xED7FF875 EQ PUSH2 0x95 JUMPI DUP1 PUSH4 0xF1513021 EQ PUSH2 0xB3 JUMPI DUP1 PUSH4 0xF8A8FD6D EQ PUSH2 0xD1 JUMPI JUMPDEST PUSH0 DUP1 REVERT JUMPDEST PUSH2 0x61 PUSH2 0xEF JUMP JUMPDEST PUSH1 0x40 MLOAD PUSH2 0x6E SWAP2 SWAP1 PUSH2 0x1A4 JUMP JUMPDEST PUSH1 0x40 MLOAD DUP1 SWAP2 SUB SWAP1 RETURN JUMPDEST PUSH2 0x7F PUSH2 0x113 JUMP JUMPDEST PUSH1 0x40 MLOAD PUSH2 0x8C SWAP2 SWAP1 PUSH2 0x1A4 JUMP JUMPDEST PUSH1 0x40 MLOAD DUP1 SWAP2 SUB SWAP1 RETURN JUMPDEST PUSH2 0x9D PUSH2 0x137 JUMP JUMPDEST PUSH1 0x40 MLOAD PUSH2 0xAA SWAP2 SWAP1 PUSH2 0x1A4 JUMP JUMPDEST PUSH1 0x40 MLOAD DUP1 SWAP2 SUB SWAP1 RETURN JUMPDEST PUSH2 0xBB PUSH2 0x15B JUMP JUMPDEST PUSH1 0x40 MLOAD PUSH2 0xC8 SWAP2 SWAP1 PUSH2 0x1FC JUMP JUMPDEST PUSH1 0x40 MLOAD DUP1 SWAP2 SUB SWAP1 RETURN JUMPDEST PUSH2 0xD9 PUSH2 0x17F JUMP JUMPDEST PUSH1 0x40 MLOAD PUSH2 0xE6 SWAP2 SWAP1 PUSH2 0x1A4 JUMP JUMPDEST PUSH1 0x40 MLOAD DUP1 SWAP2 SUB SWAP1 RETURN JUMPDEST PUSH32 0x0 DUP2 JUMP JUMPDEST PUSH32 0x0 DUP2 JUMP JUMPDEST PUSH32 0x0 DUP2 JUMP JUMPDEST PUSH32 0x0 DUP2 JUMP JUMPDEST PUSH0 DUP1 PUSH1 0x9 SWAP1 POP DUP1 SWAP2 POP POP SWAP1 JUMP JUMPDEST PUSH0 DUP2 SWAP1 POP SWAP2 SWAP1 POP JUMP JUMPDEST PUSH2 0x19E DUP2 PUSH2 0x18C JUMP JUMPDEST DUP3 MSTORE POP POP JUMP JUMPDEST PUSH0 PUSH1 0x20 DUP3 ADD SWAP1 POP PUSH2 0x1B7 PUSH0 DUP4 ADD DUP5 PUSH2 0x195 JUMP JUMPDEST SWAP3 SWAP2 POP POP JUMP JUMPDEST PUSH0 PUSH20 0xFFFFFFFFFFFFFFFFFFFFFFFFFFFFFFFFFFFFFFFF DUP3 AND SWAP1 POP SWAP2 SWAP1 POP JUMP JUMPDEST PUSH0 PUSH2 0x1E6 DUP3 PUSH2 0x1BD JUMP JUMPDEST SWAP1 POP SWAP2 SWAP1 POP JUMP JUMPDEST PUSH2 0x1F6 DUP2 PUSH2 0x1DC JUMP JUMPDEST DUP3 MSTORE POP POP JUMP JUMPDEST PUSH0 PUSH1 0x20 DUP3 ADD SWAP1 POP PUSH2 0x20F PUSH0 DUP4 ADD DUP5 PUSH2 0x1ED JUMP JUMPDEST SWAP3 SWAP2 POP POP JUMP INVALID LOG2 PUSH5 0x6970667358 0x22 SLT KECCAK256 COINBASE SDIV SWAP8 0x24 0xD EXP 0xA7 XOR CALLVALUE PUSH22 0xDBD5F1ABF066F677ED794353B8B1C3970089B5FC68A1 PUSH5 0x736F6C6343 STOP ADDMOD BYTE STOP CALLER "
				},
				"gasEstimates": {
					"creation": {
						"codeDepositCost": "117400",
						"executionCost": "infinite",
						"totalCost": "infinite"
					},
					"external": {
						"IMMUTABLE_ADDRESS()": "infinite",
						"IMMUTABLE_BLOCK()": "infinite",
						"IMMUTABLE_NUM()": "infinite",
						"IMMUTABLE_TEST()": "infinite",
						"test()": "411"
					}
				},
				"methodIdentifiers": {
					"IMMUTABLE_ADDRESS()": "f1513021",
					"IMMUTABLE_BLOCK()": "1d9afdd2",
					"IMMUTABLE_NUM()": "ed7ff875",
					"IMMUTABLE_TEST()": "4064572e",
					"test()": "f8a8fd6d"
				}
			},
			"storageLayout": {
				"storage": [],
				"types": null
			},
			"userdoc": {
				"kind": "user",
				"methods": {},
				"notice": "常数",
				"version": 1
			}
		}
	}
}