{
	"tests/引用类型06.sol": {
		"C": {
			"abi": [
				{
					"inputs": [],
					"name": "arraypush",
					"outputs": [
						{
							"internalType": "uint256[]",
							"name": "",
							"type": "uint256[]"
						}
					],
					"stateMutability": "nonpayable",
					"type": "function"
				},
				{
					"inputs": [],
					"name": "f",
					"outputs": [],
					"stateMutability": "pure",
					"type": "function"
				},
				{
					"inputs": [
						{
							"internalType": "uint256[3]",
							"name": "_data",
							"type": "uint256[3]"
						}
					],
					"name": "g",
					"outputs": [],
					"stateMutability": "pure",
					"type": "function"
				},
				{
					"inputs": [],
					"name": "initStudent1",
					"outputs": [],
					"stateMutability": "nonpayable",
					"type": "function"
				},
				{
					"inputs": [],
					"name": "initStudent2",
					"outputs": [],
					"stateMutability": "nonpayable",
					"type": "function"
				},
				{
					"inputs": [],
					"name": "initStudent3",
					"outputs": [],
					"stateMutability": "nonpayable",
					"type": "function"
				},
				{
					"inputs": [],
					"name": "initStudent4",
					"outputs": [],
					"stateMutability": "nonpayable",
					"type": "function"
				}
			],
			"devdoc": {
				"kind": "dev",
				"methods": {},
				"version": 1
			},
			"evm": {
				"assembly": "    /* \"tests/\\xe5\\xbc\\x95\\xe7\\x94\\xa8\\xe7\\xb1\\xbb\\xe5\\x9e\\x8b06.sol\":73:1355  contract C {... */\n  mstore(0x40, 0x80)\n  callvalue\n  dup1\n  iszero\n  tag_1\n  jumpi\n  0x00\n  dup1\n  revert\ntag_1:\n  pop\n  dataSize(sub_0)\n  dup1\n  dataOffset(sub_0)\n  0x00\n  codecopy\n  0x00\n  return\nstop\n\nsub_0: assembly {\n        /* \"tests/\\xe5\\xbc\\x95\\xe7\\x94\\xa8\\xe7\\xb1\\xbb\\xe5\\x9e\\x8b06.sol\":73:1355  contract C {... */\n      mstore(0x40, 0x80)\n      callvalue\n      dup1\n      iszero\n      tag_1\n      jumpi\n      0x00\n      dup1\n      revert\n    tag_1:\n      pop\n      jumpi(tag_2, lt(calldatasize, 0x04))\n      shr(0xe0, calldataload(0x00))\n      dup1\n      0x5a4236b1\n      gt\n      tag_10\n      jumpi\n      dup1\n      0x5a4236b1\n      eq\n      tag_6\n      jumpi\n      dup1\n      0x9ebb8d20\n      eq\n      tag_7\n      jumpi\n      dup1\n      0xa8b63e6f\n      eq\n      tag_8\n      jumpi\n      dup1\n      0xd14d385d\n      eq\n      tag_9\n      jumpi\n      jump(tag_2)\n    tag_10:\n      dup1\n      0x1a8d7dc3\n      eq\n      tag_3\n      jumpi\n      dup1\n      0x26121ff0\n      eq\n      tag_4\n      jumpi\n      dup1\n      0x54722e28\n      eq\n      tag_5\n      jumpi\n    tag_2:\n      0x00\n      dup1\n      revert\n        /* \"tests/\\xe5\\xbc\\x95\\xe7\\x94\\xa8\\xe7\\xb1\\xbb\\xe5\\x9e\\x8b06.sol\":1011:1105  function initStudent2() external{... */\n    tag_3:\n      tag_11\n      tag_12\n      jump\t// in\n    tag_11:\n      stop\n        /* \"tests/\\xe5\\xbc\\x95\\xe7\\x94\\xa8\\xe7\\xb1\\xbb\\xe5\\x9e\\x8b06.sol\":188:250  function f() public pure {... */\n    tag_4:\n      tag_13\n      tag_14\n      jump\t// in\n    tag_13:\n      stop\n        /* \"tests/\\xe5\\xbc\\x95\\xe7\\x94\\xa8\\xe7\\xb1\\xbb\\xe5\\x9e\\x8b06.sol\":353:521  function arraypush() public returns (uint[] memory){... */\n    tag_5:\n      tag_15\n      tag_16\n      jump\t// in\n    tag_15:\n      mload(0x40)\n      tag_17\n      swap2\n      swap1\n      tag_18\n      jump\t// in\n    tag_17:\n      mload(0x40)\n      dup1\n      swap2\n      sub\n      swap1\n      return\n        /* \"tests/\\xe5\\xbc\\x95\\xe7\\x94\\xa8\\xe7\\xb1\\xbb\\xe5\\x9e\\x8b06.sol\":1149:1225  function initStudent3() external {... */\n    tag_6:\n      tag_19\n      tag_20\n      jump\t// in\n    tag_19:\n      stop\n        /* \"tests/\\xe5\\xbc\\x95\\xe7\\x94\\xa8\\xe7\\xb1\\xbb\\xe5\\x9e\\x8b06.sol\":1263:1352  function initStudent4() external {... */\n    tag_7:\n      tag_21\n      tag_22\n      jump\t// in\n    tag_21:\n      stop\n        /* \"tests/\\xe5\\xbc\\x95\\xe7\\x94\\xa8\\xe7\\xb1\\xbb\\xe5\\x9e\\x8b06.sol\":778:949  function initStudent1() external{... */\n    tag_8:\n      tag_23\n      tag_24\n      jump\t// in\n    tag_23:\n      stop\n        /* \"tests/\\xe5\\xbc\\x95\\xe7\\x94\\xa8\\xe7\\xb1\\xbb\\xe5\\x9e\\x8b06.sol\":256:325  function g(uint[3] memory _data) public pure {... */\n    tag_9:\n      tag_25\n      0x04\n      dup1\n      calldatasize\n      sub\n      dup2\n      add\n      swap1\n      tag_26\n      swap2\n      swap1\n      tag_27\n      jump\t// in\n    tag_26:\n      tag_28\n      jump\t// in\n    tag_25:\n      stop\n        /* \"tests/\\xe5\\xbc\\x95\\xe7\\x94\\xa8\\xe7\\xb1\\xbb\\xe5\\x9e\\x8b06.sol\":1011:1105  function initStudent2() external{... */\n    tag_12:\n        /* \"tests/\\xe5\\xbc\\x95\\xe7\\x94\\xa8\\xe7\\xb1\\xbb\\xe5\\x9e\\x8b06.sol\":1067:1068  1 */\n      0x01\n        /* \"tests/\\xe5\\xbc\\x95\\xe7\\x94\\xa8\\xe7\\xb1\\xbb\\xe5\\x9e\\x8b06.sol\":1054:1061  student */\n      0x04\n        /* \"tests/\\xe5\\xbc\\x95\\xe7\\x94\\xa8\\xe7\\xb1\\xbb\\xe5\\x9e\\x8b06.sol\":1054:1064  student.id */\n      0x00\n      add\n        /* \"tests/\\xe5\\xbc\\x95\\xe7\\x94\\xa8\\xe7\\xb1\\xbb\\xe5\\x9e\\x8b06.sol\":1054:1068  student.id = 1 */\n      dup2\n      swap1\n      sstore\n      pop\n        /* \"tests/\\xe5\\xbc\\x95\\xe7\\x94\\xa8\\xe7\\xb1\\xbb\\xe5\\x9e\\x8b06.sol\":1095:1097  80 */\n      0x50\n        /* \"tests/\\xe5\\xbc\\x95\\xe7\\x94\\xa8\\xe7\\xb1\\xbb\\xe5\\x9e\\x8b06.sol\":1079:1086  student */\n      0x04\n        /* \"tests/\\xe5\\xbc\\x95\\xe7\\x94\\xa8\\xe7\\xb1\\xbb\\xe5\\x9e\\x8b06.sol\":1079:1092  student.score */\n      0x01\n      add\n        /* \"tests/\\xe5\\xbc\\x95\\xe7\\x94\\xa8\\xe7\\xb1\\xbb\\xe5\\x9e\\x8b06.sol\":1079:1097  student.score = 80 */\n      dup2\n      swap1\n      sstore\n      pop\n        /* \"tests/\\xe5\\xbc\\x95\\xe7\\x94\\xa8\\xe7\\xb1\\xbb\\xe5\\x9e\\x8b06.sol\":1011:1105  function initStudent2() external{... */\n      jump\t// out\n        /* \"tests/\\xe5\\xbc\\x95\\xe7\\x94\\xa8\\xe7\\xb1\\xbb\\xe5\\x9e\\x8b06.sol\":188:250  function f() public pure {... */\n    tag_14:\n        /* \"tests/\\xe5\\xbc\\x95\\xe7\\x94\\xa8\\xe7\\xb1\\xbb\\xe5\\x9e\\x8b06.sol\":224:242  g([uint(1), 2, 3]) */\n      tag_31\n      mload(0x40)\n      dup1\n      0x60\n      add\n      0x40\n      mstore\n      dup1\n        /* \"tests/\\xe5\\xbc\\x95\\xe7\\x94\\xa8\\xe7\\xb1\\xbb\\xe5\\x9e\\x8b06.sol\":232:233  1 */\n      0x01\n        /* \"tests/\\xe5\\xbc\\x95\\xe7\\x94\\xa8\\xe7\\xb1\\xbb\\xe5\\x9e\\x8b06.sol\":224:242  g([uint(1), 2, 3]) */\n      dup2\n      mstore\n      0x20\n      add\n        /* \"tests/\\xe5\\xbc\\x95\\xe7\\x94\\xa8\\xe7\\xb1\\xbb\\xe5\\x9e\\x8b06.sol\":236:237  2 */\n      0x02\n        /* \"tests/\\xe5\\xbc\\x95\\xe7\\x94\\xa8\\xe7\\xb1\\xbb\\xe5\\x9e\\x8b06.sol\":224:242  g([uint(1), 2, 3]) */\n      dup2\n      mstore\n      0x20\n      add\n        /* \"tests/\\xe5\\xbc\\x95\\xe7\\x94\\xa8\\xe7\\xb1\\xbb\\xe5\\x9e\\x8b06.sol\":239:240  3 */\n      0x03\n        /* \"tests/\\xe5\\xbc\\x95\\xe7\\x94\\xa8\\xe7\\xb1\\xbb\\xe5\\x9e\\x8b06.sol\":224:242  g([uint(1), 2, 3]) */\n      dup2\n      mstore\n      pop\n        /* \"tests/\\xe5\\xbc\\x95\\xe7\\x94\\xa8\\xe7\\xb1\\xbb\\xe5\\x9e\\x8b06.sol\":224:225  g */\n      tag_28\n        /* \"tests/\\xe5\\xbc\\x95\\xe7\\x94\\xa8\\xe7\\xb1\\xbb\\xe5\\x9e\\x8b06.sol\":224:242  g([uint(1), 2, 3]) */\n      jump\t// in\n    tag_31:\n        /* \"tests/\\xe5\\xbc\\x95\\xe7\\x94\\xa8\\xe7\\xb1\\xbb\\xe5\\x9e\\x8b06.sol\":188:250  function f() public pure {... */\n      jump\t// out\n        /* \"tests/\\xe5\\xbc\\x95\\xe7\\x94\\xa8\\xe7\\xb1\\xbb\\xe5\\x9e\\x8b06.sol\":353:521  function arraypush() public returns (uint[] memory){... */\n    tag_16:\n        /* \"tests/\\xe5\\xbc\\x95\\xe7\\x94\\xa8\\xe7\\xb1\\xbb\\xe5\\x9e\\x8b06.sol\":390:403  uint[] memory */\n      0x60\n        /* \"tests/\\xe5\\xbc\\x95\\xe7\\x94\\xa8\\xe7\\xb1\\xbb\\xe5\\x9e\\x8b06.sol\":415:431  uint[2] memory a */\n      0x00\n        /* \"tests/\\xe5\\xbc\\x95\\xe7\\x94\\xa8\\xe7\\xb1\\xbb\\xe5\\x9e\\x8b06.sol\":415:443  uint[2] memory a=[uint(1),2] */\n      mload(0x40)\n      dup1\n      0x40\n      add\n      0x40\n      mstore\n      dup1\n        /* \"tests/\\xe5\\xbc\\x95\\xe7\\x94\\xa8\\xe7\\xb1\\xbb\\xe5\\x9e\\x8b06.sol\":438:439  1 */\n      0x01\n        /* \"tests/\\xe5\\xbc\\x95\\xe7\\x94\\xa8\\xe7\\xb1\\xbb\\xe5\\x9e\\x8b06.sol\":415:443  uint[2] memory a=[uint(1),2] */\n      dup2\n      mstore\n      0x20\n      add\n        /* \"tests/\\xe5\\xbc\\x95\\xe7\\x94\\xa8\\xe7\\xb1\\xbb\\xe5\\x9e\\x8b06.sol\":441:442  2 */\n      0x02\n        /* \"tests/\\xe5\\xbc\\x95\\xe7\\x94\\xa8\\xe7\\xb1\\xbb\\xe5\\x9e\\x8b06.sol\":415:443  uint[2] memory a=[uint(1),2] */\n      dup2\n      mstore\n      pop\n      swap1\n      pop\n        /* \"tests/\\xe5\\xbc\\x95\\xe7\\x94\\xa8\\xe7\\xb1\\xbb\\xe5\\x9e\\x8b06.sol\":461:462  a */\n      dup1\n        /* \"tests/\\xe5\\xbc\\x95\\xe7\\x94\\xa8\\xe7\\xb1\\xbb\\xe5\\x9e\\x8b06.sol\":454:460  array4 */\n      0x00\n        /* \"tests/\\xe5\\xbc\\x95\\xe7\\x94\\xa8\\xe7\\xb1\\xbb\\xe5\\x9e\\x8b06.sol\":454:462  array4=a */\n      swap1\n      0x02\n      tag_33\n      swap3\n      swap2\n      swap1\n      tag_34\n      jump\t// in\n    tag_33:\n      pop\n        /* \"tests/\\xe5\\xbc\\x95\\xe7\\x94\\xa8\\xe7\\xb1\\xbb\\xe5\\x9e\\x8b06.sol\":473:479  array4 */\n      0x00\n        /* \"tests/\\xe5\\xbc\\x95\\xe7\\x94\\xa8\\xe7\\xb1\\xbb\\xe5\\x9e\\x8b06.sol\":485:486  3 */\n      0x03\n        /* \"tests/\\xe5\\xbc\\x95\\xe7\\x94\\xa8\\xe7\\xb1\\xbb\\xe5\\x9e\\x8b06.sol\":473:487  array4.push(3) */\n      swap1\n      dup1\n      0x01\n      dup2\n      sload\n      add\n      dup1\n      dup3\n      sstore\n      dup1\n      swap2\n      pop\n      pop\n      0x01\n      swap1\n      sub\n      swap1\n      0x00\n      mstore\n      keccak256(0x00, 0x20)\n      add\n      0x00\n      swap1\n      swap2\n      swap1\n      swap2\n      swap1\n      swap2\n      pop\n      sstore\n        /* \"tests/\\xe5\\xbc\\x95\\xe7\\x94\\xa8\\xe7\\xb1\\xbb\\xe5\\x9e\\x8b06.sol\":505:511  array4 */\n      0x00\n        /* \"tests/\\xe5\\xbc\\x95\\xe7\\x94\\xa8\\xe7\\xb1\\xbb\\xe5\\x9e\\x8b06.sol\":498:511  return array4 */\n      dup1\n      sload\n      dup1\n      0x20\n      mul\n      0x20\n      add\n      mload(0x40)\n      swap1\n      dup2\n      add\n      0x40\n      mstore\n      dup1\n      swap3\n      swap2\n      swap1\n      dup2\n      dup2\n      mstore\n      0x20\n      add\n      dup3\n      dup1\n      sload\n      dup1\n      iszero\n      tag_36\n      jumpi\n      0x20\n      mul\n      dup3\n      add\n      swap2\n      swap1\n      0x00\n      mstore\n      keccak256(0x00, 0x20)\n      swap1\n    tag_37:\n      dup2\n      sload\n      dup2\n      mstore\n      0x20\n      add\n      swap1\n      0x01\n      add\n      swap1\n      dup1\n      dup4\n      gt\n      tag_37\n      jumpi\n    tag_36:\n      pop\n      pop\n      pop\n      pop\n      pop\n      swap2\n      pop\n      pop\n        /* \"tests/\\xe5\\xbc\\x95\\xe7\\x94\\xa8\\xe7\\xb1\\xbb\\xe5\\x9e\\x8b06.sol\":353:521  function arraypush() public returns (uint[] memory){... */\n      swap1\n      jump\t// out\n        /* \"tests/\\xe5\\xbc\\x95\\xe7\\x94\\xa8\\xe7\\xb1\\xbb\\xe5\\x9e\\x8b06.sol\":1149:1225  function initStudent3() external {... */\n    tag_20:\n        /* \"tests/\\xe5\\xbc\\x95\\xe7\\x94\\xa8\\xe7\\xb1\\xbb\\xe5\\x9e\\x8b06.sol\":1203:1217  Student(3, 90) */\n      mload(0x40)\n      dup1\n      0x40\n      add\n      0x40\n      mstore\n      dup1\n        /* \"tests/\\xe5\\xbc\\x95\\xe7\\x94\\xa8\\xe7\\xb1\\xbb\\xe5\\x9e\\x8b06.sol\":1211:1212  3 */\n      0x03\n        /* \"tests/\\xe5\\xbc\\x95\\xe7\\x94\\xa8\\xe7\\xb1\\xbb\\xe5\\x9e\\x8b06.sol\":1203:1217  Student(3, 90) */\n      dup2\n      mstore\n      0x20\n      add\n        /* \"tests/\\xe5\\xbc\\x95\\xe7\\x94\\xa8\\xe7\\xb1\\xbb\\xe5\\x9e\\x8b06.sol\":1214:1216  90 */\n      0x5a\n        /* \"tests/\\xe5\\xbc\\x95\\xe7\\x94\\xa8\\xe7\\xb1\\xbb\\xe5\\x9e\\x8b06.sol\":1203:1217  Student(3, 90) */\n      dup2\n      mstore\n      pop\n        /* \"tests/\\xe5\\xbc\\x95\\xe7\\x94\\xa8\\xe7\\xb1\\xbb\\xe5\\x9e\\x8b06.sol\":1193:1200  student */\n      0x04\n        /* \"tests/\\xe5\\xbc\\x95\\xe7\\x94\\xa8\\xe7\\xb1\\xbb\\xe5\\x9e\\x8b06.sol\":1193:1217  student = Student(3, 90) */\n      0x00\n      dup3\n      add\n      mload\n      dup2\n      0x00\n      add\n      sstore\n      0x20\n      dup3\n      add\n      mload\n      dup2\n      0x01\n      add\n      sstore\n      swap1\n      pop\n      pop\n        /* \"tests/\\xe5\\xbc\\x95\\xe7\\x94\\xa8\\xe7\\xb1\\xbb\\xe5\\x9e\\x8b06.sol\":1149:1225  function initStudent3() external {... */\n      jump\t// out\n        /* \"tests/\\xe5\\xbc\\x95\\xe7\\x94\\xa8\\xe7\\xb1\\xbb\\xe5\\x9e\\x8b06.sol\":1263:1352  function initStudent4() external {... */\n    tag_22:\n        /* \"tests/\\xe5\\xbc\\x95\\xe7\\x94\\xa8\\xe7\\xb1\\xbb\\xe5\\x9e\\x8b06.sol\":1317:1344  Student({id: 4, score: 60}) */\n      mload(0x40)\n      dup1\n      0x40\n      add\n      0x40\n      mstore\n      dup1\n        /* \"tests/\\xe5\\xbc\\x95\\xe7\\x94\\xa8\\xe7\\xb1\\xbb\\xe5\\x9e\\x8b06.sol\":1330:1331  4 */\n      0x04\n        /* \"tests/\\xe5\\xbc\\x95\\xe7\\x94\\xa8\\xe7\\xb1\\xbb\\xe5\\x9e\\x8b06.sol\":1317:1344  Student({id: 4, score: 60}) */\n      dup2\n      mstore\n      0x20\n      add\n        /* \"tests/\\xe5\\xbc\\x95\\xe7\\x94\\xa8\\xe7\\xb1\\xbb\\xe5\\x9e\\x8b06.sol\":1340:1342  60 */\n      0x3c\n        /* \"tests/\\xe5\\xbc\\x95\\xe7\\x94\\xa8\\xe7\\xb1\\xbb\\xe5\\x9e\\x8b06.sol\":1317:1344  Student({id: 4, score: 60}) */\n      dup2\n      mstore\n      pop\n        /* \"tests/\\xe5\\xbc\\x95\\xe7\\x94\\xa8\\xe7\\xb1\\xbb\\xe5\\x9e\\x8b06.sol\":1307:1314  student */\n      0x04\n        /* \"tests/\\xe5\\xbc\\x95\\xe7\\x94\\xa8\\xe7\\xb1\\xbb\\xe5\\x9e\\x8b06.sol\":1307:1344  student = Student({id: 4, score: 60}) */\n      0x00\n      dup3\n      add\n      mload\n      dup2\n      0x00\n      add\n      sstore\n      0x20\n      dup3\n      add\n      mload\n      dup2\n      0x01\n      add\n      sstore\n      swap1\n      pop\n      pop\n        /* \"tests/\\xe5\\xbc\\x95\\xe7\\x94\\xa8\\xe7\\xb1\\xbb\\xe5\\x9e\\x8b06.sol\":1263:1352  function initStudent4() external {... */\n      jump\t// out\n        /* \"tests/\\xe5\\xbc\\x95\\xe7\\x94\\xa8\\xe7\\xb1\\xbb\\xe5\\x9e\\x8b06.sol\":778:949  function initStudent1() external{... */\n    tag_24:\n        /* \"tests/\\xe5\\xbc\\x95\\xe7\\x94\\xa8\\xe7\\xb1\\xbb\\xe5\\x9e\\x8b06.sol\":821:845  Student storage _student */\n      0x00\n        /* \"tests/\\xe5\\xbc\\x95\\xe7\\x94\\xa8\\xe7\\xb1\\xbb\\xe5\\x9e\\x8b06.sol\":848:855  student */\n      0x04\n        /* \"tests/\\xe5\\xbc\\x95\\xe7\\x94\\xa8\\xe7\\xb1\\xbb\\xe5\\x9e\\x8b06.sol\":821:855  Student storage _student = student */\n      swap1\n      pop\n        /* \"tests/\\xe5\\xbc\\x95\\xe7\\x94\\xa8\\xe7\\xb1\\xbb\\xe5\\x9e\\x8b06.sol\":908:910  11 */\n      0x0b\n        /* \"tests/\\xe5\\xbc\\x95\\xe7\\x94\\xa8\\xe7\\xb1\\xbb\\xe5\\x9e\\x8b06.sol\":894:902  _student */\n      dup2\n        /* \"tests/\\xe5\\xbc\\x95\\xe7\\x94\\xa8\\xe7\\xb1\\xbb\\xe5\\x9e\\x8b06.sol\":894:905  _student.id */\n      0x00\n      add\n        /* \"tests/\\xe5\\xbc\\x95\\xe7\\x94\\xa8\\xe7\\xb1\\xbb\\xe5\\x9e\\x8b06.sol\":894:910  _student.id = 11 */\n      dup2\n      swap1\n      sstore\n      pop\n        /* \"tests/\\xe5\\xbc\\x95\\xe7\\x94\\xa8\\xe7\\xb1\\xbb\\xe5\\x9e\\x8b06.sol\":938:941  100 */\n      0x64\n        /* \"tests/\\xe5\\xbc\\x95\\xe7\\x94\\xa8\\xe7\\xb1\\xbb\\xe5\\x9e\\x8b06.sol\":921:929  _student */\n      dup2\n        /* \"tests/\\xe5\\xbc\\x95\\xe7\\x94\\xa8\\xe7\\xb1\\xbb\\xe5\\x9e\\x8b06.sol\":921:935  _student.score */\n      0x01\n      add\n        /* \"tests/\\xe5\\xbc\\x95\\xe7\\x94\\xa8\\xe7\\xb1\\xbb\\xe5\\x9e\\x8b06.sol\":921:941  _student.score = 100 */\n      dup2\n      swap1\n      sstore\n      pop\n        /* \"tests/\\xe5\\xbc\\x95\\xe7\\x94\\xa8\\xe7\\xb1\\xbb\\xe5\\x9e\\x8b06.sol\":810:949  {... */\n      pop\n        /* \"tests/\\xe5\\xbc\\x95\\xe7\\x94\\xa8\\xe7\\xb1\\xbb\\xe5\\x9e\\x8b06.sol\":778:949  function initStudent1() external{... */\n      jump\t// out\n        /* \"tests/\\xe5\\xbc\\x95\\xe7\\x94\\xa8\\xe7\\xb1\\xbb\\xe5\\x9e\\x8b06.sol\":256:325  function g(uint[3] memory _data) public pure {... */\n    tag_28:\n      pop\n      jump\t// out\n    tag_34:\n      dup3\n      dup1\n      sload\n      dup3\n      dup3\n      sstore\n      swap1\n      0x00\n      mstore\n      keccak256(0x00, 0x20)\n      swap1\n      dup2\n      add\n      swap3\n      dup3\n      iszero\n      tag_42\n      jumpi\n      swap2\n      0x20\n      mul\n      dup3\n      add\n    tag_43:\n      dup3\n      dup2\n      gt\n      iszero\n      tag_44\n      jumpi\n      dup3\n      mload\n      dup3\n      sstore\n      swap2\n      0x20\n      add\n      swap2\n      swap1\n      0x01\n      add\n      swap1\n      jump(tag_43)\n    tag_44:\n    tag_42:\n      pop\n      swap1\n      pop\n      tag_45\n      swap2\n      swap1\n      tag_46\n      jump\t// in\n    tag_45:\n      pop\n      swap1\n      jump\t// out\n    tag_46:\n    tag_47:\n      dup1\n      dup3\n      gt\n      iszero\n      tag_48\n      jumpi\n      0x00\n      dup2\n      0x00\n      swap1\n      sstore\n      pop\n      0x01\n      add\n      jump(tag_47)\n    tag_48:\n      pop\n      swap1\n      jump\t// out\n        /* \"#utility.yul\":7:121   */\n    tag_49:\n        /* \"#utility.yul\":74:80   */\n      0x00\n        /* \"#utility.yul\":108:113   */\n      dup2\n        /* \"#utility.yul\":102:114   */\n      mload\n        /* \"#utility.yul\":92:114   */\n      swap1\n      pop\n        /* \"#utility.yul\":7:121   */\n      swap2\n      swap1\n      pop\n      jump\t// out\n        /* \"#utility.yul\":127:311   */\n    tag_50:\n        /* \"#utility.yul\":226:237   */\n      0x00\n        /* \"#utility.yul\":260:266   */\n      dup3\n        /* \"#utility.yul\":255:258   */\n      dup3\n        /* \"#utility.yul\":248:267   */\n      mstore\n        /* \"#utility.yul\":300:304   */\n      0x20\n        /* \"#utility.yul\":295:298   */\n      dup3\n        /* \"#utility.yul\":291:305   */\n      add\n        /* \"#utility.yul\":276:305   */\n      swap1\n      pop\n        /* \"#utility.yul\":127:311   */\n      swap3\n      swap2\n      pop\n      pop\n      jump\t// out\n        /* \"#utility.yul\":317:449   */\n    tag_51:\n        /* \"#utility.yul\":384:388   */\n      0x00\n        /* \"#utility.yul\":407:410   */\n      dup2\n        /* \"#utility.yul\":399:410   */\n      swap1\n      pop\n        /* \"#utility.yul\":437:441   */\n      0x20\n        /* \"#utility.yul\":432:435   */\n      dup3\n        /* \"#utility.yul\":428:442   */\n      add\n        /* \"#utility.yul\":420:442   */\n      swap1\n      pop\n        /* \"#utility.yul\":317:449   */\n      swap2\n      swap1\n      pop\n      jump\t// out\n        /* \"#utility.yul\":455:532   */\n    tag_52:\n        /* \"#utility.yul\":492:499   */\n      0x00\n        /* \"#utility.yul\":521:526   */\n      dup2\n        /* \"#utility.yul\":510:526   */\n      swap1\n      pop\n        /* \"#utility.yul\":455:532   */\n      swap2\n      swap1\n      pop\n      jump\t// out\n        /* \"#utility.yul\":538:646   */\n    tag_53:\n        /* \"#utility.yul\":615:639   */\n      tag_77\n        /* \"#utility.yul\":633:638   */\n      dup2\n        /* \"#utility.yul\":615:639   */\n      tag_52\n      jump\t// in\n    tag_77:\n        /* \"#utility.yul\":610:613   */\n      dup3\n        /* \"#utility.yul\":603:640   */\n      mstore\n        /* \"#utility.yul\":538:646   */\n      pop\n      pop\n      jump\t// out\n        /* \"#utility.yul\":652:831   */\n    tag_54:\n        /* \"#utility.yul\":721:731   */\n      0x00\n        /* \"#utility.yul\":742:788   */\n      tag_79\n        /* \"#utility.yul\":784:787   */\n      dup4\n        /* \"#utility.yul\":776:782   */\n      dup4\n        /* \"#utility.yul\":742:788   */\n      tag_53\n      jump\t// in\n    tag_79:\n        /* \"#utility.yul\":820:824   */\n      0x20\n        /* \"#utility.yul\":815:818   */\n      dup4\n        /* \"#utility.yul\":811:825   */\n      add\n        /* \"#utility.yul\":797:825   */\n      swap1\n      pop\n        /* \"#utility.yul\":652:831   */\n      swap3\n      swap2\n      pop\n      pop\n      jump\t// out\n        /* \"#utility.yul\":837:950   */\n    tag_55:\n        /* \"#utility.yul\":907:911   */\n      0x00\n        /* \"#utility.yul\":939:943   */\n      0x20\n        /* \"#utility.yul\":934:937   */\n      dup3\n        /* \"#utility.yul\":930:944   */\n      add\n        /* \"#utility.yul\":922:944   */\n      swap1\n      pop\n        /* \"#utility.yul\":837:950   */\n      swap2\n      swap1\n      pop\n      jump\t// out\n        /* \"#utility.yul\":986:1718   */\n    tag_56:\n        /* \"#utility.yul\":1105:1108   */\n      0x00\n        /* \"#utility.yul\":1134:1188   */\n      tag_82\n        /* \"#utility.yul\":1182:1187   */\n      dup3\n        /* \"#utility.yul\":1134:1188   */\n      tag_49\n      jump\t// in\n    tag_82:\n        /* \"#utility.yul\":1204:1290   */\n      tag_83\n        /* \"#utility.yul\":1283:1289   */\n      dup2\n        /* \"#utility.yul\":1278:1281   */\n      dup6\n        /* \"#utility.yul\":1204:1290   */\n      tag_50\n      jump\t// in\n    tag_83:\n        /* \"#utility.yul\":1197:1290   */\n      swap4\n      pop\n        /* \"#utility.yul\":1314:1370   */\n      tag_84\n        /* \"#utility.yul\":1364:1369   */\n      dup4\n        /* \"#utility.yul\":1314:1370   */\n      tag_51\n      jump\t// in\n    tag_84:\n        /* \"#utility.yul\":1393:1400   */\n      dup1\n        /* \"#utility.yul\":1424:1425   */\n      0x00\n        /* \"#utility.yul\":1409:1693   */\n    tag_85:\n        /* \"#utility.yul\":1434:1440   */\n      dup4\n        /* \"#utility.yul\":1431:1432   */\n      dup2\n        /* \"#utility.yul\":1428:1441   */\n      lt\n        /* \"#utility.yul\":1409:1693   */\n      iszero\n      tag_87\n      jumpi\n        /* \"#utility.yul\":1510:1516   */\n      dup2\n        /* \"#utility.yul\":1504:1517   */\n      mload\n        /* \"#utility.yul\":1537:1600   */\n      tag_88\n        /* \"#utility.yul\":1596:1599   */\n      dup9\n        /* \"#utility.yul\":1581:1594   */\n      dup3\n        /* \"#utility.yul\":1537:1600   */\n      tag_54\n      jump\t// in\n    tag_88:\n        /* \"#utility.yul\":1530:1600   */\n      swap8\n      pop\n        /* \"#utility.yul\":1623:1683   */\n      tag_89\n        /* \"#utility.yul\":1676:1682   */\n      dup4\n        /* \"#utility.yul\":1623:1683   */\n      tag_55\n      jump\t// in\n    tag_89:\n        /* \"#utility.yul\":1613:1683   */\n      swap3\n      pop\n        /* \"#utility.yul\":1469:1693   */\n      pop\n        /* \"#utility.yul\":1456:1457   */\n      0x01\n        /* \"#utility.yul\":1453:1454   */\n      dup2\n        /* \"#utility.yul\":1449:1458   */\n      add\n        /* \"#utility.yul\":1444:1458   */\n      swap1\n      pop\n        /* \"#utility.yul\":1409:1693   */\n      jump(tag_85)\n    tag_87:\n        /* \"#utility.yul\":1413:1427   */\n      pop\n        /* \"#utility.yul\":1709:1712   */\n      dup6\n        /* \"#utility.yul\":1702:1712   */\n      swap4\n      pop\n        /* \"#utility.yul\":1110:1718   */\n      pop\n      pop\n      pop\n        /* \"#utility.yul\":986:1718   */\n      swap3\n      swap2\n      pop\n      pop\n      jump\t// out\n        /* \"#utility.yul\":1724:2097   */\n    tag_18:\n        /* \"#utility.yul\":1867:1871   */\n      0x00\n        /* \"#utility.yul\":1905:1907   */\n      0x20\n        /* \"#utility.yul\":1894:1903   */\n      dup3\n        /* \"#utility.yul\":1890:1908   */\n      add\n        /* \"#utility.yul\":1882:1908   */\n      swap1\n      pop\n        /* \"#utility.yul\":1954:1963   */\n      dup2\n        /* \"#utility.yul\":1948:1952   */\n      dup2\n        /* \"#utility.yul\":1944:1964   */\n      sub\n        /* \"#utility.yul\":1940:1941   */\n      0x00\n        /* \"#utility.yul\":1929:1938   */\n      dup4\n        /* \"#utility.yul\":1925:1942   */\n      add\n        /* \"#utility.yul\":1918:1965   */\n      mstore\n        /* \"#utility.yul\":1982:2090   */\n      tag_91\n        /* \"#utility.yul\":2085:2089   */\n      dup2\n        /* \"#utility.yul\":2076:2082   */\n      dup5\n        /* \"#utility.yul\":1982:2090   */\n      tag_56\n      jump\t// in\n    tag_91:\n        /* \"#utility.yul\":1974:2090   */\n      swap1\n      pop\n        /* \"#utility.yul\":1724:2097   */\n      swap3\n      swap2\n      pop\n      pop\n      jump\t// out\n        /* \"#utility.yul\":2103:2178   */\n    tag_57:\n        /* \"#utility.yul\":2136:2142   */\n      0x00\n        /* \"#utility.yul\":2169:2171   */\n      0x40\n        /* \"#utility.yul\":2163:2172   */\n      mload\n        /* \"#utility.yul\":2153:2172   */\n      swap1\n      pop\n        /* \"#utility.yul\":2103:2178   */\n      swap1\n      jump\t// out\n        /* \"#utility.yul\":2184:2301   */\n    tag_58:\n        /* \"#utility.yul\":2293:2294   */\n      0x00\n        /* \"#utility.yul\":2290:2291   */\n      dup1\n        /* \"#utility.yul\":2283:2295   */\n      revert\n        /* \"#utility.yul\":2430:2547   */\n    tag_60:\n        /* \"#utility.yul\":2539:2540   */\n      0x00\n        /* \"#utility.yul\":2536:2537   */\n      dup1\n        /* \"#utility.yul\":2529:2541   */\n      revert\n        /* \"#utility.yul\":2553:2655   */\n    tag_61:\n        /* \"#utility.yul\":2594:2600   */\n      0x00\n        /* \"#utility.yul\":2645:2647   */\n      0x1f\n        /* \"#utility.yul\":2641:2648   */\n      not\n        /* \"#utility.yul\":2636:2638   */\n      0x1f\n        /* \"#utility.yul\":2629:2634   */\n      dup4\n        /* \"#utility.yul\":2625:2639   */\n      add\n        /* \"#utility.yul\":2621:2649   */\n      and\n        /* \"#utility.yul\":2611:2649   */\n      swap1\n      pop\n        /* \"#utility.yul\":2553:2655   */\n      swap2\n      swap1\n      pop\n      jump\t// out\n        /* \"#utility.yul\":2661:2841   */\n    tag_62:\n        /* \"#utility.yul\":2709:2786   */\n      0x4e487b7100000000000000000000000000000000000000000000000000000000\n        /* \"#utility.yul\":2706:2707   */\n      0x00\n        /* \"#utility.yul\":2699:2787   */\n      mstore\n        /* \"#utility.yul\":2806:2810   */\n      0x41\n        /* \"#utility.yul\":2803:2804   */\n      0x04\n        /* \"#utility.yul\":2796:2811   */\n      mstore\n        /* \"#utility.yul\":2830:2834   */\n      0x24\n        /* \"#utility.yul\":2827:2828   */\n      0x00\n        /* \"#utility.yul\":2820:2835   */\n      revert\n        /* \"#utility.yul\":2847:3128   */\n    tag_63:\n        /* \"#utility.yul\":2930:2957   */\n      tag_99\n        /* \"#utility.yul\":2952:2956   */\n      dup3\n        /* \"#utility.yul\":2930:2957   */\n      tag_61\n      jump\t// in\n    tag_99:\n        /* \"#utility.yul\":2922:2928   */\n      dup2\n        /* \"#utility.yul\":2918:2958   */\n      add\n        /* \"#utility.yul\":3060:3066   */\n      dup2\n        /* \"#utility.yul\":3048:3058   */\n      dup2\n        /* \"#utility.yul\":3045:3067   */\n      lt\n        /* \"#utility.yul\":3024:3042   */\n      0xffffffffffffffff\n        /* \"#utility.yul\":3012:3022   */\n      dup3\n        /* \"#utility.yul\":3009:3043   */\n      gt\n        /* \"#utility.yul\":3006:3068   */\n      or\n        /* \"#utility.yul\":3003:3091   */\n      iszero\n      tag_100\n      jumpi\n        /* \"#utility.yul\":3071:3089   */\n      tag_101\n      tag_62\n      jump\t// in\n    tag_101:\n        /* \"#utility.yul\":3003:3091   */\n    tag_100:\n        /* \"#utility.yul\":3111:3121   */\n      dup1\n        /* \"#utility.yul\":3107:3109   */\n      0x40\n        /* \"#utility.yul\":3100:3122   */\n      mstore\n        /* \"#utility.yul\":2890:3128   */\n      pop\n        /* \"#utility.yul\":2847:3128   */\n      pop\n      pop\n      jump\t// out\n        /* \"#utility.yul\":3134:3263   */\n    tag_64:\n        /* \"#utility.yul\":3168:3174   */\n      0x00\n        /* \"#utility.yul\":3195:3215   */\n      tag_103\n      tag_57\n      jump\t// in\n    tag_103:\n        /* \"#utility.yul\":3185:3215   */\n      swap1\n      pop\n        /* \"#utility.yul\":3224:3257   */\n      tag_104\n        /* \"#utility.yul\":3252:3256   */\n      dup3\n        /* \"#utility.yul\":3244:3250   */\n      dup3\n        /* \"#utility.yul\":3224:3257   */\n      tag_63\n      jump\t// in\n    tag_104:\n        /* \"#utility.yul\":3134:3263   */\n      swap2\n      swap1\n      pop\n      jump\t// out\n        /* \"#utility.yul\":3269:3518   */\n    tag_65:\n        /* \"#utility.yul\":3344:3348   */\n      0x00\n        /* \"#utility.yul\":3434:3452   */\n      0xffffffffffffffff\n        /* \"#utility.yul\":3426:3432   */\n      dup3\n        /* \"#utility.yul\":3423:3453   */\n      gt\n        /* \"#utility.yul\":3420:3476   */\n      iszero\n      tag_106\n      jumpi\n        /* \"#utility.yul\":3456:3474   */\n      tag_107\n      tag_62\n      jump\t// in\n    tag_107:\n        /* \"#utility.yul\":3420:3476   */\n    tag_106:\n        /* \"#utility.yul\":3506:3510   */\n      0x20\n        /* \"#utility.yul\":3498:3504   */\n      dup3\n        /* \"#utility.yul\":3494:3511   */\n      mul\n        /* \"#utility.yul\":3486:3511   */\n      swap1\n      pop\n        /* \"#utility.yul\":3269:3518   */\n      swap2\n      swap1\n      pop\n      jump\t// out\n        /* \"#utility.yul\":3524:3641   */\n    tag_66:\n        /* \"#utility.yul\":3633:3634   */\n      0x00\n        /* \"#utility.yul\":3630:3631   */\n      dup1\n        /* \"#utility.yul\":3623:3635   */\n      revert\n        /* \"#utility.yul\":3647:3769   */\n    tag_67:\n        /* \"#utility.yul\":3720:3744   */\n      tag_110\n        /* \"#utility.yul\":3738:3743   */\n      dup2\n        /* \"#utility.yul\":3720:3744   */\n      tag_52\n      jump\t// in\n    tag_110:\n        /* \"#utility.yul\":3713:3718   */\n      dup2\n        /* \"#utility.yul\":3710:3745   */\n      eq\n        /* \"#utility.yul\":3700:3763   */\n      tag_111\n      jumpi\n        /* \"#utility.yul\":3759:3760   */\n      0x00\n        /* \"#utility.yul\":3756:3757   */\n      dup1\n        /* \"#utility.yul\":3749:3761   */\n      revert\n        /* \"#utility.yul\":3700:3763   */\n    tag_111:\n        /* \"#utility.yul\":3647:3769   */\n      pop\n      jump\t// out\n        /* \"#utility.yul\":3775:3914   */\n    tag_68:\n        /* \"#utility.yul\":3821:3826   */\n      0x00\n        /* \"#utility.yul\":3859:3865   */\n      dup2\n        /* \"#utility.yul\":3846:3866   */\n      calldataload\n        /* \"#utility.yul\":3837:3866   */\n      swap1\n      pop\n        /* \"#utility.yul\":3875:3908   */\n      tag_113\n        /* \"#utility.yul\":3902:3907   */\n      dup2\n        /* \"#utility.yul\":3875:3908   */\n      tag_67\n      jump\t// in\n    tag_113:\n        /* \"#utility.yul\":3775:3914   */\n      swap3\n      swap2\n      pop\n      pop\n      jump\t// out\n        /* \"#utility.yul\":3938:4581   */\n    tag_69:\n        /* \"#utility.yul\":4032:4037   */\n      0x00\n        /* \"#utility.yul\":4057:4136   */\n      tag_115\n        /* \"#utility.yul\":4073:4135   */\n      tag_116\n        /* \"#utility.yul\":4128:4134   */\n      dup5\n        /* \"#utility.yul\":4073:4135   */\n      tag_65\n      jump\t// in\n    tag_116:\n        /* \"#utility.yul\":4057:4136   */\n      tag_64\n      jump\t// in\n    tag_115:\n        /* \"#utility.yul\":4048:4136   */\n      swap1\n      pop\n        /* \"#utility.yul\":4156:4161   */\n      dup1\n        /* \"#utility.yul\":4209:4213   */\n      0x20\n        /* \"#utility.yul\":4201:4207   */\n      dup5\n        /* \"#utility.yul\":4197:4214   */\n      mul\n        /* \"#utility.yul\":4189:4195   */\n      dup4\n        /* \"#utility.yul\":4185:4215   */\n      add\n        /* \"#utility.yul\":4238:4241   */\n      dup6\n        /* \"#utility.yul\":4230:4236   */\n      dup2\n        /* \"#utility.yul\":4227:4242   */\n      gt\n        /* \"#utility.yul\":4224:4346   */\n      iszero\n      tag_117\n      jumpi\n        /* \"#utility.yul\":4257:4336   */\n      tag_118\n      tag_66\n      jump\t// in\n    tag_118:\n        /* \"#utility.yul\":4224:4346   */\n    tag_117:\n        /* \"#utility.yul\":4372:4378   */\n      dup4\n        /* \"#utility.yul\":4355:4575   */\n    tag_119:\n        /* \"#utility.yul\":4389:4395   */\n      dup2\n        /* \"#utility.yul\":4384:4387   */\n      dup2\n        /* \"#utility.yul\":4381:4396   */\n      lt\n        /* \"#utility.yul\":4355:4575   */\n      iszero\n      tag_121\n      jumpi\n        /* \"#utility.yul\":4464:4467   */\n      dup1\n        /* \"#utility.yul\":4493:4530   */\n      tag_122\n        /* \"#utility.yul\":4526:4529   */\n      dup9\n        /* \"#utility.yul\":4514:4524   */\n      dup3\n        /* \"#utility.yul\":4493:4530   */\n      tag_68\n      jump\t// in\n    tag_122:\n        /* \"#utility.yul\":4488:4491   */\n      dup5\n        /* \"#utility.yul\":4481:4531   */\n      mstore\n        /* \"#utility.yul\":4560:4564   */\n      0x20\n        /* \"#utility.yul\":4555:4558   */\n      dup5\n        /* \"#utility.yul\":4551:4565   */\n      add\n        /* \"#utility.yul\":4544:4565   */\n      swap4\n      pop\n        /* \"#utility.yul\":4431:4575   */\n      pop\n        /* \"#utility.yul\":4415:4419   */\n      0x20\n        /* \"#utility.yul\":4410:4413   */\n      dup2\n        /* \"#utility.yul\":4406:4420   */\n      add\n        /* \"#utility.yul\":4399:4420   */\n      swap1\n      pop\n        /* \"#utility.yul\":4355:4575   */\n      jump(tag_119)\n    tag_121:\n        /* \"#utility.yul\":4359:4380   */\n      pop\n        /* \"#utility.yul\":4038:4581   */\n      pop\n      pop\n        /* \"#utility.yul\":3938:4581   */\n      swap4\n      swap3\n      pop\n      pop\n      pop\n      jump\t// out\n        /* \"#utility.yul\":4605:4944   */\n    tag_70:\n        /* \"#utility.yul\":4674:4679   */\n      0x00\n        /* \"#utility.yul\":4723:4726   */\n      dup3\n        /* \"#utility.yul\":4716:4720   */\n      0x1f\n        /* \"#utility.yul\":4708:4714   */\n      dup4\n        /* \"#utility.yul\":4704:4721   */\n      add\n        /* \"#utility.yul\":4700:4727   */\n      slt\n        /* \"#utility.yul\":4690:4812   */\n      tag_124\n      jumpi\n        /* \"#utility.yul\":4731:4810   */\n      tag_125\n      tag_60\n      jump\t// in\n    tag_125:\n        /* \"#utility.yul\":4690:4812   */\n    tag_124:\n        /* \"#utility.yul\":4835:4839   */\n      0x03\n        /* \"#utility.yul\":4857:4938   */\n      tag_126\n        /* \"#utility.yul\":4934:4937   */\n      dup5\n        /* \"#utility.yul\":4926:4932   */\n      dup3\n        /* \"#utility.yul\":4918:4924   */\n      dup6\n        /* \"#utility.yul\":4857:4938   */\n      tag_69\n      jump\t// in\n    tag_126:\n        /* \"#utility.yul\":4848:4938   */\n      swap2\n      pop\n        /* \"#utility.yul\":4680:4944   */\n      pop\n        /* \"#utility.yul\":4605:4944   */\n      swap3\n      swap2\n      pop\n      pop\n      jump\t// out\n        /* \"#utility.yul\":4950:5325   */\n    tag_27:\n        /* \"#utility.yul\":5032:5038   */\n      0x00\n        /* \"#utility.yul\":5081:5083   */\n      0x60\n        /* \"#utility.yul\":5069:5078   */\n      dup3\n        /* \"#utility.yul\":5060:5067   */\n      dup5\n        /* \"#utility.yul\":5056:5079   */\n      sub\n        /* \"#utility.yul\":5052:5084   */\n      slt\n        /* \"#utility.yul\":5049:5168   */\n      iszero\n      tag_128\n      jumpi\n        /* \"#utility.yul\":5087:5166   */\n      tag_129\n      tag_58\n      jump\t// in\n    tag_129:\n        /* \"#utility.yul\":5049:5168   */\n    tag_128:\n        /* \"#utility.yul\":5207:5208   */\n      0x00\n        /* \"#utility.yul\":5232:5308   */\n      tag_130\n        /* \"#utility.yul\":5300:5307   */\n      dup5\n        /* \"#utility.yul\":5291:5297   */\n      dup3\n        /* \"#utility.yul\":5280:5289   */\n      dup6\n        /* \"#utility.yul\":5276:5298   */\n      add\n        /* \"#utility.yul\":5232:5308   */\n      tag_70\n      jump\t// in\n    tag_130:\n        /* \"#utility.yul\":5222:5308   */\n      swap2\n      pop\n        /* \"#utility.yul\":5178:5318   */\n      pop\n        /* \"#utility.yul\":4950:5325   */\n      swap3\n      swap2\n      pop\n      pop\n      jump\t// out\n\n    auxdata: 0xa2646970667358221220966ef4ffd1fd11c187cd5d7bca8ec16a82fc2dd8b72f27f9d49797f97ae21ac664736f6c634300081a0033\n}\n",
				"bytecode": {
					"linkReferences": {},
					"object": "6080604052348015600e575f80fd5b5061056b8061001c5f395ff3fe608060405234801561000f575f80fd5b506004361061007b575f3560e01c80635a4236b1116100595780635a4236b1146100b15780639ebb8d20146100bb578063a8b63e6f146100c5578063d14d385d146100cf5761007b565b80631a8d7dc31461007f57806326121ff01461008957806354722e2814610093575b5f80fd5b6100876100eb565b005b610091610102565b005b61009b61012a565b6040516100a89190610375565b60405180910390f35b6100b96101d1565b005b6100c3610201565b005b6100cd610231565b005b6100e960048036038101906100e4919061050a565b61024c565b005b600160045f01819055506050600460010181905550565b61012860405180606001604052806001815260200160028152602001600381525061024c565b565b60605f60405180604001604052806001815260200160028152509050805f90600261015692919061024f565b505f6003908060018154018082558091505060019003905f5260205f20015f90919091909150555f8054806020026020016040519081016040528092919081815260200182805480156101c657602002820191905f5260205f20905b8154815260200190600101908083116101b2575b505050505091505090565b604051806040016040528060038152602001605a81525060045f820151815f015560208201518160010155905050565b604051806040016040528060048152602001603c81525060045f820151815f015560208201518160010155905050565b5f60049050600b815f01819055506064816001018190555050565b50565b828054828255905f5260205f20908101928215610289579160200282015b8281111561028857825182559160200191906001019061026d565b5b509050610296919061029a565b5090565b5b808211156102b1575f815f90555060010161029b565b5090565b5f81519050919050565b5f82825260208201905092915050565b5f819050602082019050919050565b5f819050919050565b6102f0816102de565b82525050565b5f61030183836102e7565b60208301905092915050565b5f602082019050919050565b5f610323826102b5565b61032d81856102bf565b9350610338836102cf565b805f5b8381101561036857815161034f88826102f6565b975061035a8361030d565b92505060018101905061033b565b5085935050505092915050565b5f6020820190508181035f83015261038d8184610319565b905092915050565b5f604051905090565b5f80fd5b5f80fd5b5f601f19601f8301169050919050565b7f4e487b71000000000000000000000000000000000000000000000000000000005f52604160045260245ffd5b6103ec826103a6565b810181811067ffffffffffffffff8211171561040b5761040a6103b6565b5b80604052505050565b5f61041d610395565b905061042982826103e3565b919050565b5f67ffffffffffffffff821115610448576104476103b6565b5b602082029050919050565b5f80fd5b610460816102de565b811461046a575f80fd5b50565b5f8135905061047b81610457565b92915050565b5f61049361048e8461042e565b610414565b905080602084028301858111156104ad576104ac610453565b5b835b818110156104d657806104c2888261046d565b8452602084019350506020810190506104af565b5050509392505050565b5f82601f8301126104f4576104f36103a2565b5b6003610501848285610481565b91505092915050565b5f6060828403121561051f5761051e61039e565b5b5f61052c848285016104e0565b9150509291505056fea2646970667358221220966ef4ffd1fd11c187cd5d7bca8ec16a82fc2dd8b72f27f9d49797f97ae21ac664736f6c634300081a0033",
					"opcodes": "PUSH1 0x80 PUSH1 0x40 MSTORE CALLVALUE DUP1 ISZERO PUSH1 0xE JUMPI PUSH0 DUP1 REVERT JUMPDEST POP PUSH2 0x56B DUP1 PUSH2 0x1C PUSH0 CODECOPY PUSH0 RETURN INVALID PUSH1 0x80 PUSH1 0x40 MSTORE CALLVALUE DUP1 ISZERO PUSH2 0xF JUMPI PUSH0 DUP1 REVERT JUMPDEST POP PUSH1 0x4 CALLDATASIZE LT PUSH2 0x7B JUMPI PUSH0 CALLDATALOAD PUSH1 0xE0 SHR DUP1 PUSH4 0x5A4236B1 GT PUSH2 0x59 JUMPI DUP1 PUSH4 0x5A4236B1 EQ PUSH2 0xB1 JUMPI DUP1 PUSH4 0x9EBB8D20 EQ PUSH2 0xBB JUMPI DUP1 PUSH4 0xA8B63E6F EQ PUSH2 0xC5 JUMPI DUP1 PUSH4 0xD14D385D EQ PUSH2 0xCF JUMPI PUSH2 0x7B JUMP JUMPDEST DUP1 PUSH4 0x1A8D7DC3 EQ PUSH2 0x7F JUMPI DUP1 PUSH4 0x26121FF0 EQ PUSH2 0x89 JUMPI DUP1 PUSH4 0x54722E28 EQ PUSH2 0x93 JUMPI JUMPDEST PUSH0 DUP1 REVERT JUMPDEST PUSH2 0x87 PUSH2 0xEB JUMP JUMPDEST STOP JUMPDEST PUSH2 0x91 PUSH2 0x102 JUMP JUMPDEST STOP JUMPDEST PUSH2 0x9B PUSH2 0x12A JUMP JUMPDEST PUSH1 0x40 MLOAD PUSH2 0xA8 SWAP2 SWAP1 PUSH2 0x375 JUMP JUMPDEST PUSH1 0x40 MLOAD DUP1 SWAP2 SUB SWAP1 RETURN JUMPDEST PUSH2 0xB9 PUSH2 0x1D1 JUMP JUMPDEST STOP JUMPDEST PUSH2 0xC3 PUSH2 0x201 JUMP JUMPDEST STOP JUMPDEST PUSH2 0xCD PUSH2 0x231 JUMP JUMPDEST STOP JUMPDEST PUSH2 0xE9 PUSH1 0x4 DUP1 CALLDATASIZE SUB DUP2 ADD SWAP1 PUSH2 0xE4 SWAP2 SWAP1 PUSH2 0x50A JUMP JUMPDEST PUSH2 0x24C JUMP JUMPDEST STOP JUMPDEST PUSH1 0x1 PUSH1 0x4 PUSH0 ADD DUP2 SWAP1 SSTORE POP PUSH1 0x50 PUSH1 0x4 PUSH1 0x1 ADD DUP2 SWAP1 SSTORE POP JUMP JUMPDEST PUSH2 0x128 PUSH1 0x40 MLOAD DUP1 PUSH1 0x60 ADD PUSH1 0x40 MSTORE DUP1 PUSH1 0x1 DUP2 MSTORE PUSH1 0x20 ADD PUSH1 0x2 DUP2 MSTORE PUSH1 0x20 ADD PUSH1 0x3 DUP2 MSTORE POP PUSH2 0x24C JUMP JUMPDEST JUMP JUMPDEST PUSH1 0x60 PUSH0 PUSH1 0x40 MLOAD DUP1 PUSH1 0x40 ADD PUSH1 0x40 MSTORE DUP1 PUSH1 0x1 DUP2 MSTORE PUSH1 0x20 ADD PUSH1 0x2 DUP2 MSTORE POP SWAP1 POP DUP1 PUSH0 SWAP1 PUSH1 0x2 PUSH2 0x156 SWAP3 SWAP2 SWAP1 PUSH2 0x24F JUMP JUMPDEST POP PUSH0 PUSH1 0x3 SWAP1 DUP1 PUSH1 0x1 DUP2 SLOAD ADD DUP1 DUP3 SSTORE DUP1 SWAP2 POP POP PUSH1 0x1 SWAP1 SUB SWAP1 PUSH0 MSTORE PUSH1 0x20 PUSH0 KECCAK256 ADD PUSH0 SWAP1 SWAP2 SWAP1 SWAP2 SWAP1 SWAP2 POP SSTORE PUSH0 DUP1 SLOAD DUP1 PUSH1 0x20 MUL PUSH1 0x20 ADD PUSH1 0x40 MLOAD SWAP1 DUP2 ADD PUSH1 0x40 MSTORE DUP1 SWAP3 SWAP2 SWAP1 DUP2 DUP2 MSTORE PUSH1 0x20 ADD DUP3 DUP1 SLOAD DUP1 ISZERO PUSH2 0x1C6 JUMPI PUSH1 0x20 MUL DUP3 ADD SWAP2 SWAP1 PUSH0 MSTORE PUSH1 0x20 PUSH0 KECCAK256 SWAP1 JUMPDEST DUP2 SLOAD DUP2 MSTORE PUSH1 0x20 ADD SWAP1 PUSH1 0x1 ADD SWAP1 DUP1 DUP4 GT PUSH2 0x1B2 JUMPI JUMPDEST POP POP POP POP POP SWAP2 POP POP SWAP1 JUMP JUMPDEST PUSH1 0x40 MLOAD DUP1 PUSH1 0x40 ADD PUSH1 0x40 MSTORE DUP1 PUSH1 0x3 DUP2 MSTORE PUSH1 0x20 ADD PUSH1 0x5A DUP2 MSTORE POP PUSH1 0x4 PUSH0 DUP3 ADD MLOAD DUP2 PUSH0 ADD SSTORE PUSH1 0x20 DUP3 ADD MLOAD DUP2 PUSH1 0x1 ADD SSTORE SWAP1 POP POP JUMP JUMPDEST PUSH1 0x40 MLOAD DUP1 PUSH1 0x40 ADD PUSH1 0x40 MSTORE DUP1 PUSH1 0x4 DUP2 MSTORE PUSH1 0x20 ADD PUSH1 0x3C DUP2 MSTORE POP PUSH1 0x4 PUSH0 DUP3 ADD MLOAD DUP2 PUSH0 ADD SSTORE PUSH1 0x20 DUP3 ADD MLOAD DUP2 PUSH1 0x1 ADD SSTORE SWAP1 POP POP JUMP JUMPDEST PUSH0 PUSH1 0x4 SWAP1 POP PUSH1 0xB DUP2 PUSH0 ADD DUP2 SWAP1 SSTORE POP PUSH1 0x64 DUP2 PUSH1 0x1 ADD DUP2 SWAP1 SSTORE POP POP JUMP JUMPDEST POP JUMP JUMPDEST DUP3 DUP1 SLOAD DUP3 DUP3 SSTORE SWAP1 PUSH0 MSTORE PUSH1 0x20 PUSH0 KECCAK256 SWAP1 DUP2 ADD SWAP3 DUP3 ISZERO PUSH2 0x289 JUMPI SWAP2 PUSH1 0x20 MUL DUP3 ADD JUMPDEST DUP3 DUP2 GT ISZERO PUSH2 0x288 JUMPI DUP3 MLOAD DUP3 SSTORE SWAP2 PUSH1 0x20 ADD SWAP2 SWAP1 PUSH1 0x1 ADD SWAP1 PUSH2 0x26D JUMP JUMPDEST JUMPDEST POP SWAP1 POP PUSH2 0x296 SWAP2 SWAP1 PUSH2 0x29A JUMP JUMPDEST POP SWAP1 JUMP JUMPDEST JUMPDEST DUP1 DUP3 GT ISZERO PUSH2 0x2B1 JUMPI PUSH0 DUP2 PUSH0 SWAP1 SSTORE POP PUSH1 0x1 ADD PUSH2 0x29B JUMP JUMPDEST POP SWAP1 JUMP JUMPDEST PUSH0 DUP2 MLOAD SWAP1 POP SWAP2 SWAP1 POP JUMP JUMPDEST PUSH0 DUP3 DUP3 MSTORE PUSH1 0x20 DUP3 ADD SWAP1 POP SWAP3 SWAP2 POP POP JUMP JUMPDEST PUSH0 DUP2 SWAP1 POP PUSH1 0x20 DUP3 ADD SWAP1 POP SWAP2 SWAP1 POP JUMP JUMPDEST PUSH0 DUP2 SWAP1 POP SWAP2 SWAP1 POP JUMP JUMPDEST PUSH2 0x2F0 DUP2 PUSH2 0x2DE JUMP JUMPDEST DUP3 MSTORE POP POP JUMP JUMPDEST PUSH0 PUSH2 0x301 DUP4 DUP4 PUSH2 0x2E7 JUMP JUMPDEST PUSH1 0x20 DUP4 ADD SWAP1 POP SWAP3 SWAP2 POP POP JUMP JUMPDEST PUSH0 PUSH1 0x20 DUP3 ADD SWAP1 POP SWAP2 SWAP1 POP JUMP JUMPDEST PUSH0 PUSH2 0x323 DUP3 PUSH2 0x2B5 JUMP JUMPDEST PUSH2 0x32D DUP2 DUP6 PUSH2 0x2BF JUMP JUMPDEST SWAP4 POP PUSH2 0x338 DUP4 PUSH2 0x2CF JUMP JUMPDEST DUP1 PUSH0 JUMPDEST DUP4 DUP2 LT ISZERO PUSH2 0x368 JUMPI DUP2 MLOAD PUSH2 0x34F DUP9 DUP3 PUSH2 0x2F6 JUMP JUMPDEST SWAP8 POP PUSH2 0x35A DUP4 PUSH2 0x30D JUMP JUMPDEST SWAP3 POP POP PUSH1 0x1 DUP2 ADD SWAP1 POP PUSH2 0x33B JUMP JUMPDEST POP DUP6 SWAP4 POP POP POP POP SWAP3 SWAP2 POP POP JUMP JUMPDEST PUSH0 PUSH1 0x20 DUP3 ADD SWAP1 POP DUP2 DUP2 SUB PUSH0 DUP4 ADD MSTORE PUSH2 0x38D DUP2 DUP5 PUSH2 0x319 JUMP JUMPDEST SWAP1 POP SWAP3 SWAP2 POP POP JUMP JUMPDEST PUSH0 PUSH1 0x40 MLOAD SWAP1 POP SWAP1 JUMP JUMPDEST PUSH0 DUP1 REVERT JUMPDEST PUSH0 DUP1 REVERT JUMPDEST PUSH0 PUSH1 0x1F NOT PUSH1 0x1F DUP4 ADD AND SWAP1 POP SWAP2 SWAP1 POP JUMP JUMPDEST PUSH32 0x4E487B7100000000000000000000000000000000000000000000000000000000 PUSH0 MSTORE PUSH1 0x41 PUSH1 0x4 MSTORE PUSH1 0x24 PUSH0 REVERT JUMPDEST PUSH2 0x3EC DUP3 PUSH2 0x3A6 JUMP JUMPDEST DUP2 ADD DUP2 DUP2 LT PUSH8 0xFFFFFFFFFFFFFFFF DUP3 GT OR ISZERO PUSH2 0x40B JUMPI PUSH2 0x40A PUSH2 0x3B6 JUMP JUMPDEST JUMPDEST DUP1 PUSH1 0x40 MSTORE POP POP POP JUMP JUMPDEST PUSH0 PUSH2 0x41D PUSH2 0x395 JUMP JUMPDEST SWAP1 POP PUSH2 0x429 DUP3 DUP3 PUSH2 0x3E3 JUMP JUMPDEST SWAP2 SWAP1 POP JUMP JUMPDEST PUSH0 PUSH8 0xFFFFFFFFFFFFFFFF DUP3 GT ISZERO PUSH2 0x448 JUMPI PUSH2 0x447 PUSH2 0x3B6 JUMP JUMPDEST JUMPDEST PUSH1 0x20 DUP3 MUL SWAP1 POP SWAP2 SWAP1 POP JUMP JUMPDEST PUSH0 DUP1 REVERT JUMPDEST PUSH2 0x460 DUP2 PUSH2 0x2DE JUMP JUMPDEST DUP2 EQ PUSH2 0x46A JUMPI PUSH0 DUP1 REVERT JUMPDEST POP JUMP JUMPDEST PUSH0 DUP2 CALLDATALOAD SWAP1 POP PUSH2 0x47B DUP2 PUSH2 0x457 JUMP JUMPDEST SWAP3 SWAP2 POP POP JUMP JUMPDEST PUSH0 PUSH2 0x493 PUSH2 0x48E DUP5 PUSH2 0x42E JUMP JUMPDEST PUSH2 0x414 JUMP JUMPDEST SWAP1 POP DUP1 PUSH1 0x20 DUP5 MUL DUP4 ADD DUP6 DUP2 GT ISZERO PUSH2 0x4AD JUMPI PUSH2 0x4AC PUSH2 0x453 JUMP JUMPDEST JUMPDEST DUP4 JUMPDEST DUP2 DUP2 LT ISZERO PUSH2 0x4D6 JUMPI DUP1 PUSH2 0x4C2 DUP9 DUP3 PUSH2 0x46D JUMP JUMPDEST DUP5 MSTORE PUSH1 0x20 DUP5 ADD SWAP4 POP POP PUSH1 0x20 DUP2 ADD SWAP1 POP PUSH2 0x4AF JUMP JUMPDEST POP POP POP SWAP4 SWAP3 POP POP POP JUMP JUMPDEST PUSH0 DUP3 PUSH1 0x1F DUP4 ADD SLT PUSH2 0x4F4 JUMPI PUSH2 0x4F3 PUSH2 0x3A2 JUMP JUMPDEST JUMPDEST PUSH1 0x3 PUSH2 0x501 DUP5 DUP3 DUP6 PUSH2 0x481 JUMP JUMPDEST SWAP2 POP POP SWAP3 SWAP2 POP POP JUMP JUMPDEST PUSH0 PUSH1 0x60 DUP3 DUP5 SUB SLT ISZERO PUSH2 0x51F JUMPI PUSH2 0x51E PUSH2 0x39E JUMP JUMPDEST JUMPDEST PUSH0 PUSH2 0x52C DUP5 DUP3 DUP6 ADD PUSH2 0x4E0 JUMP JUMPDEST SWAP2 POP POP SWAP3 SWAP2 POP POP JUMP INVALID LOG2 PUSH5 0x6970667358 0x22 SLT KECCAK256 SWAP7 PUSH15 0xF4FFD1FD11C187CD5D7BCA8EC16A82 0xFC 0x2D 0xD8 0xB7 0x2F 0x27 0xF9 0xD4 SWAP8 SWAP8 0xF9 PUSH27 0xE21AC664736F6C634300081A003300000000000000000000000000 "
				},
				"gasEstimates": {
					"creation": {
						"codeDepositCost": "277400",
						"executionCost": "316",
						"totalCost": "277716"
					},
					"external": {
						"arraypush()": "infinite",
						"f()": "269",
						"g(uint256[3])": "infinite",
						"initStudent1()": "44438",
						"initStudent2()": "44383",
						"initStudent3()": "44452",
						"initStudent4()": "44474"
					}
				},
				"methodIdentifiers": {
					"arraypush()": "54722e28",
					"f()": "26121ff0",
					"g(uint256[3])": "d14d385d",
					"initStudent1()": "a8b63e6f",
					"initStudent2()": "1a8d7dc3",
					"initStudent3()": "5a4236b1",
					"initStudent4()": "9ebb8d20"
				}
			},
			"storageLayout": {
				"storage": [
					{
						"astId": 4,
						"contract": "tests/引用类型06.sol:C",
						"label": "array4",
						"offset": 0,
						"slot": "0",
						"type": "t_array(t_uint256)dyn_storage"
					},
					{
						"astId": 7,
						"contract": "tests/引用类型06.sol:C",
						"label": "array5",
						"offset": 0,
						"slot": "1",
						"type": "t_array(t_bytes1)dyn_storage"
					},
					{
						"astId": 10,
						"contract": "tests/引用类型06.sol:C",
						"label": "array6",
						"offset": 0,
						"slot": "2",
						"type": "t_array(t_address)dyn_storage"
					},
					{
						"astId": 12,
						"contract": "tests/引用类型06.sol:C",
						"label": "array7",
						"offset": 0,
						"slot": "3",
						"type": "t_bytes_storage"
					},
					{
						"astId": 74,
						"contract": "tests/引用类型06.sol:C",
						"label": "student",
						"offset": 0,
						"slot": "4",
						"type": "t_struct(Student)71_storage"
					}
				],
				"types": {
					"t_address": {
						"encoding": "inplace",
						"label": "address",
						"numberOfBytes": "20"
					},
					"t_array(t_address)dyn_storage": {
						"base": "t_address",
						"encoding": "dynamic_array",
						"label": "address[]",
						"numberOfBytes": "32"
					},
					"t_array(t_bytes1)dyn_storage": {
						"base": "t_bytes1",
						"encoding": "dynamic_array",
						"label": "bytes1[]",
						"numberOfBytes": "32"
					},
					"t_array(t_uint256)dyn_storage": {
						"base": "t_uint256",
						"encoding": "dynamic_array",
						"label": "uint256[]",
						"numberOfBytes": "32"
					},
					"t_bytes1": {
						"encoding": "inplace",
						"label": "bytes1",
						"numberOfBytes": "1"
					},
					"t_bytes_storage": {
						"encoding": "bytes",
						"label": "bytes",
						"numberOfBytes": "32"
					},
					"t_struct(Student)71_storage": {
						"encoding": "inplace",
						"label": "struct C.Student",
						"members": [
							{
								"astId": 68,
								"contract": "tests/引用类型06.sol:C",
								"label": "id",
								"offset": 0,
								"slot": "0",
								"type": "t_uint256"
							},
							{
								"astId": 70,
								"contract": "tests/引用类型06.sol:C",
								"label": "score",
								"offset": 0,
								"slot": "1",
								"type": "t_uint256"
							}
						],
						"numberOfBytes": "64"
					},
					"t_uint256": {
						"encoding": "inplace",
						"label": "uint256",
						"numberOfBytes": "32"
					}
				}
			},
			"userdoc": {
				"kind": "user",
				"methods": {},
				"version": 1
			}
		}
	}
}