{
	"tests/10控制流.sol": {
		"Control": {
			"abi": [
				{
					"inputs": [],
					"name": "doWhileTest",
					"outputs": [
						{
							"internalType": "uint256",
							"name": "",
							"type": "uint256"
						}
					],
					"stateMutability": "pure",
					"type": "function"
				},
				{
					"inputs": [],
					"name": "forLoopTest",
					"outputs": [
						{
							"internalType": "uint256",
							"name": "",
							"type": "uint256"
						}
					],
					"stateMutability": "pure",
					"type": "function"
				},
				{
					"inputs": [
						{
							"internalType": "uint256",
							"name": "_number",
							"type": "uint256"
						}
					],
					"name": "ifElseTest",
					"outputs": [
						{
							"internalType": "bool",
							"name": "",
							"type": "bool"
						}
					],
					"stateMutability": "pure",
					"type": "function"
				},
				{
					"inputs": [
						{
							"internalType": "uint256",
							"name": "x",
							"type": "uint256"
						},
						{
							"internalType": "uint256",
							"name": "y",
							"type": "uint256"
						}
					],
					"name": "ternaryTest",
					"outputs": [
						{
							"internalType": "uint256",
							"name": "",
							"type": "uint256"
						}
					],
					"stateMutability": "pure",
					"type": "function"
				},
				{
					"inputs": [],
					"name": "whileTest",
					"outputs": [
						{
							"internalType": "uint256",
							"name": "",
							"type": "uint256"
						}
					],
					"stateMutability": "pure",
					"type": "function"
				}
			],
			"devdoc": {
				"kind": "dev",
				"methods": {},
				"version": 1
			},
			"evm": {
				"assembly": "    /* \"tests/10\\xe6\\x8e\\xa7\\xe5\\x88\\xb6\\xe6\\xb5\\x81.sol\":74:1008  contract Control {... */\n  mstore(0x40, 0x80)\n  callvalue\n  dup1\n  iszero\n  tag_1\n  jumpi\n  0x00\n  dup1\n  revert\ntag_1:\n  pop\n  dataSize(sub_0)\n  dup1\n  dataOffset(sub_0)\n  0x00\n  codecopy\n  0x00\n  return\nstop\n\nsub_0: assembly {\n        /* \"tests/10\\xe6\\x8e\\xa7\\xe5\\x88\\xb6\\xe6\\xb5\\x81.sol\":74:1008  contract Control {... */\n      mstore(0x40, 0x80)\n      callvalue\n      dup1\n      iszero\n      tag_1\n      jumpi\n      0x00\n      dup1\n      revert\n    tag_1:\n      pop\n      jumpi(tag_2, lt(calldatasize, 0x04))\n      shr(0xe0, calldataload(0x00))\n      dup1\n      0x28766320\n      eq\n      tag_3\n      jumpi\n      dup1\n      0x2bbacaaa\n      eq\n      tag_4\n      jumpi\n      dup1\n      0x5d14639d\n      eq\n      tag_5\n      jumpi\n      dup1\n      0x7141fb00\n      eq\n      tag_6\n      jumpi\n      dup1\n      0xb0cfa9fc\n      eq\n      tag_7\n      jumpi\n    tag_2:\n      0x00\n      dup1\n      revert\n        /* \"tests/10\\xe6\\x8e\\xa7\\xe5\\x88\\xb6\\xe6\\xb5\\x81.sol\":856:1005  function ternaryTest(uint256 x, uint256 y) public pure returns(uint256){... */\n    tag_3:\n      tag_8\n      0x04\n      dup1\n      calldatasize\n      sub\n      dup2\n      add\n      swap1\n      tag_9\n      swap2\n      swap1\n      tag_10\n      jump\t// in\n    tag_9:\n      tag_11\n      jump\t// in\n    tag_8:\n      mload(0x40)\n      tag_12\n      swap2\n      swap1\n      tag_13\n      jump\t// in\n    tag_12:\n      mload(0x40)\n      dup1\n      swap2\n      sub\n      swap1\n      return\n        /* \"tests/10\\xe6\\x8e\\xa7\\xe5\\x88\\xb6\\xe6\\xb5\\x81.sol\":615:791  function doWhileTest() public pure returns(uint256){... */\n    tag_4:\n      tag_14\n      tag_15\n      jump\t// in\n    tag_14:\n      mload(0x40)\n      tag_16\n      swap2\n      swap1\n      tag_13\n      jump\t// in\n    tag_16:\n      mload(0x40)\n      dup1\n      swap2\n      sub\n      swap1\n      return\n        /* \"tests/10\\xe6\\x8e\\xa7\\xe5\\x88\\xb6\\xe6\\xb5\\x81.sol\":436:607  function whileTest() public pure returns(uint256){... */\n    tag_5:\n      tag_17\n      tag_18\n      jump\t// in\n    tag_17:\n      mload(0x40)\n      tag_19\n      swap2\n      swap1\n      tag_13\n      jump\t// in\n    tag_19:\n      mload(0x40)\n      dup1\n      swap2\n      sub\n      swap1\n      return\n        /* \"tests/10\\xe6\\x8e\\xa7\\xe5\\x88\\xb6\\xe6\\xb5\\x81.sol\":104:263  function ifElseTest(uint256 _number) public pure returns(bool){... */\n    tag_6:\n      tag_20\n      0x04\n      dup1\n      calldatasize\n      sub\n      dup2\n      add\n      swap1\n      tag_21\n      swap2\n      swap1\n      tag_22\n      jump\t// in\n    tag_21:\n      tag_23\n      jump\t// in\n    tag_20:\n      mload(0x40)\n      tag_24\n      swap2\n      swap1\n      tag_25\n      jump\t// in\n    tag_24:\n      mload(0x40)\n      dup1\n      swap2\n      sub\n      swap1\n      return\n        /* \"tests/10\\xe6\\x8e\\xa7\\xe5\\x88\\xb6\\xe6\\xb5\\x81.sol\":271:428  function forLoopTest() public pure returns(uint256){... */\n    tag_7:\n      tag_26\n      tag_27\n      jump\t// in\n    tag_26:\n      mload(0x40)\n      tag_28\n      swap2\n      swap1\n      tag_13\n      jump\t// in\n    tag_28:\n      mload(0x40)\n      dup1\n      swap2\n      sub\n      swap1\n      return\n        /* \"tests/10\\xe6\\x8e\\xa7\\xe5\\x88\\xb6\\xe6\\xb5\\x81.sol\":856:1005  function ternaryTest(uint256 x, uint256 y) public pure returns(uint256){... */\n    tag_11:\n        /* \"tests/10\\xe6\\x8e\\xa7\\xe5\\x88\\xb6\\xe6\\xb5\\x81.sol\":919:926  uint256 */\n      0x00\n        /* \"tests/10\\xe6\\x8e\\xa7\\xe5\\x88\\xb6\\xe6\\xb5\\x81.sol\":988:989  y */\n      dup2\n        /* \"tests/10\\xe6\\x8e\\xa7\\xe5\\x88\\xb6\\xe6\\xb5\\x81.sol\":983:984  x */\n      dup4\n        /* \"tests/10\\xe6\\x8e\\xa7\\xe5\\x88\\xb6\\xe6\\xb5\\x81.sol\":983:989  x >= y */\n      lt\n      iszero\n        /* \"tests/10\\xe6\\x8e\\xa7\\xe5\\x88\\xb6\\xe6\\xb5\\x81.sol\":983:996  x >= y ? x: y */\n      tag_30\n      jumpi\n        /* \"tests/10\\xe6\\x8e\\xa7\\xe5\\x88\\xb6\\xe6\\xb5\\x81.sol\":995:996  y */\n      dup2\n        /* \"tests/10\\xe6\\x8e\\xa7\\xe5\\x88\\xb6\\xe6\\xb5\\x81.sol\":983:996  x >= y ? x: y */\n      jump(tag_31)\n    tag_30:\n        /* \"tests/10\\xe6\\x8e\\xa7\\xe5\\x88\\xb6\\xe6\\xb5\\x81.sol\":992:993  x */\n      dup3\n        /* \"tests/10\\xe6\\x8e\\xa7\\xe5\\x88\\xb6\\xe6\\xb5\\x81.sol\":983:996  x >= y ? x: y */\n    tag_31:\n        /* \"tests/10\\xe6\\x8e\\xa7\\xe5\\x88\\xb6\\xe6\\xb5\\x81.sol\":976:996  return x >= y ? x: y */\n      swap1\n      pop\n        /* \"tests/10\\xe6\\x8e\\xa7\\xe5\\x88\\xb6\\xe6\\xb5\\x81.sol\":856:1005  function ternaryTest(uint256 x, uint256 y) public pure returns(uint256){... */\n      swap3\n      swap2\n      pop\n      pop\n      jump\t// out\n        /* \"tests/10\\xe6\\x8e\\xa7\\xe5\\x88\\xb6\\xe6\\xb5\\x81.sol\":615:791  function doWhileTest() public pure returns(uint256){... */\n    tag_15:\n        /* \"tests/10\\xe6\\x8e\\xa7\\xe5\\x88\\xb6\\xe6\\xb5\\x81.sol\":658:665  uint256 */\n      0x00\n        /* \"tests/10\\xe6\\x8e\\xa7\\xe5\\x88\\xb6\\xe6\\xb5\\x81.sol\":673:681  uint sum */\n      dup1\n        /* \"tests/10\\xe6\\x8e\\xa7\\xe5\\x88\\xb6\\xe6\\xb5\\x81.sol\":684:685  0 */\n      0x00\n        /* \"tests/10\\xe6\\x8e\\xa7\\xe5\\x88\\xb6\\xe6\\xb5\\x81.sol\":673:685  uint sum = 0 */\n      swap1\n      pop\n        /* \"tests/10\\xe6\\x8e\\xa7\\xe5\\x88\\xb6\\xe6\\xb5\\x81.sol\":692:698  uint i */\n      0x00\n        /* \"tests/10\\xe6\\x8e\\xa7\\xe5\\x88\\xb6\\xe6\\xb5\\x81.sol\":709:766  do{... */\n    tag_33:\n        /* \"tests/10\\xe6\\x8e\\xa7\\xe5\\x88\\xb6\\xe6\\xb5\\x81.sol\":729:730  i */\n      dup1\n        /* \"tests/10\\xe6\\x8e\\xa7\\xe5\\x88\\xb6\\xe6\\xb5\\x81.sol\":722:730  sum += i */\n      dup3\n      tag_36\n      swap2\n      swap1\n      tag_37\n      jump\t// in\n    tag_36:\n      swap2\n      pop\n        /* \"tests/10\\xe6\\x8e\\xa7\\xe5\\x88\\xb6\\xe6\\xb5\\x81.sol\":741:744  i++ */\n      dup1\n      dup1\n      tag_38\n      swap1\n      tag_39\n      jump\t// in\n    tag_38:\n      swap2\n      pop\n      pop\n        /* \"tests/10\\xe6\\x8e\\xa7\\xe5\\x88\\xb6\\xe6\\xb5\\x81.sol\":762:764  10 */\n      0x0a\n        /* \"tests/10\\xe6\\x8e\\xa7\\xe5\\x88\\xb6\\xe6\\xb5\\x81.sol\":758:759  i */\n      dup2\n        /* \"tests/10\\xe6\\x8e\\xa7\\xe5\\x88\\xb6\\xe6\\xb5\\x81.sol\":758:764  i < 10 */\n      lt\n        /* \"tests/10\\xe6\\x8e\\xa7\\xe5\\x88\\xb6\\xe6\\xb5\\x81.sol\":709:766  do{... */\n      tag_33\n      jumpi\n        /* \"tests/10\\xe6\\x8e\\xa7\\xe5\\x88\\xb6\\xe6\\xb5\\x81.sol\":779:782  sum */\n      dup2\n        /* \"tests/10\\xe6\\x8e\\xa7\\xe5\\x88\\xb6\\xe6\\xb5\\x81.sol\":772:783  return(sum) */\n      swap3\n      pop\n      pop\n      pop\n        /* \"tests/10\\xe6\\x8e\\xa7\\xe5\\x88\\xb6\\xe6\\xb5\\x81.sol\":615:791  function doWhileTest() public pure returns(uint256){... */\n      swap1\n      jump\t// out\n        /* \"tests/10\\xe6\\x8e\\xa7\\xe5\\x88\\xb6\\xe6\\xb5\\x81.sol\":436:607  function whileTest() public pure returns(uint256){... */\n    tag_18:\n        /* \"tests/10\\xe6\\x8e\\xa7\\xe5\\x88\\xb6\\xe6\\xb5\\x81.sol\":477:484  uint256 */\n      0x00\n        /* \"tests/10\\xe6\\x8e\\xa7\\xe5\\x88\\xb6\\xe6\\xb5\\x81.sol\":492:500  uint sum */\n      dup1\n        /* \"tests/10\\xe6\\x8e\\xa7\\xe5\\x88\\xb6\\xe6\\xb5\\x81.sol\":503:504  0 */\n      0x00\n        /* \"tests/10\\xe6\\x8e\\xa7\\xe5\\x88\\xb6\\xe6\\xb5\\x81.sol\":492:504  uint sum = 0 */\n      swap1\n      pop\n        /* \"tests/10\\xe6\\x8e\\xa7\\xe5\\x88\\xb6\\xe6\\xb5\\x81.sol\":511:517  uint i */\n      0x00\n        /* \"tests/10\\xe6\\x8e\\xa7\\xe5\\x88\\xb6\\xe6\\xb5\\x81.sol\":528:582  while(i < 10){... */\n    tag_41:\n        /* \"tests/10\\xe6\\x8e\\xa7\\xe5\\x88\\xb6\\xe6\\xb5\\x81.sol\":538:540  10 */\n      0x0a\n        /* \"tests/10\\xe6\\x8e\\xa7\\xe5\\x88\\xb6\\xe6\\xb5\\x81.sol\":534:535  i */\n      dup2\n        /* \"tests/10\\xe6\\x8e\\xa7\\xe5\\x88\\xb6\\xe6\\xb5\\x81.sol\":534:540  i < 10 */\n      lt\n        /* \"tests/10\\xe6\\x8e\\xa7\\xe5\\x88\\xb6\\xe6\\xb5\\x81.sol\":528:582  while(i < 10){... */\n      iszero\n      tag_42\n      jumpi\n        /* \"tests/10\\xe6\\x8e\\xa7\\xe5\\x88\\xb6\\xe6\\xb5\\x81.sol\":559:560  i */\n      dup1\n        /* \"tests/10\\xe6\\x8e\\xa7\\xe5\\x88\\xb6\\xe6\\xb5\\x81.sol\":552:560  sum += i */\n      dup3\n      tag_43\n      swap2\n      swap1\n      tag_37\n      jump\t// in\n    tag_43:\n      swap2\n      pop\n        /* \"tests/10\\xe6\\x8e\\xa7\\xe5\\x88\\xb6\\xe6\\xb5\\x81.sol\":571:574  i++ */\n      dup1\n      dup1\n      tag_44\n      swap1\n      tag_39\n      jump\t// in\n    tag_44:\n      swap2\n      pop\n      pop\n        /* \"tests/10\\xe6\\x8e\\xa7\\xe5\\x88\\xb6\\xe6\\xb5\\x81.sol\":528:582  while(i < 10){... */\n      jump(tag_41)\n    tag_42:\n        /* \"tests/10\\xe6\\x8e\\xa7\\xe5\\x88\\xb6\\xe6\\xb5\\x81.sol\":595:598  sum */\n      dup2\n        /* \"tests/10\\xe6\\x8e\\xa7\\xe5\\x88\\xb6\\xe6\\xb5\\x81.sol\":588:599  return(sum) */\n      swap3\n      pop\n      pop\n      pop\n        /* \"tests/10\\xe6\\x8e\\xa7\\xe5\\x88\\xb6\\xe6\\xb5\\x81.sol\":436:607  function whileTest() public pure returns(uint256){... */\n      swap1\n      jump\t// out\n        /* \"tests/10\\xe6\\x8e\\xa7\\xe5\\x88\\xb6\\xe6\\xb5\\x81.sol\":104:263  function ifElseTest(uint256 _number) public pure returns(bool){... */\n    tag_23:\n        /* \"tests/10\\xe6\\x8e\\xa7\\xe5\\x88\\xb6\\xe6\\xb5\\x81.sol\":161:165  bool */\n      0x00\n        /* \"tests/10\\xe6\\x8e\\xa7\\xe5\\x88\\xb6\\xe6\\xb5\\x81.sol\":187:188  0 */\n      dup1\n        /* \"tests/10\\xe6\\x8e\\xa7\\xe5\\x88\\xb6\\xe6\\xb5\\x81.sol\":176:183  _number */\n      dup3\n        /* \"tests/10\\xe6\\x8e\\xa7\\xe5\\x88\\xb6\\xe6\\xb5\\x81.sol\":176:188  _number == 0 */\n      sub\n        /* \"tests/10\\xe6\\x8e\\xa7\\xe5\\x88\\xb6\\xe6\\xb5\\x81.sol\":173:256  if(_number == 0){... */\n      tag_46\n      jumpi\n        /* \"tests/10\\xe6\\x8e\\xa7\\xe5\\x88\\xb6\\xe6\\xb5\\x81.sol\":207:211  true */\n      0x01\n        /* \"tests/10\\xe6\\x8e\\xa7\\xe5\\x88\\xb6\\xe6\\xb5\\x81.sol\":200:212  return(true) */\n      swap1\n      pop\n      jump(tag_45)\n        /* \"tests/10\\xe6\\x8e\\xa7\\xe5\\x88\\xb6\\xe6\\xb5\\x81.sol\":173:256  if(_number == 0){... */\n    tag_46:\n        /* \"tests/10\\xe6\\x8e\\xa7\\xe5\\x88\\xb6\\xe6\\xb5\\x81.sol\":242:247  false */\n      0x00\n        /* \"tests/10\\xe6\\x8e\\xa7\\xe5\\x88\\xb6\\xe6\\xb5\\x81.sol\":235:248  return(false) */\n      swap1\n      pop\n        /* \"tests/10\\xe6\\x8e\\xa7\\xe5\\x88\\xb6\\xe6\\xb5\\x81.sol\":104:263  function ifElseTest(uint256 _number) public pure returns(bool){... */\n    tag_45:\n      swap2\n      swap1\n      pop\n      jump\t// out\n        /* \"tests/10\\xe6\\x8e\\xa7\\xe5\\x88\\xb6\\xe6\\xb5\\x81.sol\":271:428  function forLoopTest() public pure returns(uint256){... */\n    tag_27:\n        /* \"tests/10\\xe6\\x8e\\xa7\\xe5\\x88\\xb6\\xe6\\xb5\\x81.sol\":314:321  uint256 */\n      0x00\n        /* \"tests/10\\xe6\\x8e\\xa7\\xe5\\x88\\xb6\\xe6\\xb5\\x81.sol\":329:337  uint sum */\n      dup1\n        /* \"tests/10\\xe6\\x8e\\xa7\\xe5\\x88\\xb6\\xe6\\xb5\\x81.sol\":340:341  0 */\n      0x00\n        /* \"tests/10\\xe6\\x8e\\xa7\\xe5\\x88\\xb6\\xe6\\xb5\\x81.sol\":329:341  uint sum = 0 */\n      swap1\n      pop\n        /* \"tests/10\\xe6\\x8e\\xa7\\xe5\\x88\\xb6\\xe6\\xb5\\x81.sol\":352:358  uint i */\n      0x00\n        /* \"tests/10\\xe6\\x8e\\xa7\\xe5\\x88\\xb6\\xe6\\xb5\\x81.sol\":348:403  for(uint i = 0; i < 10; i++){... */\n    tag_49:\n        /* \"tests/10\\xe6\\x8e\\xa7\\xe5\\x88\\xb6\\xe6\\xb5\\x81.sol\":368:370  10 */\n      0x0a\n        /* \"tests/10\\xe6\\x8e\\xa7\\xe5\\x88\\xb6\\xe6\\xb5\\x81.sol\":364:365  i */\n      dup2\n        /* \"tests/10\\xe6\\x8e\\xa7\\xe5\\x88\\xb6\\xe6\\xb5\\x81.sol\":364:370  i < 10 */\n      lt\n        /* \"tests/10\\xe6\\x8e\\xa7\\xe5\\x88\\xb6\\xe6\\xb5\\x81.sol\":348:403  for(uint i = 0; i < 10; i++){... */\n      iszero\n      tag_50\n      jumpi\n        /* \"tests/10\\xe6\\x8e\\xa7\\xe5\\x88\\xb6\\xe6\\xb5\\x81.sol\":394:395  i */\n      dup1\n        /* \"tests/10\\xe6\\x8e\\xa7\\xe5\\x88\\xb6\\xe6\\xb5\\x81.sol\":387:395  sum += i */\n      dup3\n      tag_52\n      swap2\n      swap1\n      tag_37\n      jump\t// in\n    tag_52:\n      swap2\n      pop\n        /* \"tests/10\\xe6\\x8e\\xa7\\xe5\\x88\\xb6\\xe6\\xb5\\x81.sol\":372:375  i++ */\n      dup1\n      dup1\n      0x01\n      add\n      swap2\n      pop\n      pop\n        /* \"tests/10\\xe6\\x8e\\xa7\\xe5\\x88\\xb6\\xe6\\xb5\\x81.sol\":348:403  for(uint i = 0; i < 10; i++){... */\n      jump(tag_49)\n    tag_50:\n      pop\n        /* \"tests/10\\xe6\\x8e\\xa7\\xe5\\x88\\xb6\\xe6\\xb5\\x81.sol\":416:419  sum */\n      dup1\n        /* \"tests/10\\xe6\\x8e\\xa7\\xe5\\x88\\xb6\\xe6\\xb5\\x81.sol\":409:420  return(sum) */\n      swap2\n      pop\n      pop\n        /* \"tests/10\\xe6\\x8e\\xa7\\xe5\\x88\\xb6\\xe6\\xb5\\x81.sol\":271:428  function forLoopTest() public pure returns(uint256){... */\n      swap1\n      jump\t// out\n        /* \"#utility.yul\":88:205   */\n    tag_54:\n        /* \"#utility.yul\":197:198   */\n      0x00\n        /* \"#utility.yul\":194:195   */\n      dup1\n        /* \"#utility.yul\":187:199   */\n      revert\n        /* \"#utility.yul\":334:411   */\n    tag_56:\n        /* \"#utility.yul\":371:378   */\n      0x00\n        /* \"#utility.yul\":400:405   */\n      dup2\n        /* \"#utility.yul\":389:405   */\n      swap1\n      pop\n        /* \"#utility.yul\":334:411   */\n      swap2\n      swap1\n      pop\n      jump\t// out\n        /* \"#utility.yul\":417:539   */\n    tag_57:\n        /* \"#utility.yul\":490:514   */\n      tag_69\n        /* \"#utility.yul\":508:513   */\n      dup2\n        /* \"#utility.yul\":490:514   */\n      tag_56\n      jump\t// in\n    tag_69:\n        /* \"#utility.yul\":483:488   */\n      dup2\n        /* \"#utility.yul\":480:515   */\n      eq\n        /* \"#utility.yul\":470:533   */\n      tag_70\n      jumpi\n        /* \"#utility.yul\":529:530   */\n      0x00\n        /* \"#utility.yul\":526:527   */\n      dup1\n        /* \"#utility.yul\":519:531   */\n      revert\n        /* \"#utility.yul\":470:533   */\n    tag_70:\n        /* \"#utility.yul\":417:539   */\n      pop\n      jump\t// out\n        /* \"#utility.yul\":545:684   */\n    tag_58:\n        /* \"#utility.yul\":591:596   */\n      0x00\n        /* \"#utility.yul\":629:635   */\n      dup2\n        /* \"#utility.yul\":616:636   */\n      calldataload\n        /* \"#utility.yul\":607:636   */\n      swap1\n      pop\n        /* \"#utility.yul\":645:678   */\n      tag_72\n        /* \"#utility.yul\":672:677   */\n      dup2\n        /* \"#utility.yul\":645:678   */\n      tag_57\n      jump\t// in\n    tag_72:\n        /* \"#utility.yul\":545:684   */\n      swap3\n      swap2\n      pop\n      pop\n      jump\t// out\n        /* \"#utility.yul\":690:1164   */\n    tag_10:\n        /* \"#utility.yul\":758:764   */\n      0x00\n        /* \"#utility.yul\":766:772   */\n      dup1\n        /* \"#utility.yul\":815:817   */\n      0x40\n        /* \"#utility.yul\":803:812   */\n      dup4\n        /* \"#utility.yul\":794:801   */\n      dup6\n        /* \"#utility.yul\":790:813   */\n      sub\n        /* \"#utility.yul\":786:818   */\n      slt\n        /* \"#utility.yul\":783:902   */\n      iszero\n      tag_74\n      jumpi\n        /* \"#utility.yul\":821:900   */\n      tag_75\n      tag_54\n      jump\t// in\n    tag_75:\n        /* \"#utility.yul\":783:902   */\n    tag_74:\n        /* \"#utility.yul\":941:942   */\n      0x00\n        /* \"#utility.yul\":966:1019   */\n      tag_76\n        /* \"#utility.yul\":1011:1018   */\n      dup6\n        /* \"#utility.yul\":1002:1008   */\n      dup3\n        /* \"#utility.yul\":991:1000   */\n      dup7\n        /* \"#utility.yul\":987:1009   */\n      add\n        /* \"#utility.yul\":966:1019   */\n      tag_58\n      jump\t// in\n    tag_76:\n        /* \"#utility.yul\":956:1019   */\n      swap3\n      pop\n        /* \"#utility.yul\":912:1029   */\n      pop\n        /* \"#utility.yul\":1068:1070   */\n      0x20\n        /* \"#utility.yul\":1094:1147   */\n      tag_77\n        /* \"#utility.yul\":1139:1146   */\n      dup6\n        /* \"#utility.yul\":1130:1136   */\n      dup3\n        /* \"#utility.yul\":1119:1128   */\n      dup7\n        /* \"#utility.yul\":1115:1137   */\n      add\n        /* \"#utility.yul\":1094:1147   */\n      tag_58\n      jump\t// in\n    tag_77:\n        /* \"#utility.yul\":1084:1147   */\n      swap2\n      pop\n        /* \"#utility.yul\":1039:1157   */\n      pop\n        /* \"#utility.yul\":690:1164   */\n      swap3\n      pop\n      swap3\n      swap1\n      pop\n      jump\t// out\n        /* \"#utility.yul\":1170:1288   */\n    tag_59:\n        /* \"#utility.yul\":1257:1281   */\n      tag_79\n        /* \"#utility.yul\":1275:1280   */\n      dup2\n        /* \"#utility.yul\":1257:1281   */\n      tag_56\n      jump\t// in\n    tag_79:\n        /* \"#utility.yul\":1252:1255   */\n      dup3\n        /* \"#utility.yul\":1245:1282   */\n      mstore\n        /* \"#utility.yul\":1170:1288   */\n      pop\n      pop\n      jump\t// out\n        /* \"#utility.yul\":1294:1516   */\n    tag_13:\n        /* \"#utility.yul\":1387:1391   */\n      0x00\n        /* \"#utility.yul\":1425:1427   */\n      0x20\n        /* \"#utility.yul\":1414:1423   */\n      dup3\n        /* \"#utility.yul\":1410:1428   */\n      add\n        /* \"#utility.yul\":1402:1428   */\n      swap1\n      pop\n        /* \"#utility.yul\":1438:1509   */\n      tag_81\n        /* \"#utility.yul\":1506:1507   */\n      0x00\n        /* \"#utility.yul\":1495:1504   */\n      dup4\n        /* \"#utility.yul\":1491:1508   */\n      add\n        /* \"#utility.yul\":1482:1488   */\n      dup5\n        /* \"#utility.yul\":1438:1509   */\n      tag_59\n      jump\t// in\n    tag_81:\n        /* \"#utility.yul\":1294:1516   */\n      swap3\n      swap2\n      pop\n      pop\n      jump\t// out\n        /* \"#utility.yul\":1522:1851   */\n    tag_22:\n        /* \"#utility.yul\":1581:1587   */\n      0x00\n        /* \"#utility.yul\":1630:1632   */\n      0x20\n        /* \"#utility.yul\":1618:1627   */\n      dup3\n        /* \"#utility.yul\":1609:1616   */\n      dup5\n        /* \"#utility.yul\":1605:1628   */\n      sub\n        /* \"#utility.yul\":1601:1633   */\n      slt\n        /* \"#utility.yul\":1598:1717   */\n      iszero\n      tag_83\n      jumpi\n        /* \"#utility.yul\":1636:1715   */\n      tag_84\n      tag_54\n      jump\t// in\n    tag_84:\n        /* \"#utility.yul\":1598:1717   */\n    tag_83:\n        /* \"#utility.yul\":1756:1757   */\n      0x00\n        /* \"#utility.yul\":1781:1834   */\n      tag_85\n        /* \"#utility.yul\":1826:1833   */\n      dup5\n        /* \"#utility.yul\":1817:1823   */\n      dup3\n        /* \"#utility.yul\":1806:1815   */\n      dup6\n        /* \"#utility.yul\":1802:1824   */\n      add\n        /* \"#utility.yul\":1781:1834   */\n      tag_58\n      jump\t// in\n    tag_85:\n        /* \"#utility.yul\":1771:1834   */\n      swap2\n      pop\n        /* \"#utility.yul\":1727:1844   */\n      pop\n        /* \"#utility.yul\":1522:1851   */\n      swap3\n      swap2\n      pop\n      pop\n      jump\t// out\n        /* \"#utility.yul\":1857:1947   */\n    tag_60:\n        /* \"#utility.yul\":1891:1898   */\n      0x00\n        /* \"#utility.yul\":1934:1939   */\n      dup2\n        /* \"#utility.yul\":1927:1940   */\n      iszero\n        /* \"#utility.yul\":1920:1941   */\n      iszero\n        /* \"#utility.yul\":1909:1941   */\n      swap1\n      pop\n        /* \"#utility.yul\":1857:1947   */\n      swap2\n      swap1\n      pop\n      jump\t// out\n        /* \"#utility.yul\":1953:2062   */\n    tag_61:\n        /* \"#utility.yul\":2034:2055   */\n      tag_88\n        /* \"#utility.yul\":2049:2054   */\n      dup2\n        /* \"#utility.yul\":2034:2055   */\n      tag_60\n      jump\t// in\n    tag_88:\n        /* \"#utility.yul\":2029:2032   */\n      dup3\n        /* \"#utility.yul\":2022:2056   */\n      mstore\n        /* \"#utility.yul\":1953:2062   */\n      pop\n      pop\n      jump\t// out\n        /* \"#utility.yul\":2068:2278   */\n    tag_25:\n        /* \"#utility.yul\":2155:2159   */\n      0x00\n        /* \"#utility.yul\":2193:2195   */\n      0x20\n        /* \"#utility.yul\":2182:2191   */\n      dup3\n        /* \"#utility.yul\":2178:2196   */\n      add\n        /* \"#utility.yul\":2170:2196   */\n      swap1\n      pop\n        /* \"#utility.yul\":2206:2271   */\n      tag_90\n        /* \"#utility.yul\":2268:2269   */\n      0x00\n        /* \"#utility.yul\":2257:2266   */\n      dup4\n        /* \"#utility.yul\":2253:2270   */\n      add\n        /* \"#utility.yul\":2244:2250   */\n      dup5\n        /* \"#utility.yul\":2206:2271   */\n      tag_61\n      jump\t// in\n    tag_90:\n        /* \"#utility.yul\":2068:2278   */\n      swap3\n      swap2\n      pop\n      pop\n      jump\t// out\n        /* \"#utility.yul\":2284:2464   */\n    tag_62:\n        /* \"#utility.yul\":2332:2409   */\n      0x4e487b7100000000000000000000000000000000000000000000000000000000\n        /* \"#utility.yul\":2329:2330   */\n      0x00\n        /* \"#utility.yul\":2322:2410   */\n      mstore\n        /* \"#utility.yul\":2429:2433   */\n      0x11\n        /* \"#utility.yul\":2426:2427   */\n      0x04\n        /* \"#utility.yul\":2419:2434   */\n      mstore\n        /* \"#utility.yul\":2453:2457   */\n      0x24\n        /* \"#utility.yul\":2450:2451   */\n      0x00\n        /* \"#utility.yul\":2443:2458   */\n      revert\n        /* \"#utility.yul\":2470:2661   */\n    tag_37:\n        /* \"#utility.yul\":2510:2513   */\n      0x00\n        /* \"#utility.yul\":2529:2549   */\n      tag_93\n        /* \"#utility.yul\":2547:2548   */\n      dup3\n        /* \"#utility.yul\":2529:2549   */\n      tag_56\n      jump\t// in\n    tag_93:\n        /* \"#utility.yul\":2524:2549   */\n      swap2\n      pop\n        /* \"#utility.yul\":2563:2583   */\n      tag_94\n        /* \"#utility.yul\":2581:2582   */\n      dup4\n        /* \"#utility.yul\":2563:2583   */\n      tag_56\n      jump\t// in\n    tag_94:\n        /* \"#utility.yul\":2558:2583   */\n      swap3\n      pop\n        /* \"#utility.yul\":2606:2607   */\n      dup3\n        /* \"#utility.yul\":2603:2604   */\n      dup3\n        /* \"#utility.yul\":2599:2608   */\n      add\n        /* \"#utility.yul\":2592:2608   */\n      swap1\n      pop\n        /* \"#utility.yul\":2627:2630   */\n      dup1\n        /* \"#utility.yul\":2624:2625   */\n      dup3\n        /* \"#utility.yul\":2621:2631   */\n      gt\n        /* \"#utility.yul\":2618:2654   */\n      iszero\n      tag_95\n      jumpi\n        /* \"#utility.yul\":2634:2652   */\n      tag_96\n      tag_62\n      jump\t// in\n    tag_96:\n        /* \"#utility.yul\":2618:2654   */\n    tag_95:\n        /* \"#utility.yul\":2470:2661   */\n      swap3\n      swap2\n      pop\n      pop\n      jump\t// out\n        /* \"#utility.yul\":2667:2900   */\n    tag_39:\n        /* \"#utility.yul\":2706:2709   */\n      0x00\n        /* \"#utility.yul\":2729:2753   */\n      tag_98\n        /* \"#utility.yul\":2747:2752   */\n      dup3\n        /* \"#utility.yul\":2729:2753   */\n      tag_56\n      jump\t// in\n    tag_98:\n        /* \"#utility.yul\":2720:2753   */\n      swap2\n      pop\n        /* \"#utility.yul\":2775:2841   */\n      0xffffffffffffffffffffffffffffffffffffffffffffffffffffffffffffffff\n        /* \"#utility.yul\":2768:2773   */\n      dup3\n        /* \"#utility.yul\":2765:2842   */\n      sub\n        /* \"#utility.yul\":2762:2865   */\n      tag_99\n      jumpi\n        /* \"#utility.yul\":2845:2863   */\n      tag_100\n      tag_62\n      jump\t// in\n    tag_100:\n        /* \"#utility.yul\":2762:2865   */\n    tag_99:\n        /* \"#utility.yul\":2892:2893   */\n      0x01\n        /* \"#utility.yul\":2885:2890   */\n      dup3\n        /* \"#utility.yul\":2881:2894   */\n      add\n        /* \"#utility.yul\":2874:2894   */\n      swap1\n      pop\n        /* \"#utility.yul\":2667:2900   */\n      swap2\n      swap1\n      pop\n      jump\t// out\n\n    auxdata: 0xa264697066735822122066e6c06fb08bb5333069e11bc67e6b2a73c2f738283fbf07c08901aa84962ac864736f6c634300081a0033\n}\n",
				"bytecode": {
					"linkReferences": {},
					"object": "6080604052348015600e575f80fd5b506103bd8061001c5f395ff3fe608060405234801561000f575f80fd5b5060043610610055575f3560e01c806328766320146100595780632bbacaaa146100895780635d14639d146100a75780637141fb00146100c5578063b0cfa9fc146100f5575b5f80fd5b610073600480360381019061006e919061021c565b610113565b6040516100809190610269565b60405180910390f35b61009161012c565b60405161009e9190610269565b60405180910390f35b6100af61015f565b6040516100bc9190610269565b60405180910390f35b6100df60048036038101906100da9190610282565b610198565b6040516100ec91906102c7565b60405180910390f35b6100fd6101b2565b60405161010a9190610269565b60405180910390f35b5f818310156101225781610124565b825b905092915050565b5f805f90505f5b808261013f919061030d565b9150808061014c90610340565b915050600a811061013357819250505090565b5f805f90505f5b600a81101561019057808261017b919061030d565b9150808061018890610340565b915050610166565b819250505090565b5f8082036101a957600190506101ad565b5f90505b919050565b5f805f90505f5b600a8110156101dd5780826101ce919061030d565b915080806001019150506101b9565b508091505090565b5f80fd5b5f819050919050565b6101fb816101e9565b8114610205575f80fd5b50565b5f81359050610216816101f2565b92915050565b5f8060408385031215610232576102316101e5565b5b5f61023f85828601610208565b925050602061025085828601610208565b9150509250929050565b610263816101e9565b82525050565b5f60208201905061027c5f83018461025a565b92915050565b5f60208284031215610297576102966101e5565b5b5f6102a484828501610208565b91505092915050565b5f8115159050919050565b6102c1816102ad565b82525050565b5f6020820190506102da5f8301846102b8565b92915050565b7f4e487b71000000000000000000000000000000000000000000000000000000005f52601160045260245ffd5b5f610317826101e9565b9150610322836101e9565b925082820190508082111561033a576103396102e0565b5b92915050565b5f61034a826101e9565b91507fffffffffffffffffffffffffffffffffffffffffffffffffffffffffffffffff820361037c5761037b6102e0565b5b60018201905091905056fea264697066735822122066e6c06fb08bb5333069e11bc67e6b2a73c2f738283fbf07c08901aa84962ac864736f6c634300081a0033",
					"opcodes": "PUSH1 0x80 PUSH1 0x40 MSTORE CALLVALUE DUP1 ISZERO PUSH1 0xE JUMPI PUSH0 DUP1 REVERT JUMPDEST POP PUSH2 0x3BD DUP1 PUSH2 0x1C PUSH0 CODECOPY PUSH0 RETURN INVALID PUSH1 0x80 PUSH1 0x40 MSTORE CALLVALUE DUP1 ISZERO PUSH2 0xF JUMPI PUSH0 DUP1 REVERT JUMPDEST POP PUSH1 0x4 CALLDATASIZE LT PUSH2 0x55 JUMPI PUSH0 CALLDATALOAD PUSH1 0xE0 SHR DUP1 PUSH4 0x28766320 EQ PUSH2 0x59 JUMPI DUP1 PUSH4 0x2BBACAAA EQ PUSH2 0x89 JUMPI DUP1 PUSH4 0x5D14639D EQ PUSH2 0xA7 JUMPI DUP1 PUSH4 0x7141FB00 EQ PUSH2 0xC5 JUMPI DUP1 PUSH4 0xB0CFA9FC EQ PUSH2 0xF5 JUMPI JUMPDEST PUSH0 DUP1 REVERT JUMPDEST PUSH2 0x73 PUSH1 0x4 DUP1 CALLDATASIZE SUB DUP2 ADD SWAP1 PUSH2 0x6E SWAP2 SWAP1 PUSH2 0x21C JUMP JUMPDEST PUSH2 0x113 JUMP JUMPDEST PUSH1 0x40 MLOAD PUSH2 0x80 SWAP2 SWAP1 PUSH2 0x269 JUMP JUMPDEST PUSH1 0x40 MLOAD DUP1 SWAP2 SUB SWAP1 RETURN JUMPDEST PUSH2 0x91 PUSH2 0x12C JUMP JUMPDEST PUSH1 0x40 MLOAD PUSH2 0x9E SWAP2 SWAP1 PUSH2 0x269 JUMP JUMPDEST PUSH1 0x40 MLOAD DUP1 SWAP2 SUB SWAP1 RETURN JUMPDEST PUSH2 0xAF PUSH2 0x15F JUMP JUMPDEST PUSH1 0x40 MLOAD PUSH2 0xBC SWAP2 SWAP1 PUSH2 0x269 JUMP JUMPDEST PUSH1 0x40 MLOAD DUP1 SWAP2 SUB SWAP1 RETURN JUMPDEST PUSH2 0xDF PUSH1 0x4 DUP1 CALLDATASIZE SUB DUP2 ADD SWAP1 PUSH2 0xDA SWAP2 SWAP1 PUSH2 0x282 JUMP JUMPDEST PUSH2 0x198 JUMP JUMPDEST PUSH1 0x40 MLOAD PUSH2 0xEC SWAP2 SWAP1 PUSH2 0x2C7 JUMP JUMPDEST PUSH1 0x40 MLOAD DUP1 SWAP2 SUB SWAP1 RETURN JUMPDEST PUSH2 0xFD PUSH2 0x1B2 JUMP JUMPDEST PUSH1 0x40 MLOAD PUSH2 0x10A SWAP2 SWAP1 PUSH2 0x269 JUMP JUMPDEST PUSH1 0x40 MLOAD DUP1 SWAP2 SUB SWAP1 RETURN JUMPDEST PUSH0 DUP2 DUP4 LT ISZERO PUSH2 0x122 JUMPI DUP2 PUSH2 0x124 JUMP JUMPDEST DUP3 JUMPDEST SWAP1 POP SWAP3 SWAP2 POP POP JUMP JUMPDEST PUSH0 DUP1 PUSH0 SWAP1 POP PUSH0 JUMPDEST DUP1 DUP3 PUSH2 0x13F SWAP2 SWAP1 PUSH2 0x30D JUMP JUMPDEST SWAP2 POP DUP1 DUP1 PUSH2 0x14C SWAP1 PUSH2 0x340 JUMP JUMPDEST SWAP2 POP POP PUSH1 0xA DUP2 LT PUSH2 0x133 JUMPI DUP2 SWAP3 POP POP POP SWAP1 JUMP JUMPDEST PUSH0 DUP1 PUSH0 SWAP1 POP PUSH0 JUMPDEST PUSH1 0xA DUP2 LT ISZERO PUSH2 0x190 JUMPI DUP1 DUP3 PUSH2 0x17B SWAP2 SWAP1 PUSH2 0x30D JUMP JUMPDEST SWAP2 POP DUP1 DUP1 PUSH2 0x188 SWAP1 PUSH2 0x340 JUMP JUMPDEST SWAP2 POP POP PUSH2 0x166 JUMP JUMPDEST DUP2 SWAP3 POP POP POP SWAP1 JUMP JUMPDEST PUSH0 DUP1 DUP3 SUB PUSH2 0x1A9 JUMPI PUSH1 0x1 SWAP1 POP PUSH2 0x1AD JUMP JUMPDEST PUSH0 SWAP1 POP JUMPDEST SWAP2 SWAP1 POP JUMP JUMPDEST PUSH0 DUP1 PUSH0 SWAP1 POP PUSH0 JUMPDEST PUSH1 0xA DUP2 LT ISZERO PUSH2 0x1DD JUMPI DUP1 DUP3 PUSH2 0x1CE SWAP2 SWAP1 PUSH2 0x30D JUMP JUMPDEST SWAP2 POP DUP1 DUP1 PUSH1 0x1 ADD SWAP2 POP POP PUSH2 0x1B9 JUMP JUMPDEST POP DUP1 SWAP2 POP POP SWAP1 JUMP JUMPDEST PUSH0 DUP1 REVERT JUMPDEST PUSH0 DUP2 SWAP1 POP SWAP2 SWAP1 POP JUMP JUMPDEST PUSH2 0x1FB DUP2 PUSH2 0x1E9 JUMP JUMPDEST DUP2 EQ PUSH2 0x205 JUMPI PUSH0 DUP1 REVERT JUMPDEST POP JUMP JUMPDEST PUSH0 DUP2 CALLDATALOAD SWAP1 POP PUSH2 0x216 DUP2 PUSH2 0x1F2 JUMP JUMPDEST SWAP3 SWAP2 POP POP JUMP JUMPDEST PUSH0 DUP1 PUSH1 0x40 DUP4 DUP6 SUB SLT ISZERO PUSH2 0x232 JUMPI PUSH2 0x231 PUSH2 0x1E5 JUMP JUMPDEST JUMPDEST PUSH0 PUSH2 0x23F DUP6 DUP3 DUP7 ADD PUSH2 0x208 JUMP JUMPDEST SWAP3 POP POP PUSH1 0x20 PUSH2 0x250 DUP6 DUP3 DUP7 ADD PUSH2 0x208 JUMP JUMPDEST SWAP2 POP POP SWAP3 POP SWAP3 SWAP1 POP JUMP JUMPDEST PUSH2 0x263 DUP2 PUSH2 0x1E9 JUMP JUMPDEST DUP3 MSTORE POP POP JUMP JUMPDEST PUSH0 PUSH1 0x20 DUP3 ADD SWAP1 POP PUSH2 0x27C PUSH0 DUP4 ADD DUP5 PUSH2 0x25A JUMP JUMPDEST SWAP3 SWAP2 POP POP JUMP JUMPDEST PUSH0 PUSH1 0x20 DUP3 DUP5 SUB SLT ISZERO PUSH2 0x297 JUMPI PUSH2 0x296 PUSH2 0x1E5 JUMP JUMPDEST JUMPDEST PUSH0 PUSH2 0x2A4 DUP5 DUP3 DUP6 ADD PUSH2 0x208 JUMP JUMPDEST SWAP2 POP POP SWAP3 SWAP2 POP POP JUMP JUMPDEST PUSH0 DUP2 ISZERO ISZERO SWAP1 POP SWAP2 SWAP1 POP JUMP JUMPDEST PUSH2 0x2C1 DUP2 PUSH2 0x2AD JUMP JUMPDEST DUP3 MSTORE POP POP JUMP JUMPDEST PUSH0 PUSH1 0x20 DUP3 ADD SWAP1 POP PUSH2 0x2DA PUSH0 DUP4 ADD DUP5 PUSH2 0x2B8 JUMP JUMPDEST SWAP3 SWAP2 POP POP JUMP JUMPDEST PUSH32 0x4E487B7100000000000000000000000000000000000000000000000000000000 PUSH0 MSTORE PUSH1 0x11 PUSH1 0x4 MSTORE PUSH1 0x24 PUSH0 REVERT JUMPDEST PUSH0 PUSH2 0x317 DUP3 PUSH2 0x1E9 JUMP JUMPDEST SWAP2 POP PUSH2 0x322 DUP4 PUSH2 0x1E9 JUMP JUMPDEST SWAP3 POP DUP3 DUP3 ADD SWAP1 POP DUP1 DUP3 GT ISZERO PUSH2 0x33A JUMPI PUSH2 0x339 PUSH2 0x2E0 JUMP JUMPDEST JUMPDEST SWAP3 SWAP2 POP POP JUMP JUMPDEST PUSH0 PUSH2 0x34A DUP3 PUSH2 0x1E9 JUMP JUMPDEST SWAP2 POP PUSH32 0xFFFFFFFFFFFFFFFFFFFFFFFFFFFFFFFFFFFFFFFFFFFFFFFFFFFFFFFFFFFFFFFF DUP3 SUB PUSH2 0x37C JUMPI PUSH2 0x37B PUSH2 0x2E0 JUMP JUMPDEST JUMPDEST PUSH1 0x1 DUP3 ADD SWAP1 POP SWAP2 SWAP1 POP JUMP INVALID LOG2 PUSH5 0x6970667358 0x22 SLT KECCAK256 PUSH7 0xE6C06FB08BB533 ADDRESS PUSH10 0xE11BC67E6B2A73C2F738 0x28 EXTCODEHASH 0xBF SMOD 0xC0 DUP10 ADD 0xAA DUP5 SWAP7 0x2A 0xC8 PUSH5 0x736F6C6343 STOP ADDMOD BYTE STOP CALLER "
				},
				"gasEstimates": {
					"creation": {
						"codeDepositCost": "191400",
						"executionCost": "230",
						"totalCost": "191630"
					},
					"external": {
						"doWhileTest()": "infinite",
						"forLoopTest()": "infinite",
						"ifElseTest(uint256)": "677",
						"ternaryTest(uint256,uint256)": "infinite",
						"whileTest()": "infinite"
					}
				},
				"methodIdentifiers": {
					"doWhileTest()": "2bbacaaa",
					"forLoopTest()": "b0cfa9fc",
					"ifElseTest(uint256)": "7141fb00",
					"ternaryTest(uint256,uint256)": "28766320",
					"whileTest()": "5d14639d"
				}
			},
			"storageLayout": {
				"storage": [],
				"types": null
			},
			"userdoc": {
				"kind": "user",
				"methods": {},
				"version": 1
			}
		}
	}
}