{
	"tests/变量数据存储和作用域1.sol": {
		"VariableData": {
			"abi": [
				{
					"inputs": [],
					"name": "daysUnit",
					"outputs": [
						{
							"internalType": "uint256",
							"name": "",
							"type": "uint256"
						}
					],
					"stateMutability": "pure",
					"type": "function"
				},
				{
					"inputs": [],
					"name": "etherUnit",
					"outputs": [
						{
							"internalType": "uint256",
							"name": "",
							"type": "uint256"
						}
					],
					"stateMutability": "pure",
					"type": "function"
				},
				{
					"inputs": [],
					"name": "fStorage",
					"outputs": [],
					"stateMutability": "nonpayable",
					"type": "function"
				},
				{
					"inputs": [
						{
							"internalType": "uint256[]",
							"name": "_x",
							"type": "uint256[]"
						}
					],
					"name": "fcalldata",
					"outputs": [
						{
							"internalType": "uint256[]",
							"name": "",
							"type": "uint256[]"
						}
					],
					"stateMutability": "pure",
					"type": "function"
				},
				{
					"inputs": [],
					"name": "global",
					"outputs": [
						{
							"internalType": "address",
							"name": "",
							"type": "address"
						},
						{
							"internalType": "uint256",
							"name": "",
							"type": "uint256"
						},
						{
							"internalType": "bytes",
							"name": "",
							"type": "bytes"
						}
					],
					"stateMutability": "view",
					"type": "function"
				},
				{
					"inputs": [],
					"name": "gweiUnit",
					"outputs": [
						{
							"internalType": "uint256",
							"name": "",
							"type": "uint256"
						}
					],
					"stateMutability": "pure",
					"type": "function"
				},
				{
					"inputs": [],
					"name": "hoursUnit",
					"outputs": [
						{
							"internalType": "uint256",
							"name": "",
							"type": "uint256"
						}
					],
					"stateMutability": "pure",
					"type": "function"
				},
				{
					"inputs": [],
					"name": "minutesUnit",
					"outputs": [
						{
							"internalType": "uint256",
							"name": "",
							"type": "uint256"
						}
					],
					"stateMutability": "pure",
					"type": "function"
				},
				{
					"inputs": [],
					"name": "secondsUnit",
					"outputs": [
						{
							"internalType": "uint256",
							"name": "",
							"type": "uint256"
						}
					],
					"stateMutability": "pure",
					"type": "function"
				},
				{
					"inputs": [],
					"name": "weeksUnit",
					"outputs": [
						{
							"internalType": "uint256",
							"name": "",
							"type": "uint256"
						}
					],
					"stateMutability": "pure",
					"type": "function"
				},
				{
					"inputs": [],
					"name": "weiUnit",
					"outputs": [
						{
							"internalType": "uint256",
							"name": "",
							"type": "uint256"
						}
					],
					"stateMutability": "pure",
					"type": "function"
				}
			],
			"devdoc": {
				"kind": "dev",
				"methods": {},
				"version": 1
			},
			"evm": {
				"assembly": "    /* \"tests/\\xe5\\x8f\\x98\\xe9\\x87\\x8f\\xe6\\x95\\xb0\\xe6\\x8d\\xae\\xe5\\xad\\x98\\xe5\\x82\\xa8\\xe5\\x92\\x8c\\xe4\\xbd\\x9c\\xe7\\x94\\xa8\\xe5\\x9f\\x9f1.sol\":59:1750  contract VariableData{ ... */\n  mstore(0x40, 0x80)\n    /* \"tests/\\xe5\\x8f\\x98\\xe9\\x87\\x8f\\xe6\\x95\\xb0\\xe6\\x8d\\xae\\xe5\\xad\\x98\\xe5\\x82\\xa8\\xe5\\x92\\x8c\\xe4\\xbd\\x9c\\xe7\\x94\\xa8\\xe5\\x9f\\x9f1.sol\":201:219  uint[] x = [1,2,3] */\n  mload(0x40)\n  dup1\n  0x60\n  add\n  0x40\n  mstore\n  dup1\n    /* \"tests/\\xe5\\x8f\\x98\\xe9\\x87\\x8f\\xe6\\x95\\xb0\\xe6\\x8d\\xae\\xe5\\xad\\x98\\xe5\\x82\\xa8\\xe5\\x92\\x8c\\xe4\\xbd\\x9c\\xe7\\x94\\xa8\\xe5\\x9f\\x9f1.sol\":213:214  1 */\n  0x01\n    /* \"tests/\\xe5\\x8f\\x98\\xe9\\x87\\x8f\\xe6\\x95\\xb0\\xe6\\x8d\\xae\\xe5\\xad\\x98\\xe5\\x82\\xa8\\xe5\\x92\\x8c\\xe4\\xbd\\x9c\\xe7\\x94\\xa8\\xe5\\x9f\\x9f1.sol\":201:219  uint[] x = [1,2,3] */\n  0xff\n  and\n  dup2\n  mstore\n  0x20\n  add\n    /* \"tests/\\xe5\\x8f\\x98\\xe9\\x87\\x8f\\xe6\\x95\\xb0\\xe6\\x8d\\xae\\xe5\\xad\\x98\\xe5\\x82\\xa8\\xe5\\x92\\x8c\\xe4\\xbd\\x9c\\xe7\\x94\\xa8\\xe5\\x9f\\x9f1.sol\":215:216  2 */\n  0x02\n    /* \"tests/\\xe5\\x8f\\x98\\xe9\\x87\\x8f\\xe6\\x95\\xb0\\xe6\\x8d\\xae\\xe5\\xad\\x98\\xe5\\x82\\xa8\\xe5\\x92\\x8c\\xe4\\xbd\\x9c\\xe7\\x94\\xa8\\xe5\\x9f\\x9f1.sol\":201:219  uint[] x = [1,2,3] */\n  0xff\n  and\n  dup2\n  mstore\n  0x20\n  add\n    /* \"tests/\\xe5\\x8f\\x98\\xe9\\x87\\x8f\\xe6\\x95\\xb0\\xe6\\x8d\\xae\\xe5\\xad\\x98\\xe5\\x82\\xa8\\xe5\\x92\\x8c\\xe4\\xbd\\x9c\\xe7\\x94\\xa8\\xe5\\x9f\\x9f1.sol\":217:218  3 */\n  0x03\n    /* \"tests/\\xe5\\x8f\\x98\\xe9\\x87\\x8f\\xe6\\x95\\xb0\\xe6\\x8d\\xae\\xe5\\xad\\x98\\xe5\\x82\\xa8\\xe5\\x92\\x8c\\xe4\\xbd\\x9c\\xe7\\x94\\xa8\\xe5\\x9f\\x9f1.sol\":201:219  uint[] x = [1,2,3] */\n  0xff\n  and\n  dup2\n  mstore\n  pop\n  0x00\n  swap1\n  0x03\n  tag_1\n  swap3\n  swap2\n  swap1\n  tag_2\n  jump\t// in\ntag_1:\n  pop\n    /* \"tests/\\xe5\\x8f\\x98\\xe9\\x87\\x8f\\xe6\\x95\\xb0\\xe6\\x8d\\xae\\xe5\\xad\\x98\\xe5\\x82\\xa8\\xe5\\x92\\x8c\\xe4\\xbd\\x9c\\xe7\\x94\\xa8\\xe5\\x9f\\x9f1.sol\":59:1750  contract VariableData{ ... */\n  callvalue\n  dup1\n  iszero\n  tag_3\n  jumpi\n  0x00\n  dup1\n  revert\ntag_3:\n  pop\n  jump(tag_4)\ntag_2:\n  dup3\n  dup1\n  sload\n  dup3\n  dup3\n  sstore\n  swap1\n  0x00\n  mstore\n  keccak256(0x00, 0x20)\n  swap1\n  dup2\n  add\n  swap3\n  dup3\n  iszero\n  tag_5\n  jumpi\n  swap2\n  0x20\n  mul\n  dup3\n  add\ntag_6:\n  dup3\n  dup2\n  gt\n  iszero\n  tag_7\n  jumpi\n  dup3\n  mload\n  dup3\n  swap1\n  0xff\n  and\n  swap1\n  sstore\n  swap2\n  0x20\n  add\n  swap2\n  swap1\n  0x01\n  add\n  swap1\n  jump(tag_6)\ntag_7:\ntag_5:\n  pop\n  swap1\n  pop\n  tag_8\n  swap2\n  swap1\n  tag_9\n  jump\t// in\ntag_8:\n  pop\n  swap1\n  jump\t// out\ntag_9:\ntag_10:\n  dup1\n  dup3\n  gt\n  iszero\n  tag_11\n  jumpi\n  0x00\n  dup2\n  0x00\n  swap1\n  sstore\n  pop\n  0x01\n  add\n  jump(tag_10)\ntag_11:\n  pop\n  swap1\n  jump\t// out\ntag_4:\n  dataSize(sub_0)\n  dup1\n  dataOffset(sub_0)\n  0x00\n  codecopy\n  0x00\n  return\nstop\n\nsub_0: assembly {\n        /* \"tests/\\xe5\\x8f\\x98\\xe9\\x87\\x8f\\xe6\\x95\\xb0\\xe6\\x8d\\xae\\xe5\\xad\\x98\\xe5\\x82\\xa8\\xe5\\x92\\x8c\\xe4\\xbd\\x9c\\xe7\\x94\\xa8\\xe5\\x9f\\x9f1.sol\":59:1750  contract VariableData{ ... */\n      mstore(0x40, 0x80)\n      callvalue\n      dup1\n      iszero\n      tag_1\n      jumpi\n      0x00\n      dup1\n      revert\n    tag_1:\n      pop\n      jumpi(tag_2, lt(calldatasize, 0x04))\n      shr(0xe0, calldataload(0x00))\n      dup1\n      0xa05f9906\n      gt\n      tag_14\n      jumpi\n      dup1\n      0xa05f9906\n      eq\n      tag_8\n      jumpi\n      dup1\n      0xa0d0d59e\n      eq\n      tag_9\n      jumpi\n      dup1\n      0xaec3d640\n      eq\n      tag_10\n      jumpi\n      dup1\n      0xbe44f864\n      eq\n      tag_11\n      jumpi\n      dup1\n      0xcb9f1220\n      eq\n      tag_12\n      jumpi\n      dup1\n      0xf1e6d198\n      eq\n      tag_13\n      jumpi\n      jump(tag_2)\n    tag_14:\n      dup1\n      0x09879682\n      eq\n      tag_3\n      jumpi\n      dup1\n      0x12176349\n      eq\n      tag_4\n      jumpi\n      dup1\n      0x2aca45f1\n      eq\n      tag_5\n      jumpi\n      dup1\n      0x6a8d1e08\n      eq\n      tag_6\n      jumpi\n      dup1\n      0x9a657789\n      eq\n      tag_7\n      jumpi\n    tag_2:\n      0x00\n      dup1\n      revert\n        /* \"tests/\\xe5\\x8f\\x98\\xe9\\x87\\x8f\\xe6\\x95\\xb0\\xe6\\x8d\\xae\\xe5\\xad\\x98\\xe5\\x82\\xa8\\xe5\\x92\\x8c\\xe4\\xbd\\x9c\\xe7\\x94\\xa8\\xe5\\x9f\\x9f1.sol\":1063:1170  function secondsUnit() external pure returns(uint) {... */\n    tag_3:\n      tag_15\n      tag_16\n      jump\t// in\n    tag_15:\n      mload(0x40)\n      tag_17\n      swap2\n      swap1\n      tag_18\n      jump\t// in\n    tag_17:\n      mload(0x40)\n      dup1\n      swap2\n      sub\n      swap1\n      return\n        /* \"tests/\\xe5\\x8f\\x98\\xe9\\x87\\x8f\\xe6\\x95\\xb0\\xe6\\x8d\\xae\\xe5\\xad\\x98\\xe5\\x82\\xa8\\xe5\\x92\\x8c\\xe4\\xbd\\x9c\\xe7\\x94\\xa8\\xe5\\x9f\\x9f1.sol\":645:767  function weiUnit() external pure returns(uint) {... */\n    tag_4:\n      tag_19\n      tag_20\n      jump\t// in\n    tag_19:\n      mload(0x40)\n      tag_21\n      swap2\n      swap1\n      tag_18\n      jump\t// in\n    tag_21:\n      mload(0x40)\n      dup1\n      swap2\n      sub\n      swap1\n      return\n        /* \"tests/\\xe5\\x8f\\x98\\xe9\\x87\\x8f\\xe6\\x95\\xb0\\xe6\\x8d\\xae\\xe5\\xad\\x98\\xe5\\x82\\xa8\\xe5\\x92\\x8c\\xe4\\xbd\\x9c\\xe7\\x94\\xa8\\xe5\\x9f\\x9f1.sol\":1607:1745  function weeksUnit() external pure returns(uint) {... */\n    tag_5:\n      tag_22\n      tag_23\n      jump\t// in\n    tag_22:\n      mload(0x40)\n      tag_24\n      swap2\n      swap1\n      tag_18\n      jump\t// in\n    tag_24:\n      mload(0x40)\n      dup1\n      swap2\n      sub\n      swap1\n      return\n        /* \"tests/\\xe5\\x8f\\x98\\xe9\\x87\\x8f\\xe6\\x95\\xb0\\xe6\\x8d\\xae\\xe5\\xad\\x98\\xe5\\x82\\xa8\\xe5\\x92\\x8c\\xe4\\xbd\\x9c\\xe7\\x94\\xa8\\xe5\\x9f\\x9f1.sol\":251:424  function fStorage() public{... */\n    tag_6:\n      tag_25\n      tag_26\n      jump\t// in\n    tag_25:\n      stop\n        /* \"tests/\\xe5\\x8f\\x98\\xe9\\x87\\x8f\\xe6\\x95\\xb0\\xe6\\x8d\\xae\\xe5\\xad\\x98\\xe5\\x82\\xa8\\xe5\\x92\\x8c\\xe4\\xbd\\x9c\\xe7\\x94\\xa8\\xe5\\x9f\\x9f1.sol\":88:193  function fcalldata(uint[] calldata _x) public pure returns (uint[] calldata){... */\n    tag_7:\n      tag_27\n      0x04\n      dup1\n      calldatasize\n      sub\n      dup2\n      add\n      swap1\n      tag_28\n      swap2\n      swap1\n      tag_29\n      jump\t// in\n    tag_28:\n      tag_30\n      jump\t// in\n    tag_27:\n      mload(0x40)\n      tag_31\n      swap3\n      swap2\n      swap1\n      tag_32\n      jump\t// in\n    tag_31:\n      mload(0x40)\n      dup1\n      swap2\n      sub\n      swap1\n      return\n        /* \"tests/\\xe5\\x8f\\x98\\xe9\\x87\\x8f\\xe6\\x95\\xb0\\xe6\\x8d\\xae\\xe5\\xad\\x98\\xe5\\x82\\xa8\\xe5\\x92\\x8c\\xe4\\xbd\\x9c\\xe7\\x94\\xa8\\xe5\\x9f\\x9f1.sol\":428:641  function global() external view returns(address, uint, bytes memory){... */\n    tag_8:\n      tag_33\n      tag_34\n      jump\t// in\n    tag_33:\n      mload(0x40)\n      tag_35\n      swap4\n      swap3\n      swap2\n      swap1\n      tag_36\n      jump\t// in\n    tag_35:\n      mload(0x40)\n      dup1\n      swap2\n      sub\n      swap1\n      return\n        /* \"tests/\\xe5\\x8f\\x98\\xe9\\x87\\x8f\\xe6\\x95\\xb0\\xe6\\x8d\\xae\\xe5\\xad\\x98\\xe5\\x82\\xa8\\xe5\\x92\\x8c\\xe4\\xbd\\x9c\\xe7\\x94\\xa8\\xe5\\x9f\\x9f1.sol\":1468:1603  function daysUnit() external pure returns(uint) {... */\n    tag_9:\n      tag_37\n      tag_38\n      jump\t// in\n    tag_37:\n      mload(0x40)\n      tag_39\n      swap2\n      swap1\n      tag_18\n      jump\t// in\n    tag_39:\n      mload(0x40)\n      dup1\n      swap2\n      sub\n      swap1\n      return\n        /* \"tests/\\xe5\\x8f\\x98\\xe9\\x87\\x8f\\xe6\\x95\\xb0\\xe6\\x8d\\xae\\xe5\\xad\\x98\\xe5\\x82\\xa8\\xe5\\x92\\x8c\\xe4\\xbd\\x9c\\xe7\\x94\\xa8\\xe5\\x9f\\x9f1.sol\":771:906  function gweiUnit() external pure returns(uint) {... */\n    tag_10:\n      tag_40\n      tag_41\n      jump\t// in\n    tag_40:\n      mload(0x40)\n      tag_42\n      swap2\n      swap1\n      tag_18\n      jump\t// in\n    tag_42:\n      mload(0x40)\n      dup1\n      swap2\n      sub\n      swap1\n      return\n        /* \"tests/\\xe5\\x8f\\x98\\xe9\\x87\\x8f\\xe6\\x95\\xb0\\xe6\\x8d\\xae\\xe5\\xad\\x98\\xe5\\x82\\xa8\\xe5\\x92\\x8c\\xe4\\xbd\\x9c\\xe7\\x94\\xa8\\xe5\\x9f\\x9f1.sol\":1324:1464  function hoursUnit() external pure returns(uint) {... */\n    tag_11:\n      tag_43\n      tag_44\n      jump\t// in\n    tag_43:\n      mload(0x40)\n      tag_45\n      swap2\n      swap1\n      tag_18\n      jump\t// in\n    tag_45:\n      mload(0x40)\n      dup1\n      swap2\n      sub\n      swap1\n      return\n        /* \"tests/\\xe5\\x8f\\x98\\xe9\\x87\\x8f\\xe6\\x95\\xb0\\xe6\\x8d\\xae\\xe5\\xad\\x98\\xe5\\x82\\xa8\\xe5\\x92\\x8c\\xe4\\xbd\\x9c\\xe7\\x94\\xa8\\xe5\\x9f\\x9f1.sol\":910:1059  function etherUnit() external pure returns(uint) {... */\n    tag_12:\n      tag_46\n      tag_47\n      jump\t// in\n    tag_46:\n      mload(0x40)\n      tag_48\n      swap2\n      swap1\n      tag_18\n      jump\t// in\n    tag_48:\n      mload(0x40)\n      dup1\n      swap2\n      sub\n      swap1\n      return\n        /* \"tests/\\xe5\\x8f\\x98\\xe9\\x87\\x8f\\xe6\\x95\\xb0\\xe6\\x8d\\xae\\xe5\\xad\\x98\\xe5\\x82\\xa8\\xe5\\x92\\x8c\\xe4\\xbd\\x9c\\xe7\\x94\\xa8\\xe5\\x9f\\x9f1.sol\":1174:1320  function minutesUnit() external pure returns(uint) {... */\n    tag_13:\n      tag_49\n      tag_50\n      jump\t// in\n    tag_49:\n      mload(0x40)\n      tag_51\n      swap2\n      swap1\n      tag_18\n      jump\t// in\n    tag_51:\n      mload(0x40)\n      dup1\n      swap2\n      sub\n      swap1\n      return\n        /* \"tests/\\xe5\\x8f\\x98\\xe9\\x87\\x8f\\xe6\\x95\\xb0\\xe6\\x8d\\xae\\xe5\\xad\\x98\\xe5\\x82\\xa8\\xe5\\x92\\x8c\\xe4\\xbd\\x9c\\xe7\\x94\\xa8\\xe5\\x9f\\x9f1.sol\":1063:1170  function secondsUnit() external pure returns(uint) {... */\n    tag_16:\n        /* \"tests/\\xe5\\x8f\\x98\\xe9\\x87\\x8f\\xe6\\x95\\xb0\\xe6\\x8d\\xae\\xe5\\xad\\x98\\xe5\\x82\\xa8\\xe5\\x92\\x8c\\xe4\\xbd\\x9c\\xe7\\x94\\xa8\\xe5\\x9f\\x9f1.sol\":1108:1112  uint */\n      0x00\n        /* \"tests/\\xe5\\x8f\\x98\\xe9\\x87\\x8f\\xe6\\x95\\xb0\\xe6\\x8d\\xae\\xe5\\xad\\x98\\xe5\\x82\\xa8\\xe5\\x92\\x8c\\xe4\\xbd\\x9c\\xe7\\x94\\xa8\\xe5\\x9f\\x9f1.sol\":1141:1142  1 */\n      0x01\n        /* \"tests/\\xe5\\x8f\\x98\\xe9\\x87\\x8f\\xe6\\x95\\xb0\\xe6\\x8d\\xae\\xe5\\xad\\x98\\xe5\\x82\\xa8\\xe5\\x92\\x8c\\xe4\\xbd\\x9c\\xe7\\x94\\xa8\\xe5\\x9f\\x9f1.sol\":1128:1137  1 seconds */\n      dup1\n        /* \"tests/\\xe5\\x8f\\x98\\xe9\\x87\\x8f\\xe6\\x95\\xb0\\xe6\\x8d\\xae\\xe5\\xad\\x98\\xe5\\x82\\xa8\\xe5\\x92\\x8c\\xe4\\xbd\\x9c\\xe7\\x94\\xa8\\xe5\\x9f\\x9f1.sol\":1128:1142  1 seconds == 1 */\n      eq\n        /* \"tests/\\xe5\\x8f\\x98\\xe9\\x87\\x8f\\xe6\\x95\\xb0\\xe6\\x8d\\xae\\xe5\\xad\\x98\\xe5\\x82\\xa8\\xe5\\x92\\x8c\\xe4\\xbd\\x9c\\xe7\\x94\\xa8\\xe5\\x9f\\x9f1.sol\":1121:1143  assert(1 seconds == 1) */\n      tag_53\n      jumpi\n      tag_54\n      tag_55\n      jump\t// in\n    tag_54:\n    tag_53:\n        /* \"tests/\\xe5\\x8f\\x98\\xe9\\x87\\x8f\\xe6\\x95\\xb0\\xe6\\x8d\\xae\\xe5\\xad\\x98\\xe5\\x82\\xa8\\xe5\\x92\\x8c\\xe4\\xbd\\x9c\\xe7\\x94\\xa8\\xe5\\x9f\\x9f1.sol\":1157:1166  1 seconds */\n      0x01\n        /* \"tests/\\xe5\\x8f\\x98\\xe9\\x87\\x8f\\xe6\\x95\\xb0\\xe6\\x8d\\xae\\xe5\\xad\\x98\\xe5\\x82\\xa8\\xe5\\x92\\x8c\\xe4\\xbd\\x9c\\xe7\\x94\\xa8\\xe5\\x9f\\x9f1.sol\":1150:1166  return 1 seconds */\n      swap1\n      pop\n        /* \"tests/\\xe5\\x8f\\x98\\xe9\\x87\\x8f\\xe6\\x95\\xb0\\xe6\\x8d\\xae\\xe5\\xad\\x98\\xe5\\x82\\xa8\\xe5\\x92\\x8c\\xe4\\xbd\\x9c\\xe7\\x94\\xa8\\xe5\\x9f\\x9f1.sol\":1063:1170  function secondsUnit() external pure returns(uint) {... */\n      swap1\n      jump\t// out\n        /* \"tests/\\xe5\\x8f\\x98\\xe9\\x87\\x8f\\xe6\\x95\\xb0\\xe6\\x8d\\xae\\xe5\\xad\\x98\\xe5\\x82\\xa8\\xe5\\x92\\x8c\\xe4\\xbd\\x9c\\xe7\\x94\\xa8\\xe5\\x9f\\x9f1.sol\":645:767  function weiUnit() external pure returns(uint) {... */\n    tag_20:\n        /* \"tests/\\xe5\\x8f\\x98\\xe9\\x87\\x8f\\xe6\\x95\\xb0\\xe6\\x8d\\xae\\xe5\\xad\\x98\\xe5\\x82\\xa8\\xe5\\x92\\x8c\\xe4\\xbd\\x9c\\xe7\\x94\\xa8\\xe5\\x9f\\x9f1.sol\":686:690  uint */\n      0x00\n        /* \"tests/\\xe5\\x8f\\x98\\xe9\\x87\\x8f\\xe6\\x95\\xb0\\xe6\\x8d\\xae\\xe5\\xad\\x98\\xe5\\x82\\xa8\\xe5\\x92\\x8c\\xe4\\xbd\\x9c\\xe7\\x94\\xa8\\xe5\\x9f\\x9f1.sol\":715:718  1e0 */\n      0x01\n        /* \"tests/\\xe5\\x8f\\x98\\xe9\\x87\\x8f\\xe6\\x95\\xb0\\xe6\\x8d\\xae\\xe5\\xad\\x98\\xe5\\x82\\xa8\\xe5\\x92\\x8c\\xe4\\xbd\\x9c\\xe7\\x94\\xa8\\xe5\\x9f\\x9f1.sol\":706:711  1 wei */\n      dup1\n        /* \"tests/\\xe5\\x8f\\x98\\xe9\\x87\\x8f\\xe6\\x95\\xb0\\xe6\\x8d\\xae\\xe5\\xad\\x98\\xe5\\x82\\xa8\\xe5\\x92\\x8c\\xe4\\xbd\\x9c\\xe7\\x94\\xa8\\xe5\\x9f\\x9f1.sol\":706:718  1 wei == 1e0 */\n      eq\n        /* \"tests/\\xe5\\x8f\\x98\\xe9\\x87\\x8f\\xe6\\x95\\xb0\\xe6\\x8d\\xae\\xe5\\xad\\x98\\xe5\\x82\\xa8\\xe5\\x92\\x8c\\xe4\\xbd\\x9c\\xe7\\x94\\xa8\\xe5\\x9f\\x9f1.sol\":699:719  assert(1 wei == 1e0) */\n      tag_57\n      jumpi\n      tag_58\n      tag_55\n      jump\t// in\n    tag_58:\n    tag_57:\n        /* \"tests/\\xe5\\x8f\\x98\\xe9\\x87\\x8f\\xe6\\x95\\xb0\\xe6\\x8d\\xae\\xe5\\xad\\x98\\xe5\\x82\\xa8\\xe5\\x92\\x8c\\xe4\\xbd\\x9c\\xe7\\x94\\xa8\\xe5\\x9f\\x9f1.sol\":742:743  1 */\n      0x01\n        /* \"tests/\\xe5\\x8f\\x98\\xe9\\x87\\x8f\\xe6\\x95\\xb0\\xe6\\x8d\\xae\\xe5\\xad\\x98\\xe5\\x82\\xa8\\xe5\\x92\\x8c\\xe4\\xbd\\x9c\\xe7\\x94\\xa8\\xe5\\x9f\\x9f1.sol\":733:738  1 wei */\n      dup1\n        /* \"tests/\\xe5\\x8f\\x98\\xe9\\x87\\x8f\\xe6\\x95\\xb0\\xe6\\x8d\\xae\\xe5\\xad\\x98\\xe5\\x82\\xa8\\xe5\\x92\\x8c\\xe4\\xbd\\x9c\\xe7\\x94\\xa8\\xe5\\x9f\\x9f1.sol\":733:743  1 wei == 1 */\n      eq\n        /* \"tests/\\xe5\\x8f\\x98\\xe9\\x87\\x8f\\xe6\\x95\\xb0\\xe6\\x8d\\xae\\xe5\\xad\\x98\\xe5\\x82\\xa8\\xe5\\x92\\x8c\\xe4\\xbd\\x9c\\xe7\\x94\\xa8\\xe5\\x9f\\x9f1.sol\":726:744  assert(1 wei == 1) */\n      tag_59\n      jumpi\n      tag_60\n      tag_55\n      jump\t// in\n    tag_60:\n    tag_59:\n        /* \"tests/\\xe5\\x8f\\x98\\xe9\\x87\\x8f\\xe6\\x95\\xb0\\xe6\\x8d\\xae\\xe5\\xad\\x98\\xe5\\x82\\xa8\\xe5\\x92\\x8c\\xe4\\xbd\\x9c\\xe7\\x94\\xa8\\xe5\\x9f\\x9f1.sol\":758:763  1 wei */\n      0x01\n        /* \"tests/\\xe5\\x8f\\x98\\xe9\\x87\\x8f\\xe6\\x95\\xb0\\xe6\\x8d\\xae\\xe5\\xad\\x98\\xe5\\x82\\xa8\\xe5\\x92\\x8c\\xe4\\xbd\\x9c\\xe7\\x94\\xa8\\xe5\\x9f\\x9f1.sol\":751:763  return 1 wei */\n      swap1\n      pop\n        /* \"tests/\\xe5\\x8f\\x98\\xe9\\x87\\x8f\\xe6\\x95\\xb0\\xe6\\x8d\\xae\\xe5\\xad\\x98\\xe5\\x82\\xa8\\xe5\\x92\\x8c\\xe4\\xbd\\x9c\\xe7\\x94\\xa8\\xe5\\x9f\\x9f1.sol\":645:767  function weiUnit() external pure returns(uint) {... */\n      swap1\n      jump\t// out\n        /* \"tests/\\xe5\\x8f\\x98\\xe9\\x87\\x8f\\xe6\\x95\\xb0\\xe6\\x8d\\xae\\xe5\\xad\\x98\\xe5\\x82\\xa8\\xe5\\x92\\x8c\\xe4\\xbd\\x9c\\xe7\\x94\\xa8\\xe5\\x9f\\x9f1.sol\":1607:1745  function weeksUnit() external pure returns(uint) {... */\n    tag_23:\n        /* \"tests/\\xe5\\x8f\\x98\\xe9\\x87\\x8f\\xe6\\x95\\xb0\\xe6\\x8d\\xae\\xe5\\xad\\x98\\xe5\\x82\\xa8\\xe5\\x92\\x8c\\xe4\\xbd\\x9c\\xe7\\x94\\xa8\\xe5\\x9f\\x9f1.sol\":1650:1654  uint */\n      0x00\n        /* \"tests/\\xe5\\x8f\\x98\\xe9\\x87\\x8f\\xe6\\x95\\xb0\\xe6\\x8d\\xae\\xe5\\xad\\x98\\xe5\\x82\\xa8\\xe5\\x92\\x8c\\xe4\\xbd\\x9c\\xe7\\x94\\xa8\\xe5\\x9f\\x9f1.sol\":1681:1687  604800 */\n      0x093a80\n        /* \"tests/\\xe5\\x8f\\x98\\xe9\\x87\\x8f\\xe6\\x95\\xb0\\xe6\\x8d\\xae\\xe5\\xad\\x98\\xe5\\x82\\xa8\\xe5\\x92\\x8c\\xe4\\xbd\\x9c\\xe7\\x94\\xa8\\xe5\\x9f\\x9f1.sol\":1670:1677  1 weeks */\n      dup1\n        /* \"tests/\\xe5\\x8f\\x98\\xe9\\x87\\x8f\\xe6\\x95\\xb0\\xe6\\x8d\\xae\\xe5\\xad\\x98\\xe5\\x82\\xa8\\xe5\\x92\\x8c\\xe4\\xbd\\x9c\\xe7\\x94\\xa8\\xe5\\x9f\\x9f1.sol\":1670:1687  1 weeks == 604800 */\n      eq\n        /* \"tests/\\xe5\\x8f\\x98\\xe9\\x87\\x8f\\xe6\\x95\\xb0\\xe6\\x8d\\xae\\xe5\\xad\\x98\\xe5\\x82\\xa8\\xe5\\x92\\x8c\\xe4\\xbd\\x9c\\xe7\\x94\\xa8\\xe5\\x9f\\x9f1.sol\":1663:1688  assert(1 weeks == 604800) */\n      tag_62\n      jumpi\n      tag_63\n      tag_55\n      jump\t// in\n    tag_63:\n    tag_62:\n        /* \"tests/\\xe5\\x8f\\x98\\xe9\\x87\\x8f\\xe6\\x95\\xb0\\xe6\\x8d\\xae\\xe5\\xad\\x98\\xe5\\x82\\xa8\\xe5\\x92\\x8c\\xe4\\xbd\\x9c\\xe7\\x94\\xa8\\xe5\\x9f\\x9f1.sol\":1713:1719  7 days */\n      0x093a80\n        /* \"tests/\\xe5\\x8f\\x98\\xe9\\x87\\x8f\\xe6\\x95\\xb0\\xe6\\x8d\\xae\\xe5\\xad\\x98\\xe5\\x82\\xa8\\xe5\\x92\\x8c\\xe4\\xbd\\x9c\\xe7\\x94\\xa8\\xe5\\x9f\\x9f1.sol\":1702:1709  1 weeks */\n      dup1\n        /* \"tests/\\xe5\\x8f\\x98\\xe9\\x87\\x8f\\xe6\\x95\\xb0\\xe6\\x8d\\xae\\xe5\\xad\\x98\\xe5\\x82\\xa8\\xe5\\x92\\x8c\\xe4\\xbd\\x9c\\xe7\\x94\\xa8\\xe5\\x9f\\x9f1.sol\":1702:1719  1 weeks == 7 days */\n      eq\n        /* \"tests/\\xe5\\x8f\\x98\\xe9\\x87\\x8f\\xe6\\x95\\xb0\\xe6\\x8d\\xae\\xe5\\xad\\x98\\xe5\\x82\\xa8\\xe5\\x92\\x8c\\xe4\\xbd\\x9c\\xe7\\x94\\xa8\\xe5\\x9f\\x9f1.sol\":1695:1720  assert(1 weeks == 7 days) */\n      tag_64\n      jumpi\n      tag_65\n      tag_55\n      jump\t// in\n    tag_65:\n    tag_64:\n        /* \"tests/\\xe5\\x8f\\x98\\xe9\\x87\\x8f\\xe6\\x95\\xb0\\xe6\\x8d\\xae\\xe5\\xad\\x98\\xe5\\x82\\xa8\\xe5\\x92\\x8c\\xe4\\xbd\\x9c\\xe7\\x94\\xa8\\xe5\\x9f\\x9f1.sol\":1734:1741  1 weeks */\n      0x093a80\n        /* \"tests/\\xe5\\x8f\\x98\\xe9\\x87\\x8f\\xe6\\x95\\xb0\\xe6\\x8d\\xae\\xe5\\xad\\x98\\xe5\\x82\\xa8\\xe5\\x92\\x8c\\xe4\\xbd\\x9c\\xe7\\x94\\xa8\\xe5\\x9f\\x9f1.sol\":1727:1741  return 1 weeks */\n      swap1\n      pop\n        /* \"tests/\\xe5\\x8f\\x98\\xe9\\x87\\x8f\\xe6\\x95\\xb0\\xe6\\x8d\\xae\\xe5\\xad\\x98\\xe5\\x82\\xa8\\xe5\\x92\\x8c\\xe4\\xbd\\x9c\\xe7\\x94\\xa8\\xe5\\x9f\\x9f1.sol\":1607:1745  function weeksUnit() external pure returns(uint) {... */\n      swap1\n      jump\t// out\n        /* \"tests/\\xe5\\x8f\\x98\\xe9\\x87\\x8f\\xe6\\x95\\xb0\\xe6\\x8d\\xae\\xe5\\xad\\x98\\xe5\\x82\\xa8\\xe5\\x92\\x8c\\xe4\\xbd\\x9c\\xe7\\x94\\xa8\\xe5\\x9f\\x9f1.sol\":251:424  function fStorage() public{... */\n    tag_26:\n        /* \"tests/\\xe5\\x8f\\x98\\xe9\\x87\\x8f\\xe6\\x95\\xb0\\xe6\\x8d\\xae\\xe5\\xad\\x98\\xe5\\x82\\xa8\\xe5\\x92\\x8c\\xe4\\xbd\\x9c\\xe7\\x94\\xa8\\xe5\\x9f\\x9f1.sol\":369:392  uint[] storage xStorage */\n      0x00\n        /* \"tests/\\xe5\\x8f\\x98\\xe9\\x87\\x8f\\xe6\\x95\\xb0\\xe6\\x8d\\xae\\xe5\\xad\\x98\\xe5\\x82\\xa8\\xe5\\x92\\x8c\\xe4\\xbd\\x9c\\xe7\\x94\\xa8\\xe5\\x9f\\x9f1.sol\":417:420  100 */\n      0x64\n        /* \"tests/\\xe5\\x8f\\x98\\xe9\\x87\\x8f\\xe6\\x95\\xb0\\xe6\\x8d\\xae\\xe5\\xad\\x98\\xe5\\x82\\xa8\\xe5\\x92\\x8c\\xe4\\xbd\\x9c\\xe7\\x94\\xa8\\xe5\\x9f\\x9f1.sol\":403:411  xStorage */\n      dup2\n        /* \"tests/\\xe5\\x8f\\x98\\xe9\\x87\\x8f\\xe6\\x95\\xb0\\xe6\\x8d\\xae\\xe5\\xad\\x98\\xe5\\x82\\xa8\\xe5\\x92\\x8c\\xe4\\xbd\\x9c\\xe7\\x94\\xa8\\xe5\\x9f\\x9f1.sol\":412:413  0 */\n      0x00\n        /* \"tests/\\xe5\\x8f\\x98\\xe9\\x87\\x8f\\xe6\\x95\\xb0\\xe6\\x8d\\xae\\xe5\\xad\\x98\\xe5\\x82\\xa8\\xe5\\x92\\x8c\\xe4\\xbd\\x9c\\xe7\\x94\\xa8\\xe5\\x9f\\x9f1.sol\":403:414  xStorage[0] */\n      dup2\n      sload\n      dup2\n      lt\n      tag_67\n      jumpi\n      tag_68\n      tag_69\n      jump\t// in\n    tag_68:\n    tag_67:\n      swap1\n      0x00\n      mstore\n      keccak256(0x00, 0x20)\n      add\n        /* \"tests/\\xe5\\x8f\\x98\\xe9\\x87\\x8f\\xe6\\x95\\xb0\\xe6\\x8d\\xae\\xe5\\xad\\x98\\xe5\\x82\\xa8\\xe5\\x92\\x8c\\xe4\\xbd\\x9c\\xe7\\x94\\xa8\\xe5\\x9f\\x9f1.sol\":403:420  xStorage[0] = 100 */\n      dup2\n      swap1\n      sstore\n      pop\n        /* \"tests/\\xe5\\x8f\\x98\\xe9\\x87\\x8f\\xe6\\x95\\xb0\\xe6\\x8d\\xae\\xe5\\xad\\x98\\xe5\\x82\\xa8\\xe5\\x92\\x8c\\xe4\\xbd\\x9c\\xe7\\x94\\xa8\\xe5\\x9f\\x9f1.sol\":277:424  {... */\n      pop\n        /* \"tests/\\xe5\\x8f\\x98\\xe9\\x87\\x8f\\xe6\\x95\\xb0\\xe6\\x8d\\xae\\xe5\\xad\\x98\\xe5\\x82\\xa8\\xe5\\x92\\x8c\\xe4\\xbd\\x9c\\xe7\\x94\\xa8\\xe5\\x9f\\x9f1.sol\":251:424  function fStorage() public{... */\n      jump\t// out\n        /* \"tests/\\xe5\\x8f\\x98\\xe9\\x87\\x8f\\xe6\\x95\\xb0\\xe6\\x8d\\xae\\xe5\\xad\\x98\\xe5\\x82\\xa8\\xe5\\x92\\x8c\\xe4\\xbd\\x9c\\xe7\\x94\\xa8\\xe5\\x9f\\x9f1.sol\":88:193  function fcalldata(uint[] calldata _x) public pure returns (uint[] calldata){... */\n    tag_30:\n        /* \"tests/\\xe5\\x8f\\x98\\xe9\\x87\\x8f\\xe6\\x95\\xb0\\xe6\\x8d\\xae\\xe5\\xad\\x98\\xe5\\x82\\xa8\\xe5\\x92\\x8c\\xe4\\xbd\\x9c\\xe7\\x94\\xa8\\xe5\\x9f\\x9f1.sol\":148:163  uint[] calldata */\n      calldatasize\n      0x00\n        /* \"tests/\\xe5\\x8f\\x98\\xe9\\x87\\x8f\\xe6\\x95\\xb0\\xe6\\x8d\\xae\\xe5\\xad\\x98\\xe5\\x82\\xa8\\xe5\\x92\\x8c\\xe4\\xbd\\x9c\\xe7\\x94\\xa8\\xe5\\x9f\\x9f1.sol\":182:184  _x */\n      dup4\n      dup4\n        /* \"tests/\\xe5\\x8f\\x98\\xe9\\x87\\x8f\\xe6\\x95\\xb0\\xe6\\x8d\\xae\\xe5\\xad\\x98\\xe5\\x82\\xa8\\xe5\\x92\\x8c\\xe4\\xbd\\x9c\\xe7\\x94\\xa8\\xe5\\x9f\\x9f1.sol\":175:185  return(_x) */\n      swap2\n      pop\n      swap2\n      pop\n        /* \"tests/\\xe5\\x8f\\x98\\xe9\\x87\\x8f\\xe6\\x95\\xb0\\xe6\\x8d\\xae\\xe5\\xad\\x98\\xe5\\x82\\xa8\\xe5\\x92\\x8c\\xe4\\xbd\\x9c\\xe7\\x94\\xa8\\xe5\\x9f\\x9f1.sol\":88:193  function fcalldata(uint[] calldata _x) public pure returns (uint[] calldata){... */\n      swap3\n      pop\n      swap3\n      swap1\n      pop\n      jump\t// out\n        /* \"tests/\\xe5\\x8f\\x98\\xe9\\x87\\x8f\\xe6\\x95\\xb0\\xe6\\x8d\\xae\\xe5\\xad\\x98\\xe5\\x82\\xa8\\xe5\\x92\\x8c\\xe4\\xbd\\x9c\\xe7\\x94\\xa8\\xe5\\x9f\\x9f1.sol\":428:641  function global() external view returns(address, uint, bytes memory){... */\n    tag_34:\n        /* \"tests/\\xe5\\x8f\\x98\\xe9\\x87\\x8f\\xe6\\x95\\xb0\\xe6\\x8d\\xae\\xe5\\xad\\x98\\xe5\\x82\\xa8\\xe5\\x92\\x8c\\xe4\\xbd\\x9c\\xe7\\x94\\xa8\\xe5\\x9f\\x9f1.sol\":468:475  address */\n      0x00\n        /* \"tests/\\xe5\\x8f\\x98\\xe9\\x87\\x8f\\xe6\\x95\\xb0\\xe6\\x8d\\xae\\xe5\\xad\\x98\\xe5\\x82\\xa8\\xe5\\x92\\x8c\\xe4\\xbd\\x9c\\xe7\\x94\\xa8\\xe5\\x9f\\x9f1.sol\":477:481  uint */\n      dup1\n        /* \"tests/\\xe5\\x8f\\x98\\xe9\\x87\\x8f\\xe6\\x95\\xb0\\xe6\\x8d\\xae\\xe5\\xad\\x98\\xe5\\x82\\xa8\\xe5\\x92\\x8c\\xe4\\xbd\\x9c\\xe7\\x94\\xa8\\xe5\\x9f\\x9f1.sol\":483:495  bytes memory */\n      0x60\n        /* \"tests/\\xe5\\x8f\\x98\\xe9\\x87\\x8f\\xe6\\x95\\xb0\\xe6\\x8d\\xae\\xe5\\xad\\x98\\xe5\\x82\\xa8\\xe5\\x92\\x8c\\xe4\\xbd\\x9c\\xe7\\x94\\xa8\\xe5\\x9f\\x9f1.sol\":503:517  address sender */\n      0x00\n        /* \"tests/\\xe5\\x8f\\x98\\xe9\\x87\\x8f\\xe6\\x95\\xb0\\xe6\\x8d\\xae\\xe5\\xad\\x98\\xe5\\x82\\xa8\\xe5\\x92\\x8c\\xe4\\xbd\\x9c\\xe7\\x94\\xa8\\xe5\\x9f\\x9f1.sol\":520:530  msg.sender */\n      caller\n        /* \"tests/\\xe5\\x8f\\x98\\xe9\\x87\\x8f\\xe6\\x95\\xb0\\xe6\\x8d\\xae\\xe5\\xad\\x98\\xe5\\x82\\xa8\\xe5\\x92\\x8c\\xe4\\xbd\\x9c\\xe7\\x94\\xa8\\xe5\\x9f\\x9f1.sol\":503:530  address sender = msg.sender */\n      swap1\n      pop\n        /* \"tests/\\xe5\\x8f\\x98\\xe9\\x87\\x8f\\xe6\\x95\\xb0\\xe6\\x8d\\xae\\xe5\\xad\\x98\\xe5\\x82\\xa8\\xe5\\x92\\x8c\\xe4\\xbd\\x9c\\xe7\\x94\\xa8\\xe5\\x9f\\x9f1.sol\":537:550  uint blockNum */\n      0x00\n        /* \"tests/\\xe5\\x8f\\x98\\xe9\\x87\\x8f\\xe6\\x95\\xb0\\xe6\\x8d\\xae\\xe5\\xad\\x98\\xe5\\x82\\xa8\\xe5\\x92\\x8c\\xe4\\xbd\\x9c\\xe7\\x94\\xa8\\xe5\\x9f\\x9f1.sol\":553:565  block.number */\n      number\n        /* \"tests/\\xe5\\x8f\\x98\\xe9\\x87\\x8f\\xe6\\x95\\xb0\\xe6\\x8d\\xae\\xe5\\xad\\x98\\xe5\\x82\\xa8\\xe5\\x92\\x8c\\xe4\\xbd\\x9c\\xe7\\x94\\xa8\\xe5\\x9f\\x9f1.sol\":537:565  uint blockNum = block.number */\n      swap1\n      pop\n        /* \"tests/\\xe5\\x8f\\x98\\xe9\\x87\\x8f\\xe6\\x95\\xb0\\xe6\\x8d\\xae\\xe5\\xad\\x98\\xe5\\x82\\xa8\\xe5\\x92\\x8c\\xe4\\xbd\\x9c\\xe7\\x94\\xa8\\xe5\\x9f\\x9f1.sol\":572:589  bytes memory data */\n      0x00\n        /* \"tests/\\xe5\\x8f\\x98\\xe9\\x87\\x8f\\xe6\\x95\\xb0\\xe6\\x8d\\xae\\xe5\\xad\\x98\\xe5\\x82\\xa8\\xe5\\x92\\x8c\\xe4\\xbd\\x9c\\xe7\\x94\\xa8\\xe5\\x9f\\x9f1.sol\":592:600  msg.data */\n      dup1\n      calldatasize\n        /* \"tests/\\xe5\\x8f\\x98\\xe9\\x87\\x8f\\xe6\\x95\\xb0\\xe6\\x8d\\xae\\xe5\\xad\\x98\\xe5\\x82\\xa8\\xe5\\x92\\x8c\\xe4\\xbd\\x9c\\xe7\\x94\\xa8\\xe5\\x9f\\x9f1.sol\":572:600  bytes memory data = msg.data */\n      dup1\n      dup1\n      0x1f\n      add\n      0x20\n      dup1\n      swap2\n      div\n      mul\n      0x20\n      add\n      mload(0x40)\n      swap1\n      dup2\n      add\n      0x40\n      mstore\n      dup1\n      swap4\n      swap3\n      swap2\n      swap1\n      dup2\n      dup2\n      mstore\n      0x20\n      add\n      dup4\n      dup4\n      dup1\n      dup3\n      dup5\n      calldatacopy\n      0x00\n      dup2\n      dup5\n      add\n      mstore\n      not(0x1f)\n      0x1f\n      dup3\n      add\n      and\n      swap1\n      pop\n      dup1\n      dup4\n      add\n      swap3\n      pop\n      pop\n      pop\n      pop\n      pop\n      pop\n      pop\n      swap1\n      pop\n        /* \"tests/\\xe5\\x8f\\x98\\xe9\\x87\\x8f\\xe6\\x95\\xb0\\xe6\\x8d\\xae\\xe5\\xad\\x98\\xe5\\x82\\xa8\\xe5\\x92\\x8c\\xe4\\xbd\\x9c\\xe7\\x94\\xa8\\xe5\\x9f\\x9f1.sol\":614:620  sender */\n      dup3\n        /* \"tests/\\xe5\\x8f\\x98\\xe9\\x87\\x8f\\xe6\\x95\\xb0\\xe6\\x8d\\xae\\xe5\\xad\\x98\\xe5\\x82\\xa8\\xe5\\x92\\x8c\\xe4\\xbd\\x9c\\xe7\\x94\\xa8\\xe5\\x9f\\x9f1.sol\":622:630  blockNum */\n      dup3\n        /* \"tests/\\xe5\\x8f\\x98\\xe9\\x87\\x8f\\xe6\\x95\\xb0\\xe6\\x8d\\xae\\xe5\\xad\\x98\\xe5\\x82\\xa8\\xe5\\x92\\x8c\\xe4\\xbd\\x9c\\xe7\\x94\\xa8\\xe5\\x9f\\x9f1.sol\":632:636  data */\n      dup3\n        /* \"tests/\\xe5\\x8f\\x98\\xe9\\x87\\x8f\\xe6\\x95\\xb0\\xe6\\x8d\\xae\\xe5\\xad\\x98\\xe5\\x82\\xa8\\xe5\\x92\\x8c\\xe4\\xbd\\x9c\\xe7\\x94\\xa8\\xe5\\x9f\\x9f1.sol\":607:637  return(sender, blockNum, data) */\n      swap6\n      pop\n      swap6\n      pop\n      swap6\n      pop\n      pop\n      pop\n      pop\n        /* \"tests/\\xe5\\x8f\\x98\\xe9\\x87\\x8f\\xe6\\x95\\xb0\\xe6\\x8d\\xae\\xe5\\xad\\x98\\xe5\\x82\\xa8\\xe5\\x92\\x8c\\xe4\\xbd\\x9c\\xe7\\x94\\xa8\\xe5\\x9f\\x9f1.sol\":428:641  function global() external view returns(address, uint, bytes memory){... */\n      swap1\n      swap2\n      swap3\n      jump\t// out\n        /* \"tests/\\xe5\\x8f\\x98\\xe9\\x87\\x8f\\xe6\\x95\\xb0\\xe6\\x8d\\xae\\xe5\\xad\\x98\\xe5\\x82\\xa8\\xe5\\x92\\x8c\\xe4\\xbd\\x9c\\xe7\\x94\\xa8\\xe5\\x9f\\x9f1.sol\":1468:1603  function daysUnit() external pure returns(uint) {... */\n    tag_38:\n        /* \"tests/\\xe5\\x8f\\x98\\xe9\\x87\\x8f\\xe6\\x95\\xb0\\xe6\\x8d\\xae\\xe5\\xad\\x98\\xe5\\x82\\xa8\\xe5\\x92\\x8c\\xe4\\xbd\\x9c\\xe7\\x94\\xa8\\xe5\\x9f\\x9f1.sol\":1510:1514  uint */\n      0x00\n        /* \"tests/\\xe5\\x8f\\x98\\xe9\\x87\\x8f\\xe6\\x95\\xb0\\xe6\\x8d\\xae\\xe5\\xad\\x98\\xe5\\x82\\xa8\\xe5\\x92\\x8c\\xe4\\xbd\\x9c\\xe7\\x94\\xa8\\xe5\\x9f\\x9f1.sol\":1540:1545  86400 */\n      0x015180\n        /* \"tests/\\xe5\\x8f\\x98\\xe9\\x87\\x8f\\xe6\\x95\\xb0\\xe6\\x8d\\xae\\xe5\\xad\\x98\\xe5\\x82\\xa8\\xe5\\x92\\x8c\\xe4\\xbd\\x9c\\xe7\\x94\\xa8\\xe5\\x9f\\x9f1.sol\":1530:1536  1 days */\n      dup1\n        /* \"tests/\\xe5\\x8f\\x98\\xe9\\x87\\x8f\\xe6\\x95\\xb0\\xe6\\x8d\\xae\\xe5\\xad\\x98\\xe5\\x82\\xa8\\xe5\\x92\\x8c\\xe4\\xbd\\x9c\\xe7\\x94\\xa8\\xe5\\x9f\\x9f1.sol\":1530:1545  1 days == 86400 */\n      eq\n        /* \"tests/\\xe5\\x8f\\x98\\xe9\\x87\\x8f\\xe6\\x95\\xb0\\xe6\\x8d\\xae\\xe5\\xad\\x98\\xe5\\x82\\xa8\\xe5\\x92\\x8c\\xe4\\xbd\\x9c\\xe7\\x94\\xa8\\xe5\\x9f\\x9f1.sol\":1523:1546  assert(1 days == 86400) */\n      tag_74\n      jumpi\n      tag_75\n      tag_55\n      jump\t// in\n    tag_75:\n    tag_74:\n        /* \"tests/\\xe5\\x8f\\x98\\xe9\\x87\\x8f\\xe6\\x95\\xb0\\xe6\\x8d\\xae\\xe5\\xad\\x98\\xe5\\x82\\xa8\\xe5\\x92\\x8c\\xe4\\xbd\\x9c\\xe7\\x94\\xa8\\xe5\\x9f\\x9f1.sol\":1570:1578  24 hours */\n      0x015180\n        /* \"tests/\\xe5\\x8f\\x98\\xe9\\x87\\x8f\\xe6\\x95\\xb0\\xe6\\x8d\\xae\\xe5\\xad\\x98\\xe5\\x82\\xa8\\xe5\\x92\\x8c\\xe4\\xbd\\x9c\\xe7\\x94\\xa8\\xe5\\x9f\\x9f1.sol\":1560:1566  1 days */\n      dup1\n        /* \"tests/\\xe5\\x8f\\x98\\xe9\\x87\\x8f\\xe6\\x95\\xb0\\xe6\\x8d\\xae\\xe5\\xad\\x98\\xe5\\x82\\xa8\\xe5\\x92\\x8c\\xe4\\xbd\\x9c\\xe7\\x94\\xa8\\xe5\\x9f\\x9f1.sol\":1560:1578  1 days == 24 hours */\n      eq\n        /* \"tests/\\xe5\\x8f\\x98\\xe9\\x87\\x8f\\xe6\\x95\\xb0\\xe6\\x8d\\xae\\xe5\\xad\\x98\\xe5\\x82\\xa8\\xe5\\x92\\x8c\\xe4\\xbd\\x9c\\xe7\\x94\\xa8\\xe5\\x9f\\x9f1.sol\":1553:1579  assert(1 days == 24 hours) */\n      tag_76\n      jumpi\n      tag_77\n      tag_55\n      jump\t// in\n    tag_77:\n    tag_76:\n        /* \"tests/\\xe5\\x8f\\x98\\xe9\\x87\\x8f\\xe6\\x95\\xb0\\xe6\\x8d\\xae\\xe5\\xad\\x98\\xe5\\x82\\xa8\\xe5\\x92\\x8c\\xe4\\xbd\\x9c\\xe7\\x94\\xa8\\xe5\\x9f\\x9f1.sol\":1593:1599  1 days */\n      0x015180\n        /* \"tests/\\xe5\\x8f\\x98\\xe9\\x87\\x8f\\xe6\\x95\\xb0\\xe6\\x8d\\xae\\xe5\\xad\\x98\\xe5\\x82\\xa8\\xe5\\x92\\x8c\\xe4\\xbd\\x9c\\xe7\\x94\\xa8\\xe5\\x9f\\x9f1.sol\":1586:1599  return 1 days */\n      swap1\n      pop\n        /* \"tests/\\xe5\\x8f\\x98\\xe9\\x87\\x8f\\xe6\\x95\\xb0\\xe6\\x8d\\xae\\xe5\\xad\\x98\\xe5\\x82\\xa8\\xe5\\x92\\x8c\\xe4\\xbd\\x9c\\xe7\\x94\\xa8\\xe5\\x9f\\x9f1.sol\":1468:1603  function daysUnit() external pure returns(uint) {... */\n      swap1\n      jump\t// out\n        /* \"tests/\\xe5\\x8f\\x98\\xe9\\x87\\x8f\\xe6\\x95\\xb0\\xe6\\x8d\\xae\\xe5\\xad\\x98\\xe5\\x82\\xa8\\xe5\\x92\\x8c\\xe4\\xbd\\x9c\\xe7\\x94\\xa8\\xe5\\x9f\\x9f1.sol\":771:906  function gweiUnit() external pure returns(uint) {... */\n    tag_41:\n        /* \"tests/\\xe5\\x8f\\x98\\xe9\\x87\\x8f\\xe6\\x95\\xb0\\xe6\\x8d\\xae\\xe5\\xad\\x98\\xe5\\x82\\xa8\\xe5\\x92\\x8c\\xe4\\xbd\\x9c\\xe7\\x94\\xa8\\xe5\\x9f\\x9f1.sol\":813:817  uint */\n      0x00\n        /* \"tests/\\xe5\\x8f\\x98\\xe9\\x87\\x8f\\xe6\\x95\\xb0\\xe6\\x8d\\xae\\xe5\\xad\\x98\\xe5\\x82\\xa8\\xe5\\x92\\x8c\\xe4\\xbd\\x9c\\xe7\\x94\\xa8\\xe5\\x9f\\x9f1.sol\":843:846  1e9 */\n      0x3b9aca00\n        /* \"tests/\\xe5\\x8f\\x98\\xe9\\x87\\x8f\\xe6\\x95\\xb0\\xe6\\x8d\\xae\\xe5\\xad\\x98\\xe5\\x82\\xa8\\xe5\\x92\\x8c\\xe4\\xbd\\x9c\\xe7\\x94\\xa8\\xe5\\x9f\\x9f1.sol\":833:839  1 gwei */\n      dup1\n        /* \"tests/\\xe5\\x8f\\x98\\xe9\\x87\\x8f\\xe6\\x95\\xb0\\xe6\\x8d\\xae\\xe5\\xad\\x98\\xe5\\x82\\xa8\\xe5\\x92\\x8c\\xe4\\xbd\\x9c\\xe7\\x94\\xa8\\xe5\\x9f\\x9f1.sol\":833:846  1 gwei == 1e9 */\n      eq\n        /* \"tests/\\xe5\\x8f\\x98\\xe9\\x87\\x8f\\xe6\\x95\\xb0\\xe6\\x8d\\xae\\xe5\\xad\\x98\\xe5\\x82\\xa8\\xe5\\x92\\x8c\\xe4\\xbd\\x9c\\xe7\\x94\\xa8\\xe5\\x9f\\x9f1.sol\":826:847  assert(1 gwei == 1e9) */\n      tag_79\n      jumpi\n      tag_80\n      tag_55\n      jump\t// in\n    tag_80:\n    tag_79:\n        /* \"tests/\\xe5\\x8f\\x98\\xe9\\x87\\x8f\\xe6\\x95\\xb0\\xe6\\x8d\\xae\\xe5\\xad\\x98\\xe5\\x82\\xa8\\xe5\\x92\\x8c\\xe4\\xbd\\x9c\\xe7\\x94\\xa8\\xe5\\x9f\\x9f1.sol\":871:881  1000000000 */\n      0x3b9aca00\n        /* \"tests/\\xe5\\x8f\\x98\\xe9\\x87\\x8f\\xe6\\x95\\xb0\\xe6\\x8d\\xae\\xe5\\xad\\x98\\xe5\\x82\\xa8\\xe5\\x92\\x8c\\xe4\\xbd\\x9c\\xe7\\x94\\xa8\\xe5\\x9f\\x9f1.sol\":861:867  1 gwei */\n      dup1\n        /* \"tests/\\xe5\\x8f\\x98\\xe9\\x87\\x8f\\xe6\\x95\\xb0\\xe6\\x8d\\xae\\xe5\\xad\\x98\\xe5\\x82\\xa8\\xe5\\x92\\x8c\\xe4\\xbd\\x9c\\xe7\\x94\\xa8\\xe5\\x9f\\x9f1.sol\":861:881  1 gwei == 1000000000 */\n      eq\n        /* \"tests/\\xe5\\x8f\\x98\\xe9\\x87\\x8f\\xe6\\x95\\xb0\\xe6\\x8d\\xae\\xe5\\xad\\x98\\xe5\\x82\\xa8\\xe5\\x92\\x8c\\xe4\\xbd\\x9c\\xe7\\x94\\xa8\\xe5\\x9f\\x9f1.sol\":854:882  assert(1 gwei == 1000000000) */\n      tag_81\n      jumpi\n      tag_82\n      tag_55\n      jump\t// in\n    tag_82:\n    tag_81:\n        /* \"tests/\\xe5\\x8f\\x98\\xe9\\x87\\x8f\\xe6\\x95\\xb0\\xe6\\x8d\\xae\\xe5\\xad\\x98\\xe5\\x82\\xa8\\xe5\\x92\\x8c\\xe4\\xbd\\x9c\\xe7\\x94\\xa8\\xe5\\x9f\\x9f1.sol\":896:902  1 gwei */\n      0x3b9aca00\n        /* \"tests/\\xe5\\x8f\\x98\\xe9\\x87\\x8f\\xe6\\x95\\xb0\\xe6\\x8d\\xae\\xe5\\xad\\x98\\xe5\\x82\\xa8\\xe5\\x92\\x8c\\xe4\\xbd\\x9c\\xe7\\x94\\xa8\\xe5\\x9f\\x9f1.sol\":889:902  return 1 gwei */\n      swap1\n      pop\n        /* \"tests/\\xe5\\x8f\\x98\\xe9\\x87\\x8f\\xe6\\x95\\xb0\\xe6\\x8d\\xae\\xe5\\xad\\x98\\xe5\\x82\\xa8\\xe5\\x92\\x8c\\xe4\\xbd\\x9c\\xe7\\x94\\xa8\\xe5\\x9f\\x9f1.sol\":771:906  function gweiUnit() external pure returns(uint) {... */\n      swap1\n      jump\t// out\n        /* \"tests/\\xe5\\x8f\\x98\\xe9\\x87\\x8f\\xe6\\x95\\xb0\\xe6\\x8d\\xae\\xe5\\xad\\x98\\xe5\\x82\\xa8\\xe5\\x92\\x8c\\xe4\\xbd\\x9c\\xe7\\x94\\xa8\\xe5\\x9f\\x9f1.sol\":1324:1464  function hoursUnit() external pure returns(uint) {... */\n    tag_44:\n        /* \"tests/\\xe5\\x8f\\x98\\xe9\\x87\\x8f\\xe6\\x95\\xb0\\xe6\\x8d\\xae\\xe5\\xad\\x98\\xe5\\x82\\xa8\\xe5\\x92\\x8c\\xe4\\xbd\\x9c\\xe7\\x94\\xa8\\xe5\\x9f\\x9f1.sol\":1367:1371  uint */\n      0x00\n        /* \"tests/\\xe5\\x8f\\x98\\xe9\\x87\\x8f\\xe6\\x95\\xb0\\xe6\\x8d\\xae\\xe5\\xad\\x98\\xe5\\x82\\xa8\\xe5\\x92\\x8c\\xe4\\xbd\\x9c\\xe7\\x94\\xa8\\xe5\\x9f\\x9f1.sol\":1398:1402  3600 */\n      0x0e10\n        /* \"tests/\\xe5\\x8f\\x98\\xe9\\x87\\x8f\\xe6\\x95\\xb0\\xe6\\x8d\\xae\\xe5\\xad\\x98\\xe5\\x82\\xa8\\xe5\\x92\\x8c\\xe4\\xbd\\x9c\\xe7\\x94\\xa8\\xe5\\x9f\\x9f1.sol\":1387:1394  1 hours */\n      dup1\n        /* \"tests/\\xe5\\x8f\\x98\\xe9\\x87\\x8f\\xe6\\x95\\xb0\\xe6\\x8d\\xae\\xe5\\xad\\x98\\xe5\\x82\\xa8\\xe5\\x92\\x8c\\xe4\\xbd\\x9c\\xe7\\x94\\xa8\\xe5\\x9f\\x9f1.sol\":1387:1402  1 hours == 3600 */\n      eq\n        /* \"tests/\\xe5\\x8f\\x98\\xe9\\x87\\x8f\\xe6\\x95\\xb0\\xe6\\x8d\\xae\\xe5\\xad\\x98\\xe5\\x82\\xa8\\xe5\\x92\\x8c\\xe4\\xbd\\x9c\\xe7\\x94\\xa8\\xe5\\x9f\\x9f1.sol\":1380:1403  assert(1 hours == 3600) */\n      tag_84\n      jumpi\n      tag_85\n      tag_55\n      jump\t// in\n    tag_85:\n    tag_84:\n        /* \"tests/\\xe5\\x8f\\x98\\xe9\\x87\\x8f\\xe6\\x95\\xb0\\xe6\\x8d\\xae\\xe5\\xad\\x98\\xe5\\x82\\xa8\\xe5\\x92\\x8c\\xe4\\xbd\\x9c\\xe7\\x94\\xa8\\xe5\\x9f\\x9f1.sol\":1428:1438  60 minutes */\n      0x0e10\n        /* \"tests/\\xe5\\x8f\\x98\\xe9\\x87\\x8f\\xe6\\x95\\xb0\\xe6\\x8d\\xae\\xe5\\xad\\x98\\xe5\\x82\\xa8\\xe5\\x92\\x8c\\xe4\\xbd\\x9c\\xe7\\x94\\xa8\\xe5\\x9f\\x9f1.sol\":1417:1424  1 hours */\n      dup1\n        /* \"tests/\\xe5\\x8f\\x98\\xe9\\x87\\x8f\\xe6\\x95\\xb0\\xe6\\x8d\\xae\\xe5\\xad\\x98\\xe5\\x82\\xa8\\xe5\\x92\\x8c\\xe4\\xbd\\x9c\\xe7\\x94\\xa8\\xe5\\x9f\\x9f1.sol\":1417:1438  1 hours == 60 minutes */\n      eq\n        /* \"tests/\\xe5\\x8f\\x98\\xe9\\x87\\x8f\\xe6\\x95\\xb0\\xe6\\x8d\\xae\\xe5\\xad\\x98\\xe5\\x82\\xa8\\xe5\\x92\\x8c\\xe4\\xbd\\x9c\\xe7\\x94\\xa8\\xe5\\x9f\\x9f1.sol\":1410:1439  assert(1 hours == 60 minutes) */\n      tag_86\n      jumpi\n      tag_87\n      tag_55\n      jump\t// in\n    tag_87:\n    tag_86:\n        /* \"tests/\\xe5\\x8f\\x98\\xe9\\x87\\x8f\\xe6\\x95\\xb0\\xe6\\x8d\\xae\\xe5\\xad\\x98\\xe5\\x82\\xa8\\xe5\\x92\\x8c\\xe4\\xbd\\x9c\\xe7\\x94\\xa8\\xe5\\x9f\\x9f1.sol\":1453:1460  1 hours */\n      0x0e10\n        /* \"tests/\\xe5\\x8f\\x98\\xe9\\x87\\x8f\\xe6\\x95\\xb0\\xe6\\x8d\\xae\\xe5\\xad\\x98\\xe5\\x82\\xa8\\xe5\\x92\\x8c\\xe4\\xbd\\x9c\\xe7\\x94\\xa8\\xe5\\x9f\\x9f1.sol\":1446:1460  return 1 hours */\n      swap1\n      pop\n        /* \"tests/\\xe5\\x8f\\x98\\xe9\\x87\\x8f\\xe6\\x95\\xb0\\xe6\\x8d\\xae\\xe5\\xad\\x98\\xe5\\x82\\xa8\\xe5\\x92\\x8c\\xe4\\xbd\\x9c\\xe7\\x94\\xa8\\xe5\\x9f\\x9f1.sol\":1324:1464  function hoursUnit() external pure returns(uint) {... */\n      swap1\n      jump\t// out\n        /* \"tests/\\xe5\\x8f\\x98\\xe9\\x87\\x8f\\xe6\\x95\\xb0\\xe6\\x8d\\xae\\xe5\\xad\\x98\\xe5\\x82\\xa8\\xe5\\x92\\x8c\\xe4\\xbd\\x9c\\xe7\\x94\\xa8\\xe5\\x9f\\x9f1.sol\":910:1059  function etherUnit() external pure returns(uint) {... */\n    tag_47:\n        /* \"tests/\\xe5\\x8f\\x98\\xe9\\x87\\x8f\\xe6\\x95\\xb0\\xe6\\x8d\\xae\\xe5\\xad\\x98\\xe5\\x82\\xa8\\xe5\\x92\\x8c\\xe4\\xbd\\x9c\\xe7\\x94\\xa8\\xe5\\x9f\\x9f1.sol\":953:957  uint */\n      0x00\n        /* \"tests/\\xe5\\x8f\\x98\\xe9\\x87\\x8f\\xe6\\x95\\xb0\\xe6\\x8d\\xae\\xe5\\xad\\x98\\xe5\\x82\\xa8\\xe5\\x92\\x8c\\xe4\\xbd\\x9c\\xe7\\x94\\xa8\\xe5\\x9f\\x9f1.sol\":984:988  1e18 */\n      0x0de0b6b3a7640000\n        /* \"tests/\\xe5\\x8f\\x98\\xe9\\x87\\x8f\\xe6\\x95\\xb0\\xe6\\x8d\\xae\\xe5\\xad\\x98\\xe5\\x82\\xa8\\xe5\\x92\\x8c\\xe4\\xbd\\x9c\\xe7\\x94\\xa8\\xe5\\x9f\\x9f1.sol\":973:980  1 ether */\n      dup1\n        /* \"tests/\\xe5\\x8f\\x98\\xe9\\x87\\x8f\\xe6\\x95\\xb0\\xe6\\x8d\\xae\\xe5\\xad\\x98\\xe5\\x82\\xa8\\xe5\\x92\\x8c\\xe4\\xbd\\x9c\\xe7\\x94\\xa8\\xe5\\x9f\\x9f1.sol\":973:988  1 ether == 1e18 */\n      eq\n        /* \"tests/\\xe5\\x8f\\x98\\xe9\\x87\\x8f\\xe6\\x95\\xb0\\xe6\\x8d\\xae\\xe5\\xad\\x98\\xe5\\x82\\xa8\\xe5\\x92\\x8c\\xe4\\xbd\\x9c\\xe7\\x94\\xa8\\xe5\\x9f\\x9f1.sol\":966:989  assert(1 ether == 1e18) */\n      tag_89\n      jumpi\n      tag_90\n      tag_55\n      jump\t// in\n    tag_90:\n    tag_89:\n        /* \"tests/\\xe5\\x8f\\x98\\xe9\\x87\\x8f\\xe6\\x95\\xb0\\xe6\\x8d\\xae\\xe5\\xad\\x98\\xe5\\x82\\xa8\\xe5\\x92\\x8c\\xe4\\xbd\\x9c\\xe7\\x94\\xa8\\xe5\\x9f\\x9f1.sol\":1014:1033  1000000000000000000 */\n      0x0de0b6b3a7640000\n        /* \"tests/\\xe5\\x8f\\x98\\xe9\\x87\\x8f\\xe6\\x95\\xb0\\xe6\\x8d\\xae\\xe5\\xad\\x98\\xe5\\x82\\xa8\\xe5\\x92\\x8c\\xe4\\xbd\\x9c\\xe7\\x94\\xa8\\xe5\\x9f\\x9f1.sol\":1003:1010  1 ether */\n      dup1\n        /* \"tests/\\xe5\\x8f\\x98\\xe9\\x87\\x8f\\xe6\\x95\\xb0\\xe6\\x8d\\xae\\xe5\\xad\\x98\\xe5\\x82\\xa8\\xe5\\x92\\x8c\\xe4\\xbd\\x9c\\xe7\\x94\\xa8\\xe5\\x9f\\x9f1.sol\":1003:1033  1 ether == 1000000000000000000 */\n      eq\n        /* \"tests/\\xe5\\x8f\\x98\\xe9\\x87\\x8f\\xe6\\x95\\xb0\\xe6\\x8d\\xae\\xe5\\xad\\x98\\xe5\\x82\\xa8\\xe5\\x92\\x8c\\xe4\\xbd\\x9c\\xe7\\x94\\xa8\\xe5\\x9f\\x9f1.sol\":996:1034  assert(1 ether == 1000000000000000000) */\n      tag_91\n      jumpi\n      tag_92\n      tag_55\n      jump\t// in\n    tag_92:\n    tag_91:\n        /* \"tests/\\xe5\\x8f\\x98\\xe9\\x87\\x8f\\xe6\\x95\\xb0\\xe6\\x8d\\xae\\xe5\\xad\\x98\\xe5\\x82\\xa8\\xe5\\x92\\x8c\\xe4\\xbd\\x9c\\xe7\\x94\\xa8\\xe5\\x9f\\x9f1.sol\":1048:1055  1 ether */\n      0x0de0b6b3a7640000\n        /* \"tests/\\xe5\\x8f\\x98\\xe9\\x87\\x8f\\xe6\\x95\\xb0\\xe6\\x8d\\xae\\xe5\\xad\\x98\\xe5\\x82\\xa8\\xe5\\x92\\x8c\\xe4\\xbd\\x9c\\xe7\\x94\\xa8\\xe5\\x9f\\x9f1.sol\":1041:1055  return 1 ether */\n      swap1\n      pop\n        /* \"tests/\\xe5\\x8f\\x98\\xe9\\x87\\x8f\\xe6\\x95\\xb0\\xe6\\x8d\\xae\\xe5\\xad\\x98\\xe5\\x82\\xa8\\xe5\\x92\\x8c\\xe4\\xbd\\x9c\\xe7\\x94\\xa8\\xe5\\x9f\\x9f1.sol\":910:1059  function etherUnit() external pure returns(uint) {... */\n      swap1\n      jump\t// out\n        /* \"tests/\\xe5\\x8f\\x98\\xe9\\x87\\x8f\\xe6\\x95\\xb0\\xe6\\x8d\\xae\\xe5\\xad\\x98\\xe5\\x82\\xa8\\xe5\\x92\\x8c\\xe4\\xbd\\x9c\\xe7\\x94\\xa8\\xe5\\x9f\\x9f1.sol\":1174:1320  function minutesUnit() external pure returns(uint) {... */\n    tag_50:\n        /* \"tests/\\xe5\\x8f\\x98\\xe9\\x87\\x8f\\xe6\\x95\\xb0\\xe6\\x8d\\xae\\xe5\\xad\\x98\\xe5\\x82\\xa8\\xe5\\x92\\x8c\\xe4\\xbd\\x9c\\xe7\\x94\\xa8\\xe5\\x9f\\x9f1.sol\":1219:1223  uint */\n      0x00\n        /* \"tests/\\xe5\\x8f\\x98\\xe9\\x87\\x8f\\xe6\\x95\\xb0\\xe6\\x8d\\xae\\xe5\\xad\\x98\\xe5\\x82\\xa8\\xe5\\x92\\x8c\\xe4\\xbd\\x9c\\xe7\\x94\\xa8\\xe5\\x9f\\x9f1.sol\":1252:1254  60 */\n      0x3c\n        /* \"tests/\\xe5\\x8f\\x98\\xe9\\x87\\x8f\\xe6\\x95\\xb0\\xe6\\x8d\\xae\\xe5\\xad\\x98\\xe5\\x82\\xa8\\xe5\\x92\\x8c\\xe4\\xbd\\x9c\\xe7\\x94\\xa8\\xe5\\x9f\\x9f1.sol\":1239:1248  1 minutes */\n      dup1\n        /* \"tests/\\xe5\\x8f\\x98\\xe9\\x87\\x8f\\xe6\\x95\\xb0\\xe6\\x8d\\xae\\xe5\\xad\\x98\\xe5\\x82\\xa8\\xe5\\x92\\x8c\\xe4\\xbd\\x9c\\xe7\\x94\\xa8\\xe5\\x9f\\x9f1.sol\":1239:1254  1 minutes == 60 */\n      eq\n        /* \"tests/\\xe5\\x8f\\x98\\xe9\\x87\\x8f\\xe6\\x95\\xb0\\xe6\\x8d\\xae\\xe5\\xad\\x98\\xe5\\x82\\xa8\\xe5\\x92\\x8c\\xe4\\xbd\\x9c\\xe7\\x94\\xa8\\xe5\\x9f\\x9f1.sol\":1232:1255  assert(1 minutes == 60) */\n      tag_94\n      jumpi\n      tag_95\n      tag_55\n      jump\t// in\n    tag_95:\n    tag_94:\n        /* \"tests/\\xe5\\x8f\\x98\\xe9\\x87\\x8f\\xe6\\x95\\xb0\\xe6\\x8d\\xae\\xe5\\xad\\x98\\xe5\\x82\\xa8\\xe5\\x92\\x8c\\xe4\\xbd\\x9c\\xe7\\x94\\xa8\\xe5\\x9f\\x9f1.sol\":1282:1292  60 seconds */\n      0x3c\n        /* \"tests/\\xe5\\x8f\\x98\\xe9\\x87\\x8f\\xe6\\x95\\xb0\\xe6\\x8d\\xae\\xe5\\xad\\x98\\xe5\\x82\\xa8\\xe5\\x92\\x8c\\xe4\\xbd\\x9c\\xe7\\x94\\xa8\\xe5\\x9f\\x9f1.sol\":1269:1278  1 minutes */\n      dup1\n        /* \"tests/\\xe5\\x8f\\x98\\xe9\\x87\\x8f\\xe6\\x95\\xb0\\xe6\\x8d\\xae\\xe5\\xad\\x98\\xe5\\x82\\xa8\\xe5\\x92\\x8c\\xe4\\xbd\\x9c\\xe7\\x94\\xa8\\xe5\\x9f\\x9f1.sol\":1269:1292  1 minutes == 60 seconds */\n      eq\n        /* \"tests/\\xe5\\x8f\\x98\\xe9\\x87\\x8f\\xe6\\x95\\xb0\\xe6\\x8d\\xae\\xe5\\xad\\x98\\xe5\\x82\\xa8\\xe5\\x92\\x8c\\xe4\\xbd\\x9c\\xe7\\x94\\xa8\\xe5\\x9f\\x9f1.sol\":1262:1293  assert(1 minutes == 60 seconds) */\n      tag_96\n      jumpi\n      tag_97\n      tag_55\n      jump\t// in\n    tag_97:\n    tag_96:\n        /* \"tests/\\xe5\\x8f\\x98\\xe9\\x87\\x8f\\xe6\\x95\\xb0\\xe6\\x8d\\xae\\xe5\\xad\\x98\\xe5\\x82\\xa8\\xe5\\x92\\x8c\\xe4\\xbd\\x9c\\xe7\\x94\\xa8\\xe5\\x9f\\x9f1.sol\":1307:1316  1 minutes */\n      0x3c\n        /* \"tests/\\xe5\\x8f\\x98\\xe9\\x87\\x8f\\xe6\\x95\\xb0\\xe6\\x8d\\xae\\xe5\\xad\\x98\\xe5\\x82\\xa8\\xe5\\x92\\x8c\\xe4\\xbd\\x9c\\xe7\\x94\\xa8\\xe5\\x9f\\x9f1.sol\":1300:1316  return 1 minutes */\n      swap1\n      pop\n        /* \"tests/\\xe5\\x8f\\x98\\xe9\\x87\\x8f\\xe6\\x95\\xb0\\xe6\\x8d\\xae\\xe5\\xad\\x98\\xe5\\x82\\xa8\\xe5\\x92\\x8c\\xe4\\xbd\\x9c\\xe7\\x94\\xa8\\xe5\\x9f\\x9f1.sol\":1174:1320  function minutesUnit() external pure returns(uint) {... */\n      swap1\n      jump\t// out\n        /* \"#utility.yul\":7:84   */\n    tag_98:\n        /* \"#utility.yul\":44:51   */\n      0x00\n        /* \"#utility.yul\":73:78   */\n      dup2\n        /* \"#utility.yul\":62:78   */\n      swap1\n      pop\n        /* \"#utility.yul\":7:84   */\n      swap2\n      swap1\n      pop\n      jump\t// out\n        /* \"#utility.yul\":90:208   */\n    tag_99:\n        /* \"#utility.yul\":177:201   */\n      tag_122\n        /* \"#utility.yul\":195:200   */\n      dup2\n        /* \"#utility.yul\":177:201   */\n      tag_98\n      jump\t// in\n    tag_122:\n        /* \"#utility.yul\":172:175   */\n      dup3\n        /* \"#utility.yul\":165:202   */\n      mstore\n        /* \"#utility.yul\":90:208   */\n      pop\n      pop\n      jump\t// out\n        /* \"#utility.yul\":214:436   */\n    tag_18:\n        /* \"#utility.yul\":307:311   */\n      0x00\n        /* \"#utility.yul\":345:347   */\n      0x20\n        /* \"#utility.yul\":334:343   */\n      dup3\n        /* \"#utility.yul\":330:348   */\n      add\n        /* \"#utility.yul\":322:348   */\n      swap1\n      pop\n        /* \"#utility.yul\":358:429   */\n      tag_124\n        /* \"#utility.yul\":426:427   */\n      0x00\n        /* \"#utility.yul\":415:424   */\n      dup4\n        /* \"#utility.yul\":411:428   */\n      add\n        /* \"#utility.yul\":402:408   */\n      dup5\n        /* \"#utility.yul\":358:429   */\n      tag_99\n      jump\t// in\n    tag_124:\n        /* \"#utility.yul\":214:436   */\n      swap3\n      swap2\n      pop\n      pop\n      jump\t// out\n        /* \"#utility.yul\":523:640   */\n    tag_101:\n        /* \"#utility.yul\":632:633   */\n      0x00\n        /* \"#utility.yul\":629:630   */\n      dup1\n        /* \"#utility.yul\":622:634   */\n      revert\n        /* \"#utility.yul\":646:763   */\n    tag_102:\n        /* \"#utility.yul\":755:756   */\n      0x00\n        /* \"#utility.yul\":752:753   */\n      dup1\n        /* \"#utility.yul\":745:757   */\n      revert\n        /* \"#utility.yul\":769:886   */\n    tag_103:\n        /* \"#utility.yul\":878:879   */\n      0x00\n        /* \"#utility.yul\":875:876   */\n      dup1\n        /* \"#utility.yul\":868:880   */\n      revert\n        /* \"#utility.yul\":892:1009   */\n    tag_104:\n        /* \"#utility.yul\":1001:1002   */\n      0x00\n        /* \"#utility.yul\":998:999   */\n      dup1\n        /* \"#utility.yul\":991:1003   */\n      revert\n        /* \"#utility.yul\":1015:1132   */\n    tag_105:\n        /* \"#utility.yul\":1124:1125   */\n      0x00\n        /* \"#utility.yul\":1121:1122   */\n      dup1\n        /* \"#utility.yul\":1114:1126   */\n      revert\n        /* \"#utility.yul\":1155:1723   */\n    tag_106:\n        /* \"#utility.yul\":1228:1236   */\n      0x00\n        /* \"#utility.yul\":1238:1244   */\n      dup1\n        /* \"#utility.yul\":1288:1291   */\n      dup4\n        /* \"#utility.yul\":1281:1285   */\n      0x1f\n        /* \"#utility.yul\":1273:1279   */\n      dup5\n        /* \"#utility.yul\":1269:1286   */\n      add\n        /* \"#utility.yul\":1265:1292   */\n      slt\n        /* \"#utility.yul\":1255:1377   */\n      tag_132\n      jumpi\n        /* \"#utility.yul\":1296:1375   */\n      tag_133\n      tag_103\n      jump\t// in\n    tag_133:\n        /* \"#utility.yul\":1255:1377   */\n    tag_132:\n        /* \"#utility.yul\":1409:1415   */\n      dup3\n        /* \"#utility.yul\":1396:1416   */\n      calldataload\n        /* \"#utility.yul\":1386:1416   */\n      swap1\n      pop\n        /* \"#utility.yul\":1439:1457   */\n      0xffffffffffffffff\n        /* \"#utility.yul\":1431:1437   */\n      dup2\n        /* \"#utility.yul\":1428:1458   */\n      gt\n        /* \"#utility.yul\":1425:1542   */\n      iszero\n      tag_134\n      jumpi\n        /* \"#utility.yul\":1461:1540   */\n      tag_135\n      tag_104\n      jump\t// in\n    tag_135:\n        /* \"#utility.yul\":1425:1542   */\n    tag_134:\n        /* \"#utility.yul\":1575:1579   */\n      0x20\n        /* \"#utility.yul\":1567:1573   */\n      dup4\n        /* \"#utility.yul\":1563:1580   */\n      add\n        /* \"#utility.yul\":1551:1580   */\n      swap2\n      pop\n        /* \"#utility.yul\":1629:1632   */\n      dup4\n        /* \"#utility.yul\":1621:1625   */\n      0x20\n        /* \"#utility.yul\":1613:1619   */\n      dup3\n        /* \"#utility.yul\":1609:1626   */\n      mul\n        /* \"#utility.yul\":1599:1607   */\n      dup4\n        /* \"#utility.yul\":1595:1627   */\n      add\n        /* \"#utility.yul\":1592:1633   */\n      gt\n        /* \"#utility.yul\":1589:1717   */\n      iszero\n      tag_136\n      jumpi\n        /* \"#utility.yul\":1636:1715   */\n      tag_137\n      tag_105\n      jump\t// in\n    tag_137:\n        /* \"#utility.yul\":1589:1717   */\n    tag_136:\n        /* \"#utility.yul\":1155:1723   */\n      swap3\n      pop\n      swap3\n      swap1\n      pop\n      jump\t// out\n        /* \"#utility.yul\":1729:2288   */\n    tag_29:\n        /* \"#utility.yul\":1815:1821   */\n      0x00\n        /* \"#utility.yul\":1823:1829   */\n      dup1\n        /* \"#utility.yul\":1872:1874   */\n      0x20\n        /* \"#utility.yul\":1860:1869   */\n      dup4\n        /* \"#utility.yul\":1851:1858   */\n      dup6\n        /* \"#utility.yul\":1847:1870   */\n      sub\n        /* \"#utility.yul\":1843:1875   */\n      slt\n        /* \"#utility.yul\":1840:1959   */\n      iszero\n      tag_139\n      jumpi\n        /* \"#utility.yul\":1878:1957   */\n      tag_140\n      tag_101\n      jump\t// in\n    tag_140:\n        /* \"#utility.yul\":1840:1959   */\n    tag_139:\n        /* \"#utility.yul\":2026:2027   */\n      0x00\n        /* \"#utility.yul\":2015:2024   */\n      dup4\n        /* \"#utility.yul\":2011:2028   */\n      add\n        /* \"#utility.yul\":1998:2029   */\n      calldataload\n        /* \"#utility.yul\":2056:2074   */\n      0xffffffffffffffff\n        /* \"#utility.yul\":2048:2054   */\n      dup2\n        /* \"#utility.yul\":2045:2075   */\n      gt\n        /* \"#utility.yul\":2042:2159   */\n      iszero\n      tag_141\n      jumpi\n        /* \"#utility.yul\":2078:2157   */\n      tag_142\n      tag_102\n      jump\t// in\n    tag_142:\n        /* \"#utility.yul\":2042:2159   */\n    tag_141:\n        /* \"#utility.yul\":2191:2271   */\n      tag_143\n        /* \"#utility.yul\":2263:2270   */\n      dup6\n        /* \"#utility.yul\":2254:2260   */\n      dup3\n        /* \"#utility.yul\":2243:2252   */\n      dup7\n        /* \"#utility.yul\":2239:2261   */\n      add\n        /* \"#utility.yul\":2191:2271   */\n      tag_106\n      jump\t// in\n    tag_143:\n        /* \"#utility.yul\":2173:2271   */\n      swap3\n      pop\n      swap3\n      pop\n        /* \"#utility.yul\":1969:2281   */\n      pop\n        /* \"#utility.yul\":1729:2288   */\n      swap3\n      pop\n      swap3\n      swap1\n      pop\n      jump\t// out\n        /* \"#utility.yul\":2294:2478   */\n    tag_107:\n        /* \"#utility.yul\":2393:2404   */\n      0x00\n        /* \"#utility.yul\":2427:2433   */\n      dup3\n        /* \"#utility.yul\":2422:2425   */\n      dup3\n        /* \"#utility.yul\":2415:2434   */\n      mstore\n        /* \"#utility.yul\":2467:2471   */\n      0x20\n        /* \"#utility.yul\":2462:2465   */\n      dup3\n        /* \"#utility.yul\":2458:2472   */\n      add\n        /* \"#utility.yul\":2443:2472   */\n      swap1\n      pop\n        /* \"#utility.yul\":2294:2478   */\n      swap3\n      swap2\n      pop\n      pop\n      jump\t// out\n        /* \"#utility.yul\":2484:2601   */\n    tag_108:\n        /* \"#utility.yul\":2593:2594   */\n      0x00\n        /* \"#utility.yul\":2590:2591   */\n      dup1\n        /* \"#utility.yul\":2583:2595   */\n      revert\n        /* \"#utility.yul\":2607:2706   */\n    tag_109:\n        /* \"#utility.yul\":2692:2698   */\n      dup3\n        /* \"#utility.yul\":2687:2690   */\n      dup2\n        /* \"#utility.yul\":2682:2685   */\n      dup4\n        /* \"#utility.yul\":2669:2699   */\n      calldatacopy\n        /* \"#utility.yul\":2607:2706   */\n      pop\n      pop\n      pop\n      jump\t// out\n        /* \"#utility.yul\":2742:3279   */\n    tag_110:\n        /* \"#utility.yul\":2870:2873   */\n      0x00\n        /* \"#utility.yul\":2891:2977   */\n      tag_148\n        /* \"#utility.yul\":2970:2976   */\n      dup4\n        /* \"#utility.yul\":2965:2968   */\n      dup6\n        /* \"#utility.yul\":2891:2977   */\n      tag_107\n      jump\t// in\n    tag_148:\n        /* \"#utility.yul\":2884:2977   */\n      swap4\n      pop\n        /* \"#utility.yul\":3001:3067   */\n      0x07ffffffffffffffffffffffffffffffffffffffffffffffffffffffffffffff\n        /* \"#utility.yul\":2993:2999   */\n      dup4\n        /* \"#utility.yul\":2990:3068   */\n      gt\n        /* \"#utility.yul\":2987:3152   */\n      iszero\n      tag_149\n      jumpi\n        /* \"#utility.yul\":3071:3150   */\n      tag_150\n      tag_108\n      jump\t// in\n    tag_150:\n        /* \"#utility.yul\":2987:3152   */\n    tag_149:\n        /* \"#utility.yul\":3183:3187   */\n      0x20\n        /* \"#utility.yul\":3175:3181   */\n      dup4\n        /* \"#utility.yul\":3171:3188   */\n      mul\n        /* \"#utility.yul\":3161:3188   */\n      swap3\n      pop\n        /* \"#utility.yul\":3198:3241   */\n      tag_151\n        /* \"#utility.yul\":3234:3240   */\n      dup4\n        /* \"#utility.yul\":3229:3232   */\n      dup6\n        /* \"#utility.yul\":3222:3227   */\n      dup5\n        /* \"#utility.yul\":3198:3241   */\n      tag_109\n      jump\t// in\n    tag_151:\n        /* \"#utility.yul\":3266:3272   */\n      dup3\n        /* \"#utility.yul\":3261:3264   */\n      dup5\n        /* \"#utility.yul\":3257:3273   */\n      add\n        /* \"#utility.yul\":3250:3273   */\n      swap1\n      pop\n        /* \"#utility.yul\":2742:3279   */\n      swap4\n      swap3\n      pop\n      pop\n      pop\n      jump\t// out\n        /* \"#utility.yul\":3285:3678   */\n    tag_32:\n        /* \"#utility.yul\":3438:3442   */\n      0x00\n        /* \"#utility.yul\":3476:3478   */\n      0x20\n        /* \"#utility.yul\":3465:3474   */\n      dup3\n        /* \"#utility.yul\":3461:3479   */\n      add\n        /* \"#utility.yul\":3453:3479   */\n      swap1\n      pop\n        /* \"#utility.yul\":3525:3534   */\n      dup2\n        /* \"#utility.yul\":3519:3523   */\n      dup2\n        /* \"#utility.yul\":3515:3535   */\n      sub\n        /* \"#utility.yul\":3511:3512   */\n      0x00\n        /* \"#utility.yul\":3500:3509   */\n      dup4\n        /* \"#utility.yul\":3496:3513   */\n      add\n        /* \"#utility.yul\":3489:3536   */\n      mstore\n        /* \"#utility.yul\":3553:3671   */\n      tag_153\n        /* \"#utility.yul\":3666:3670   */\n      dup2\n        /* \"#utility.yul\":3657:3663   */\n      dup5\n        /* \"#utility.yul\":3649:3655   */\n      dup7\n        /* \"#utility.yul\":3553:3671   */\n      tag_110\n      jump\t// in\n    tag_153:\n        /* \"#utility.yul\":3545:3671   */\n      swap1\n      pop\n        /* \"#utility.yul\":3285:3678   */\n      swap4\n      swap3\n      pop\n      pop\n      pop\n      jump\t// out\n        /* \"#utility.yul\":3684:3810   */\n    tag_111:\n        /* \"#utility.yul\":3721:3728   */\n      0x00\n        /* \"#utility.yul\":3761:3803   */\n      0xffffffffffffffffffffffffffffffffffffffff\n        /* \"#utility.yul\":3754:3759   */\n      dup3\n        /* \"#utility.yul\":3750:3804   */\n      and\n        /* \"#utility.yul\":3739:3804   */\n      swap1\n      pop\n        /* \"#utility.yul\":3684:3810   */\n      swap2\n      swap1\n      pop\n      jump\t// out\n        /* \"#utility.yul\":3816:3912   */\n    tag_112:\n        /* \"#utility.yul\":3853:3860   */\n      0x00\n        /* \"#utility.yul\":3882:3906   */\n      tag_156\n        /* \"#utility.yul\":3900:3905   */\n      dup3\n        /* \"#utility.yul\":3882:3906   */\n      tag_111\n      jump\t// in\n    tag_156:\n        /* \"#utility.yul\":3871:3906   */\n      swap1\n      pop\n        /* \"#utility.yul\":3816:3912   */\n      swap2\n      swap1\n      pop\n      jump\t// out\n        /* \"#utility.yul\":3918:4036   */\n    tag_113:\n        /* \"#utility.yul\":4005:4029   */\n      tag_158\n        /* \"#utility.yul\":4023:4028   */\n      dup2\n        /* \"#utility.yul\":4005:4029   */\n      tag_112\n      jump\t// in\n    tag_158:\n        /* \"#utility.yul\":4000:4003   */\n      dup3\n        /* \"#utility.yul\":3993:4030   */\n      mstore\n        /* \"#utility.yul\":3918:4036   */\n      pop\n      pop\n      jump\t// out\n        /* \"#utility.yul\":4042:4140   */\n    tag_114:\n        /* \"#utility.yul\":4093:4099   */\n      0x00\n        /* \"#utility.yul\":4127:4132   */\n      dup2\n        /* \"#utility.yul\":4121:4133   */\n      mload\n        /* \"#utility.yul\":4111:4133   */\n      swap1\n      pop\n        /* \"#utility.yul\":4042:4140   */\n      swap2\n      swap1\n      pop\n      jump\t// out\n        /* \"#utility.yul\":4146:4314   */\n    tag_115:\n        /* \"#utility.yul\":4229:4240   */\n      0x00\n        /* \"#utility.yul\":4263:4269   */\n      dup3\n        /* \"#utility.yul\":4258:4261   */\n      dup3\n        /* \"#utility.yul\":4251:4270   */\n      mstore\n        /* \"#utility.yul\":4303:4307   */\n      0x20\n        /* \"#utility.yul\":4298:4301   */\n      dup3\n        /* \"#utility.yul\":4294:4308   */\n      add\n        /* \"#utility.yul\":4279:4308   */\n      swap1\n      pop\n        /* \"#utility.yul\":4146:4314   */\n      swap3\n      swap2\n      pop\n      pop\n      jump\t// out\n        /* \"#utility.yul\":4320:4459   */\n    tag_116:\n        /* \"#utility.yul\":4409:4415   */\n      dup3\n        /* \"#utility.yul\":4404:4407   */\n      dup2\n        /* \"#utility.yul\":4399:4402   */\n      dup4\n        /* \"#utility.yul\":4393:4416   */\n      mcopy\n        /* \"#utility.yul\":4450:4451   */\n      0x00\n        /* \"#utility.yul\":4441:4447   */\n      dup4\n        /* \"#utility.yul\":4436:4439   */\n      dup4\n        /* \"#utility.yul\":4432:4448   */\n      add\n        /* \"#utility.yul\":4425:4452   */\n      mstore\n        /* \"#utility.yul\":4320:4459   */\n      pop\n      pop\n      pop\n      jump\t// out\n        /* \"#utility.yul\":4465:4567   */\n    tag_117:\n        /* \"#utility.yul\":4506:4512   */\n      0x00\n        /* \"#utility.yul\":4557:4559   */\n      0x1f\n        /* \"#utility.yul\":4553:4560   */\n      not\n        /* \"#utility.yul\":4548:4550   */\n      0x1f\n        /* \"#utility.yul\":4541:4546   */\n      dup4\n        /* \"#utility.yul\":4537:4551   */\n      add\n        /* \"#utility.yul\":4533:4561   */\n      and\n        /* \"#utility.yul\":4523:4561   */\n      swap1\n      pop\n        /* \"#utility.yul\":4465:4567   */\n      swap2\n      swap1\n      pop\n      jump\t// out\n        /* \"#utility.yul\":4573:4946   */\n    tag_118:\n        /* \"#utility.yul\":4659:4662   */\n      0x00\n        /* \"#utility.yul\":4687:4725   */\n      tag_164\n        /* \"#utility.yul\":4719:4724   */\n      dup3\n        /* \"#utility.yul\":4687:4725   */\n      tag_114\n      jump\t// in\n    tag_164:\n        /* \"#utility.yul\":4741:4811   */\n      tag_165\n        /* \"#utility.yul\":4804:4810   */\n      dup2\n        /* \"#utility.yul\":4799:4802   */\n      dup6\n        /* \"#utility.yul\":4741:4811   */\n      tag_115\n      jump\t// in\n    tag_165:\n        /* \"#utility.yul\":4734:4811   */\n      swap4\n      pop\n        /* \"#utility.yul\":4820:4885   */\n      tag_166\n        /* \"#utility.yul\":4878:4884   */\n      dup2\n        /* \"#utility.yul\":4873:4876   */\n      dup6\n        /* \"#utility.yul\":4866:4870   */\n      0x20\n        /* \"#utility.yul\":4859:4864   */\n      dup7\n        /* \"#utility.yul\":4855:4871   */\n      add\n        /* \"#utility.yul\":4820:4885   */\n      tag_116\n      jump\t// in\n    tag_166:\n        /* \"#utility.yul\":4910:4939   */\n      tag_167\n        /* \"#utility.yul\":4932:4938   */\n      dup2\n        /* \"#utility.yul\":4910:4939   */\n      tag_117\n      jump\t// in\n    tag_167:\n        /* \"#utility.yul\":4905:4908   */\n      dup5\n        /* \"#utility.yul\":4901:4940   */\n      add\n        /* \"#utility.yul\":4894:4940   */\n      swap2\n      pop\n        /* \"#utility.yul\":4663:4946   */\n      pop\n        /* \"#utility.yul\":4573:4946   */\n      swap3\n      swap2\n      pop\n      pop\n      jump\t// out\n        /* \"#utility.yul\":4952:5481   */\n    tag_36:\n        /* \"#utility.yul\":5119:5123   */\n      0x00\n        /* \"#utility.yul\":5157:5159   */\n      0x60\n        /* \"#utility.yul\":5146:5155   */\n      dup3\n        /* \"#utility.yul\":5142:5160   */\n      add\n        /* \"#utility.yul\":5134:5160   */\n      swap1\n      pop\n        /* \"#utility.yul\":5170:5241   */\n      tag_169\n        /* \"#utility.yul\":5238:5239   */\n      0x00\n        /* \"#utility.yul\":5227:5236   */\n      dup4\n        /* \"#utility.yul\":5223:5240   */\n      add\n        /* \"#utility.yul\":5214:5220   */\n      dup7\n        /* \"#utility.yul\":5170:5241   */\n      tag_113\n      jump\t// in\n    tag_169:\n        /* \"#utility.yul\":5251:5323   */\n      tag_170\n        /* \"#utility.yul\":5319:5321   */\n      0x20\n        /* \"#utility.yul\":5308:5317   */\n      dup4\n        /* \"#utility.yul\":5304:5322   */\n      add\n        /* \"#utility.yul\":5295:5301   */\n      dup6\n        /* \"#utility.yul\":5251:5323   */\n      tag_99\n      jump\t// in\n    tag_170:\n        /* \"#utility.yul\":5370:5379   */\n      dup2\n        /* \"#utility.yul\":5364:5368   */\n      dup2\n        /* \"#utility.yul\":5360:5380   */\n      sub\n        /* \"#utility.yul\":5355:5357   */\n      0x40\n        /* \"#utility.yul\":5344:5353   */\n      dup4\n        /* \"#utility.yul\":5340:5358   */\n      add\n        /* \"#utility.yul\":5333:5381   */\n      mstore\n        /* \"#utility.yul\":5398:5474   */\n      tag_171\n        /* \"#utility.yul\":5469:5473   */\n      dup2\n        /* \"#utility.yul\":5460:5466   */\n      dup5\n        /* \"#utility.yul\":5398:5474   */\n      tag_118\n      jump\t// in\n    tag_171:\n        /* \"#utility.yul\":5390:5474   */\n      swap1\n      pop\n        /* \"#utility.yul\":4952:5481   */\n      swap5\n      swap4\n      pop\n      pop\n      pop\n      pop\n      jump\t// out\n        /* \"#utility.yul\":5487:5667   */\n    tag_55:\n        /* \"#utility.yul\":5535:5612   */\n      0x4e487b7100000000000000000000000000000000000000000000000000000000\n        /* \"#utility.yul\":5532:5533   */\n      0x00\n        /* \"#utility.yul\":5525:5613   */\n      mstore\n        /* \"#utility.yul\":5632:5636   */\n      0x01\n        /* \"#utility.yul\":5629:5630   */\n      0x04\n        /* \"#utility.yul\":5622:5637   */\n      mstore\n        /* \"#utility.yul\":5656:5660   */\n      0x24\n        /* \"#utility.yul\":5653:5654   */\n      0x00\n        /* \"#utility.yul\":5646:5661   */\n      revert\n        /* \"#utility.yul\":5673:5853   */\n    tag_69:\n        /* \"#utility.yul\":5721:5798   */\n      0x4e487b7100000000000000000000000000000000000000000000000000000000\n        /* \"#utility.yul\":5718:5719   */\n      0x00\n        /* \"#utility.yul\":5711:5799   */\n      mstore\n        /* \"#utility.yul\":5818:5822   */\n      0x32\n        /* \"#utility.yul\":5815:5816   */\n      0x04\n        /* \"#utility.yul\":5808:5823   */\n      mstore\n        /* \"#utility.yul\":5842:5846   */\n      0x24\n        /* \"#utility.yul\":5839:5840   */\n      0x00\n        /* \"#utility.yul\":5832:5847   */\n      revert\n\n    auxdata: 0xa2646970667358221220863336cdcbd442dab48f80aeb4c2ad311d01574ea32487f1c064aedb773b7eb664736f6c634300081a0033\n}\n",
				"bytecode": {
					"linkReferences": {},
					"object": "60806040526040518060600160405280600160ff168152602001600260ff168152602001600360ff168152505f90600360389291906048565b503480156043575f80fd5b5060ac565b828054828255905f5260205f209081019282156084579160200282015b828111156083578251829060ff169055916020019190600101906065565b5b509050608f91906093565b5090565b5b8082111560a8575f815f9055506001016094565b5090565b6106f4806100b95f395ff3fe608060405234801561000f575f80fd5b50600436106100a7575f3560e01c8063a05f99061161006f578063a05f990614610140578063a0d0d59e14610160578063aec3d6401461017e578063be44f8641461019c578063cb9f1220146101ba578063f1e6d198146101d8576100a7565b806309879682146100ab57806312176349146100c95780632aca45f1146100e75780636a8d1e08146101055780639a6577891461010f575b5f80fd5b6100b36101f6565b6040516100c09190610412565b60405180910390f35b6100d161020f565b6040516100de9190610412565b60405180910390f35b6100ef610239565b6040516100fc9190610412565b60405180910390f35b61010d610269565b005b61012960048036038101906101249190610494565b61028e565b604051610137929190610557565b60405180910390f35b61014861029d565b60405161015793929190610628565b60405180910390f35b610168610301565b6040516101759190610412565b60405180910390f35b610186610331565b6040516101939190610412565b60405180910390f35b6101a4610364565b6040516101b19190610412565b60405180910390f35b6101c2610391565b6040516101cf9190610412565b60405180910390f35b6101e06103d0565b6040516101ed9190610412565b60405180910390f35b5f6001801461020857610207610664565b5b6001905090565b5f6001801461022157610220610664565b5b6001801461023257610231610664565b5b6001905090565b5f62093a80801461024d5761024c610664565b5b62093a8080146102605761025f610664565b5b62093a80905090565b5f6064815f8154811061027f5761027e610691565b5b905f5260205f20018190555050565b365f8383915091509250929050565b5f8060605f3390505f4390505f80368080601f0160208091040260200160405190810160405280939291908181526020018383808284375f81840152601f19601f820116905080830192505050505050509050828282955095509550505050909192565b5f62015180801461031557610314610664565b5b62015180801461032857610327610664565b5b62015180905090565b5f633b9aca00801461034657610345610664565b5b633b9aca00801461035a57610359610664565b5b633b9aca00905090565b5f610e10801461037757610376610664565b5b610e10801461038957610388610664565b5b610e10905090565b5f670de0b6b3a764000080146103aa576103a9610664565b5b670de0b6b3a764000080146103c2576103c1610664565b5b670de0b6b3a7640000905090565b5f603c80146103e2576103e1610664565b5b603c80146103f3576103f2610664565b5b603c905090565b5f819050919050565b61040c816103fa565b82525050565b5f6020820190506104255f830184610403565b92915050565b5f80fd5b5f80fd5b5f80fd5b5f80fd5b5f80fd5b5f8083601f84011261045457610453610433565b5b8235905067ffffffffffffffff81111561047157610470610437565b5b60208301915083602082028301111561048d5761048c61043b565b5b9250929050565b5f80602083850312156104aa576104a961042b565b5b5f83013567ffffffffffffffff8111156104c7576104c661042f565b5b6104d38582860161043f565b92509250509250929050565b5f82825260208201905092915050565b5f80fd5b82818337505050565b5f61050783856104df565b93507f07ffffffffffffffffffffffffffffffffffffffffffffffffffffffffffffff83111561053a576105396104ef565b5b60208302925061054b8385846104f3565b82840190509392505050565b5f6020820190508181035f8301526105708184866104fc565b90509392505050565b5f73ffffffffffffffffffffffffffffffffffffffff82169050919050565b5f6105a282610579565b9050919050565b6105b281610598565b82525050565b5f81519050919050565b5f82825260208201905092915050565b8281835e5f83830152505050565b5f601f19601f8301169050919050565b5f6105fa826105b8565b61060481856105c2565b93506106148185602086016105d2565b61061d816105e0565b840191505092915050565b5f60608201905061063b5f8301866105a9565b6106486020830185610403565b818103604083015261065a81846105f0565b9050949350505050565b7f4e487b71000000000000000000000000000000000000000000000000000000005f52600160045260245ffd5b7f4e487b71000000000000000000000000000000000000000000000000000000005f52603260045260245ffdfea2646970667358221220863336cdcbd442dab48f80aeb4c2ad311d01574ea32487f1c064aedb773b7eb664736f6c634300081a0033",
					"opcodes": "PUSH1 0x80 PUSH1 0x40 MSTORE PUSH1 0x40 MLOAD DUP1 PUSH1 0x60 ADD PUSH1 0x40 MSTORE DUP1 PUSH1 0x1 PUSH1 0xFF AND DUP2 MSTORE PUSH1 0x20 ADD PUSH1 0x2 PUSH1 0xFF AND DUP2 MSTORE PUSH1 0x20 ADD PUSH1 0x3 PUSH1 0xFF AND DUP2 MSTORE POP PUSH0 SWAP1 PUSH1 0x3 PUSH1 0x38 SWAP3 SWAP2 SWAP1 PUSH1 0x48 JUMP JUMPDEST POP CALLVALUE DUP1 ISZERO PUSH1 0x43 JUMPI PUSH0 DUP1 REVERT JUMPDEST POP PUSH1 0xAC JUMP JUMPDEST DUP3 DUP1 SLOAD DUP3 DUP3 SSTORE SWAP1 PUSH0 MSTORE PUSH1 0x20 PUSH0 KECCAK256 SWAP1 DUP2 ADD SWAP3 DUP3 ISZERO PUSH1 0x84 JUMPI SWAP2 PUSH1 0x20 MUL DUP3 ADD JUMPDEST DUP3 DUP2 GT ISZERO PUSH1 0x83 JUMPI DUP3 MLOAD DUP3 SWAP1 PUSH1 0xFF AND SWAP1 SSTORE SWAP2 PUSH1 0x20 ADD SWAP2 SWAP1 PUSH1 0x1 ADD SWAP1 PUSH1 0x65 JUMP JUMPDEST JUMPDEST POP SWAP1 POP PUSH1 0x8F SWAP2 SWAP1 PUSH1 0x93 JUMP JUMPDEST POP SWAP1 JUMP JUMPDEST JUMPDEST DUP1 DUP3 GT ISZERO PUSH1 0xA8 JUMPI PUSH0 DUP2 PUSH0 SWAP1 SSTORE POP PUSH1 0x1 ADD PUSH1 0x94 JUMP JUMPDEST POP SWAP1 JUMP JUMPDEST PUSH2 0x6F4 DUP1 PUSH2 0xB9 PUSH0 CODECOPY PUSH0 RETURN INVALID PUSH1 0x80 PUSH1 0x40 MSTORE CALLVALUE DUP1 ISZERO PUSH2 0xF JUMPI PUSH0 DUP1 REVERT JUMPDEST POP PUSH1 0x4 CALLDATASIZE LT PUSH2 0xA7 JUMPI PUSH0 CALLDATALOAD PUSH1 0xE0 SHR DUP1 PUSH4 0xA05F9906 GT PUSH2 0x6F JUMPI DUP1 PUSH4 0xA05F9906 EQ PUSH2 0x140 JUMPI DUP1 PUSH4 0xA0D0D59E EQ PUSH2 0x160 JUMPI DUP1 PUSH4 0xAEC3D640 EQ PUSH2 0x17E JUMPI DUP1 PUSH4 0xBE44F864 EQ PUSH2 0x19C JUMPI DUP1 PUSH4 0xCB9F1220 EQ PUSH2 0x1BA JUMPI DUP1 PUSH4 0xF1E6D198 EQ PUSH2 0x1D8 JUMPI PUSH2 0xA7 JUMP JUMPDEST DUP1 PUSH4 0x9879682 EQ PUSH2 0xAB JUMPI DUP1 PUSH4 0x12176349 EQ PUSH2 0xC9 JUMPI DUP1 PUSH4 0x2ACA45F1 EQ PUSH2 0xE7 JUMPI DUP1 PUSH4 0x6A8D1E08 EQ PUSH2 0x105 JUMPI DUP1 PUSH4 0x9A657789 EQ PUSH2 0x10F JUMPI JUMPDEST PUSH0 DUP1 REVERT JUMPDEST PUSH2 0xB3 PUSH2 0x1F6 JUMP JUMPDEST PUSH1 0x40 MLOAD PUSH2 0xC0 SWAP2 SWAP1 PUSH2 0x412 JUMP JUMPDEST PUSH1 0x40 MLOAD DUP1 SWAP2 SUB SWAP1 RETURN JUMPDEST PUSH2 0xD1 PUSH2 0x20F JUMP JUMPDEST PUSH1 0x40 MLOAD PUSH2 0xDE SWAP2 SWAP1 PUSH2 0x412 JUMP JUMPDEST PUSH1 0x40 MLOAD DUP1 SWAP2 SUB SWAP1 RETURN JUMPDEST PUSH2 0xEF PUSH2 0x239 JUMP JUMPDEST PUSH1 0x40 MLOAD PUSH2 0xFC SWAP2 SWAP1 PUSH2 0x412 JUMP JUMPDEST PUSH1 0x40 MLOAD DUP1 SWAP2 SUB SWAP1 RETURN JUMPDEST PUSH2 0x10D PUSH2 0x269 JUMP JUMPDEST STOP JUMPDEST PUSH2 0x129 PUSH1 0x4 DUP1 CALLDATASIZE SUB DUP2 ADD SWAP1 PUSH2 0x124 SWAP2 SWAP1 PUSH2 0x494 JUMP JUMPDEST PUSH2 0x28E JUMP JUMPDEST PUSH1 0x40 MLOAD PUSH2 0x137 SWAP3 SWAP2 SWAP1 PUSH2 0x557 JUMP JUMPDEST PUSH1 0x40 MLOAD DUP1 SWAP2 SUB SWAP1 RETURN JUMPDEST PUSH2 0x148 PUSH2 0x29D JUMP JUMPDEST PUSH1 0x40 MLOAD PUSH2 0x157 SWAP4 SWAP3 SWAP2 SWAP1 PUSH2 0x628 JUMP JUMPDEST PUSH1 0x40 MLOAD DUP1 SWAP2 SUB SWAP1 RETURN JUMPDEST PUSH2 0x168 PUSH2 0x301 JUMP JUMPDEST PUSH1 0x40 MLOAD PUSH2 0x175 SWAP2 SWAP1 PUSH2 0x412 JUMP JUMPDEST PUSH1 0x40 MLOAD DUP1 SWAP2 SUB SWAP1 RETURN JUMPDEST PUSH2 0x186 PUSH2 0x331 JUMP JUMPDEST PUSH1 0x40 MLOAD PUSH2 0x193 SWAP2 SWAP1 PUSH2 0x412 JUMP JUMPDEST PUSH1 0x40 MLOAD DUP1 SWAP2 SUB SWAP1 RETURN JUMPDEST PUSH2 0x1A4 PUSH2 0x364 JUMP JUMPDEST PUSH1 0x40 MLOAD PUSH2 0x1B1 SWAP2 SWAP1 PUSH2 0x412 JUMP JUMPDEST PUSH1 0x40 MLOAD DUP1 SWAP2 SUB SWAP1 RETURN JUMPDEST PUSH2 0x1C2 PUSH2 0x391 JUMP JUMPDEST PUSH1 0x40 MLOAD PUSH2 0x1CF SWAP2 SWAP1 PUSH2 0x412 JUMP JUMPDEST PUSH1 0x40 MLOAD DUP1 SWAP2 SUB SWAP1 RETURN JUMPDEST PUSH2 0x1E0 PUSH2 0x3D0 JUMP JUMPDEST PUSH1 0x40 MLOAD PUSH2 0x1ED SWAP2 SWAP1 PUSH2 0x412 JUMP JUMPDEST PUSH1 0x40 MLOAD DUP1 SWAP2 SUB SWAP1 RETURN JUMPDEST PUSH0 PUSH1 0x1 DUP1 EQ PUSH2 0x208 JUMPI PUSH2 0x207 PUSH2 0x664 JUMP JUMPDEST JUMPDEST PUSH1 0x1 SWAP1 POP SWAP1 JUMP JUMPDEST PUSH0 PUSH1 0x1 DUP1 EQ PUSH2 0x221 JUMPI PUSH2 0x220 PUSH2 0x664 JUMP JUMPDEST JUMPDEST PUSH1 0x1 DUP1 EQ PUSH2 0x232 JUMPI PUSH2 0x231 PUSH2 0x664 JUMP JUMPDEST JUMPDEST PUSH1 0x1 SWAP1 POP SWAP1 JUMP JUMPDEST PUSH0 PUSH3 0x93A80 DUP1 EQ PUSH2 0x24D JUMPI PUSH2 0x24C PUSH2 0x664 JUMP JUMPDEST JUMPDEST PUSH3 0x93A80 DUP1 EQ PUSH2 0x260 JUMPI PUSH2 0x25F PUSH2 0x664 JUMP JUMPDEST JUMPDEST PUSH3 0x93A80 SWAP1 POP SWAP1 JUMP JUMPDEST PUSH0 PUSH1 0x64 DUP2 PUSH0 DUP2 SLOAD DUP2 LT PUSH2 0x27F JUMPI PUSH2 0x27E PUSH2 0x691 JUMP JUMPDEST JUMPDEST SWAP1 PUSH0 MSTORE PUSH1 0x20 PUSH0 KECCAK256 ADD DUP2 SWAP1 SSTORE POP POP JUMP JUMPDEST CALLDATASIZE PUSH0 DUP4 DUP4 SWAP2 POP SWAP2 POP SWAP3 POP SWAP3 SWAP1 POP JUMP JUMPDEST PUSH0 DUP1 PUSH1 0x60 PUSH0 CALLER SWAP1 POP PUSH0 NUMBER SWAP1 POP PUSH0 DUP1 CALLDATASIZE DUP1 DUP1 PUSH1 0x1F ADD PUSH1 0x20 DUP1 SWAP2 DIV MUL PUSH1 0x20 ADD PUSH1 0x40 MLOAD SWAP1 DUP2 ADD PUSH1 0x40 MSTORE DUP1 SWAP4 SWAP3 SWAP2 SWAP1 DUP2 DUP2 MSTORE PUSH1 0x20 ADD DUP4 DUP4 DUP1 DUP3 DUP5 CALLDATACOPY PUSH0 DUP2 DUP5 ADD MSTORE PUSH1 0x1F NOT PUSH1 0x1F DUP3 ADD AND SWAP1 POP DUP1 DUP4 ADD SWAP3 POP POP POP POP POP POP POP SWAP1 POP DUP3 DUP3 DUP3 SWAP6 POP SWAP6 POP SWAP6 POP POP POP POP SWAP1 SWAP2 SWAP3 JUMP JUMPDEST PUSH0 PUSH3 0x15180 DUP1 EQ PUSH2 0x315 JUMPI PUSH2 0x314 PUSH2 0x664 JUMP JUMPDEST JUMPDEST PUSH3 0x15180 DUP1 EQ PUSH2 0x328 JUMPI PUSH2 0x327 PUSH2 0x664 JUMP JUMPDEST JUMPDEST PUSH3 0x15180 SWAP1 POP SWAP1 JUMP JUMPDEST PUSH0 PUSH4 0x3B9ACA00 DUP1 EQ PUSH2 0x346 JUMPI PUSH2 0x345 PUSH2 0x664 JUMP JUMPDEST JUMPDEST PUSH4 0x3B9ACA00 DUP1 EQ PUSH2 0x35A JUMPI PUSH2 0x359 PUSH2 0x664 JUMP JUMPDEST JUMPDEST PUSH4 0x3B9ACA00 SWAP1 POP SWAP1 JUMP JUMPDEST PUSH0 PUSH2 0xE10 DUP1 EQ PUSH2 0x377 JUMPI PUSH2 0x376 PUSH2 0x664 JUMP JUMPDEST JUMPDEST PUSH2 0xE10 DUP1 EQ PUSH2 0x389 JUMPI PUSH2 0x388 PUSH2 0x664 JUMP JUMPDEST JUMPDEST PUSH2 0xE10 SWAP1 POP SWAP1 JUMP JUMPDEST PUSH0 PUSH8 0xDE0B6B3A7640000 DUP1 EQ PUSH2 0x3AA JUMPI PUSH2 0x3A9 PUSH2 0x664 JUMP JUMPDEST JUMPDEST PUSH8 0xDE0B6B3A7640000 DUP1 EQ PUSH2 0x3C2 JUMPI PUSH2 0x3C1 PUSH2 0x664 JUMP JUMPDEST JUMPDEST PUSH8 0xDE0B6B3A7640000 SWAP1 POP SWAP1 JUMP JUMPDEST PUSH0 PUSH1 0x3C DUP1 EQ PUSH2 0x3E2 JUMPI PUSH2 0x3E1 PUSH2 0x664 JUMP JUMPDEST JUMPDEST PUSH1 0x3C DUP1 EQ PUSH2 0x3F3 JUMPI PUSH2 0x3F2 PUSH2 0x664 JUMP JUMPDEST JUMPDEST PUSH1 0x3C SWAP1 POP SWAP1 JUMP JUMPDEST PUSH0 DUP2 SWAP1 POP SWAP2 SWAP1 POP JUMP JUMPDEST PUSH2 0x40C DUP2 PUSH2 0x3FA JUMP JUMPDEST DUP3 MSTORE POP POP JUMP JUMPDEST PUSH0 PUSH1 0x20 DUP3 ADD SWAP1 POP PUSH2 0x425 PUSH0 DUP4 ADD DUP5 PUSH2 0x403 JUMP JUMPDEST SWAP3 SWAP2 POP POP JUMP JUMPDEST PUSH0 DUP1 REVERT JUMPDEST PUSH0 DUP1 REVERT JUMPDEST PUSH0 DUP1 REVERT JUMPDEST PUSH0 DUP1 REVERT JUMPDEST PUSH0 DUP1 REVERT JUMPDEST PUSH0 DUP1 DUP4 PUSH1 0x1F DUP5 ADD SLT PUSH2 0x454 JUMPI PUSH2 0x453 PUSH2 0x433 JUMP JUMPDEST JUMPDEST DUP3 CALLDATALOAD SWAP1 POP PUSH8 0xFFFFFFFFFFFFFFFF DUP2 GT ISZERO PUSH2 0x471 JUMPI PUSH2 0x470 PUSH2 0x437 JUMP JUMPDEST JUMPDEST PUSH1 0x20 DUP4 ADD SWAP2 POP DUP4 PUSH1 0x20 DUP3 MUL DUP4 ADD GT ISZERO PUSH2 0x48D JUMPI PUSH2 0x48C PUSH2 0x43B JUMP JUMPDEST JUMPDEST SWAP3 POP SWAP3 SWAP1 POP JUMP JUMPDEST PUSH0 DUP1 PUSH1 0x20 DUP4 DUP6 SUB SLT ISZERO PUSH2 0x4AA JUMPI PUSH2 0x4A9 PUSH2 0x42B JUMP JUMPDEST JUMPDEST PUSH0 DUP4 ADD CALLDATALOAD PUSH8 0xFFFFFFFFFFFFFFFF DUP2 GT ISZERO PUSH2 0x4C7 JUMPI PUSH2 0x4C6 PUSH2 0x42F JUMP JUMPDEST JUMPDEST PUSH2 0x4D3 DUP6 DUP3 DUP7 ADD PUSH2 0x43F JUMP JUMPDEST SWAP3 POP SWAP3 POP POP SWAP3 POP SWAP3 SWAP1 POP JUMP JUMPDEST PUSH0 DUP3 DUP3 MSTORE PUSH1 0x20 DUP3 ADD SWAP1 POP SWAP3 SWAP2 POP POP JUMP JUMPDEST PUSH0 DUP1 REVERT JUMPDEST DUP3 DUP2 DUP4 CALLDATACOPY POP POP POP JUMP JUMPDEST PUSH0 PUSH2 0x507 DUP4 DUP6 PUSH2 0x4DF JUMP JUMPDEST SWAP4 POP PUSH32 0x7FFFFFFFFFFFFFFFFFFFFFFFFFFFFFFFFFFFFFFFFFFFFFFFFFFFFFFFFFFFFFF DUP4 GT ISZERO PUSH2 0x53A JUMPI PUSH2 0x539 PUSH2 0x4EF JUMP JUMPDEST JUMPDEST PUSH1 0x20 DUP4 MUL SWAP3 POP PUSH2 0x54B DUP4 DUP6 DUP5 PUSH2 0x4F3 JUMP JUMPDEST DUP3 DUP5 ADD SWAP1 POP SWAP4 SWAP3 POP POP POP JUMP JUMPDEST PUSH0 PUSH1 0x20 DUP3 ADD SWAP1 POP DUP2 DUP2 SUB PUSH0 DUP4 ADD MSTORE PUSH2 0x570 DUP2 DUP5 DUP7 PUSH2 0x4FC JUMP JUMPDEST SWAP1 POP SWAP4 SWAP3 POP POP POP JUMP JUMPDEST PUSH0 PUSH20 0xFFFFFFFFFFFFFFFFFFFFFFFFFFFFFFFFFFFFFFFF DUP3 AND SWAP1 POP SWAP2 SWAP1 POP JUMP JUMPDEST PUSH0 PUSH2 0x5A2 DUP3 PUSH2 0x579 JUMP JUMPDEST SWAP1 POP SWAP2 SWAP1 POP JUMP JUMPDEST PUSH2 0x5B2 DUP2 PUSH2 0x598 JUMP JUMPDEST DUP3 MSTORE POP POP JUMP JUMPDEST PUSH0 DUP2 MLOAD SWAP1 POP SWAP2 SWAP1 POP JUMP JUMPDEST PUSH0 DUP3 DUP3 MSTORE PUSH1 0x20 DUP3 ADD SWAP1 POP SWAP3 SWAP2 POP POP JUMP JUMPDEST DUP3 DUP2 DUP4 MCOPY PUSH0 DUP4 DUP4 ADD MSTORE POP POP POP JUMP JUMPDEST PUSH0 PUSH1 0x1F NOT PUSH1 0x1F DUP4 ADD AND SWAP1 POP SWAP2 SWAP1 POP JUMP JUMPDEST PUSH0 PUSH2 0x5FA DUP3 PUSH2 0x5B8 JUMP JUMPDEST PUSH2 0x604 DUP2 DUP6 PUSH2 0x5C2 JUMP JUMPDEST SWAP4 POP PUSH2 0x614 DUP2 DUP6 PUSH1 0x20 DUP7 ADD PUSH2 0x5D2 JUMP JUMPDEST PUSH2 0x61D DUP2 PUSH2 0x5E0 JUMP JUMPDEST DUP5 ADD SWAP2 POP POP SWAP3 SWAP2 POP POP JUMP JUMPDEST PUSH0 PUSH1 0x60 DUP3 ADD SWAP1 POP PUSH2 0x63B PUSH0 DUP4 ADD DUP7 PUSH2 0x5A9 JUMP JUMPDEST PUSH2 0x648 PUSH1 0x20 DUP4 ADD DUP6 PUSH2 0x403 JUMP JUMPDEST DUP2 DUP2 SUB PUSH1 0x40 DUP4 ADD MSTORE PUSH2 0x65A DUP2 DUP5 PUSH2 0x5F0 JUMP JUMPDEST SWAP1 POP SWAP5 SWAP4 POP POP POP POP JUMP JUMPDEST PUSH32 0x4E487B7100000000000000000000000000000000000000000000000000000000 PUSH0 MSTORE PUSH1 0x1 PUSH1 0x4 MSTORE PUSH1 0x24 PUSH0 REVERT JUMPDEST PUSH32 0x4E487B7100000000000000000000000000000000000000000000000000000000 PUSH0 MSTORE PUSH1 0x32 PUSH1 0x4 MSTORE PUSH1 0x24 PUSH0 REVERT INVALID LOG2 PUSH5 0x6970667358 0x22 SLT KECCAK256 DUP7 CALLER CALLDATASIZE 0xCD 0xCB 0xD4 TIMESTAMP 0xDA 0xB4 DUP16 DUP1 0xAE 0xB4 0xC2 0xAD BALANCE SAR ADD JUMPI 0x4E LOG3 0x24 DUP8 CALL 0xC0 PUSH5 0xAEDB773B7E 0xB6 PUSH5 0x736F6C6343 STOP ADDMOD BYTE STOP CALLER "
				},
				"gasEstimates": {
					"creation": {
						"codeDepositCost": "356000",
						"executionCost": "infinite",
						"totalCost": "infinite"
					},
					"external": {
						"daysUnit()": "400",
						"etherUnit()": "466",
						"fStorage()": "24505",
						"fcalldata(uint256[])": "infinite",
						"global()": "infinite",
						"gweiUnit()": "422",
						"hoursUnit()": "444",
						"minutesUnit()": "488",
						"secondsUnit()": "356",
						"weeksUnit()": "423",
						"weiUnit()": "401"
					}
				},
				"methodIdentifiers": {
					"daysUnit()": "a0d0d59e",
					"etherUnit()": "cb9f1220",
					"fStorage()": "6a8d1e08",
					"fcalldata(uint256[])": "9a657789",
					"global()": "a05f9906",
					"gweiUnit()": "aec3d640",
					"hoursUnit()": "be44f864",
					"minutesUnit()": "f1e6d198",
					"secondsUnit()": "09879682",
					"weeksUnit()": "2aca45f1",
					"weiUnit()": "12176349"
				}
			},
			"storageLayout": {
				"storage": [
					{
						"astId": 21,
						"contract": "tests/变量数据存储和作用域1.sol:VariableData",
						"label": "x",
						"offset": 0,
						"slot": "0",
						"type": "t_array(t_uint256)dyn_storage"
					}
				],
				"types": {
					"t_array(t_uint256)dyn_storage": {
						"base": "t_uint256",
						"encoding": "dynamic_array",
						"label": "uint256[]",
						"numberOfBytes": "32"
					},
					"t_uint256": {
						"encoding": "inplace",
						"label": "uint256",
						"numberOfBytes": "32"
					}
				}
			},
			"userdoc": {
				"kind": "user",
				"methods": {},
				"version": 1
			}
		}
	}
}