{
	"tests/12事件.sol": {
		"Event": {
			"abi": [
				{
					"anonymous": false,
					"inputs": [
						{
							"indexed": true,
							"internalType": "address",
							"name": "from",
							"type": "address"
						},
						{
							"indexed": true,
							"internalType": "address",
							"name": "to",
							"type": "address"
						},
						{
							"indexed": false,
							"internalType": "uint256",
							"name": "value",
							"type": "uint256"
						}
					],
					"name": "Transfer",
					"type": "event"
				},
				{
					"inputs": [
						{
							"internalType": "address",
							"name": "from",
							"type": "address"
						},
						{
							"internalType": "address",
							"name": "to",
							"type": "address"
						},
						{
							"internalType": "uint256",
							"name": "amount",
							"type": "uint256"
						}
					],
					"name": "_transfer",
					"outputs": [],
					"stateMutability": "nonpayable",
					"type": "function"
				}
			],
			"devdoc": {
				"kind": "dev",
				"methods": {},
				"version": 1
			},
			"evm": {
				"assembly": "    /* \"tests/12\\xe4\\xba\\x8b\\xe4\\xbb\\xb6.sol\":61:883  contract  Event {... */\n  mstore(0x40, 0x80)\n  callvalue\n  dup1\n  iszero\n  tag_1\n  jumpi\n  0x00\n  dup1\n  revert\ntag_1:\n  pop\n  dataSize(sub_0)\n  dup1\n  dataOffset(sub_0)\n  0x00\n  codecopy\n  0x00\n  return\nstop\n\nsub_0: assembly {\n        /* \"tests/12\\xe4\\xba\\x8b\\xe4\\xbb\\xb6.sol\":61:883  contract  Event {... */\n      mstore(0x40, 0x80)\n      callvalue\n      dup1\n      iszero\n      tag_1\n      jumpi\n      0x00\n      dup1\n      revert\n    tag_1:\n      pop\n      jumpi(tag_2, lt(calldatasize, 0x04))\n      shr(0xe0, calldataload(0x00))\n      dup1\n      0x30e0789e\n      eq\n      tag_3\n      jumpi\n    tag_2:\n      0x00\n      dup1\n      revert\n        /* \"tests/12\\xe4\\xba\\x8b\\xe4\\xbb\\xb6.sol\":484:876  function _transfer(... */\n    tag_3:\n      tag_4\n      0x04\n      dup1\n      calldatasize\n      sub\n      dup2\n      add\n      swap1\n      tag_5\n      swap2\n      swap1\n      tag_6\n      jump\t// in\n    tag_5:\n      tag_7\n      jump\t// in\n    tag_4:\n      stop\n    tag_7:\n        /* \"tests/12\\xe4\\xba\\x8b\\xe4\\xbb\\xb6.sol\":619:627  10000000 */\n      0x989680\n        /* \"tests/12\\xe4\\xba\\x8b\\xe4\\xbb\\xb6.sol\":601:610  _balances */\n      0x00\n        /* \"tests/12\\xe4\\xba\\x8b\\xe4\\xbb\\xb6.sol\":601:616  _balances[from] */\n      dup1\n        /* \"tests/12\\xe4\\xba\\x8b\\xe4\\xbb\\xb6.sol\":611:615  from */\n      dup6\n        /* \"tests/12\\xe4\\xba\\x8b\\xe4\\xbb\\xb6.sol\":601:616  _balances[from] */\n      0xffffffffffffffffffffffffffffffffffffffff\n      and\n      0xffffffffffffffffffffffffffffffffffffffff\n      and\n      dup2\n      mstore\n      0x20\n      add\n      swap1\n      dup2\n      mstore\n      0x20\n      add\n      0x00\n      keccak256\n        /* \"tests/12\\xe4\\xba\\x8b\\xe4\\xbb\\xb6.sol\":601:627  _balances[from] = 10000000 */\n      dup2\n      swap1\n      sstore\n      pop\n        /* \"tests/12\\xe4\\xba\\x8b\\xe4\\xbb\\xb6.sol\":697:703  amount */\n      dup1\n        /* \"tests/12\\xe4\\xba\\x8b\\xe4\\xbb\\xb6.sol\":677:686  _balances */\n      0x00\n        /* \"tests/12\\xe4\\xba\\x8b\\xe4\\xbb\\xb6.sol\":677:692  _balances[from] */\n      dup1\n        /* \"tests/12\\xe4\\xba\\x8b\\xe4\\xbb\\xb6.sol\":687:691  from */\n      dup6\n        /* \"tests/12\\xe4\\xba\\x8b\\xe4\\xbb\\xb6.sol\":677:692  _balances[from] */\n      0xffffffffffffffffffffffffffffffffffffffff\n      and\n      0xffffffffffffffffffffffffffffffffffffffff\n      and\n      dup2\n      mstore\n      0x20\n      add\n      swap1\n      dup2\n      mstore\n      0x20\n      add\n      0x00\n      keccak256\n      0x00\n        /* \"tests/12\\xe4\\xba\\x8b\\xe4\\xbb\\xb6.sol\":677:703  _balances[from] -=  amount */\n      dup3\n      dup3\n      sload\n      tag_9\n      swap2\n      swap1\n      tag_10\n      jump\t// in\n    tag_9:\n      swap3\n      pop\n      pop\n      dup2\n      swap1\n      sstore\n      pop\n        /* \"tests/12\\xe4\\xba\\x8b\\xe4\\xbb\\xb6.sol\":763:769  amount */\n      dup1\n        /* \"tests/12\\xe4\\xba\\x8b\\xe4\\xbb\\xb6.sol\":746:755  _balances */\n      0x00\n        /* \"tests/12\\xe4\\xba\\x8b\\xe4\\xbb\\xb6.sol\":746:759  _balances[to] */\n      dup1\n        /* \"tests/12\\xe4\\xba\\x8b\\xe4\\xbb\\xb6.sol\":756:758  to */\n      dup5\n        /* \"tests/12\\xe4\\xba\\x8b\\xe4\\xbb\\xb6.sol\":746:759  _balances[to] */\n      0xffffffffffffffffffffffffffffffffffffffff\n      and\n      0xffffffffffffffffffffffffffffffffffffffff\n      and\n      dup2\n      mstore\n      0x20\n      add\n      swap1\n      dup2\n      mstore\n      0x20\n      add\n      0x00\n      keccak256\n      0x00\n        /* \"tests/12\\xe4\\xba\\x8b\\xe4\\xbb\\xb6.sol\":746:769  _balances[to] += amount */\n      dup3\n      dup3\n      sload\n      tag_11\n      swap2\n      swap1\n      tag_12\n      jump\t// in\n    tag_11:\n      swap3\n      pop\n      pop\n      dup2\n      swap1\n      sstore\n      pop\n        /* \"tests/12\\xe4\\xba\\x8b\\xe4\\xbb\\xb6.sol\":857:859  to */\n      dup2\n        /* \"tests/12\\xe4\\xba\\x8b\\xe4\\xbb\\xb6.sol\":842:868  Transfer(from, to, amount) */\n      0xffffffffffffffffffffffffffffffffffffffff\n      and\n        /* \"tests/12\\xe4\\xba\\x8b\\xe4\\xbb\\xb6.sol\":851:855  from */\n      dup4\n        /* \"tests/12\\xe4\\xba\\x8b\\xe4\\xbb\\xb6.sol\":842:868  Transfer(from, to, amount) */\n      0xffffffffffffffffffffffffffffffffffffffff\n      and\n      0xddf252ad1be2c89b69c2b068fc378daa952ba7f163c4a11628f55a4df523b3ef\n        /* \"tests/12\\xe4\\xba\\x8b\\xe4\\xbb\\xb6.sol\":861:867  amount */\n      dup4\n        /* \"tests/12\\xe4\\xba\\x8b\\xe4\\xbb\\xb6.sol\":842:868  Transfer(from, to, amount) */\n      mload(0x40)\n      tag_13\n      swap2\n      swap1\n      tag_14\n      jump\t// in\n    tag_13:\n      mload(0x40)\n      dup1\n      swap2\n      sub\n      swap1\n      log3\n        /* \"tests/12\\xe4\\xba\\x8b\\xe4\\xbb\\xb6.sol\":484:876  function _transfer(... */\n      pop\n      pop\n      pop\n      jump\t// out\n        /* \"#utility.yul\":88:205   */\n    tag_16:\n        /* \"#utility.yul\":197:198   */\n      0x00\n        /* \"#utility.yul\":194:195   */\n      dup1\n        /* \"#utility.yul\":187:199   */\n      revert\n        /* \"#utility.yul\":334:460   */\n    tag_18:\n        /* \"#utility.yul\":371:378   */\n      0x00\n        /* \"#utility.yul\":411:453   */\n      0xffffffffffffffffffffffffffffffffffffffff\n        /* \"#utility.yul\":404:409   */\n      dup3\n        /* \"#utility.yul\":400:454   */\n      and\n        /* \"#utility.yul\":389:454   */\n      swap1\n      pop\n        /* \"#utility.yul\":334:460   */\n      swap2\n      swap1\n      pop\n      jump\t// out\n        /* \"#utility.yul\":466:562   */\n    tag_19:\n        /* \"#utility.yul\":503:510   */\n      0x00\n        /* \"#utility.yul\":532:556   */\n      tag_33\n        /* \"#utility.yul\":550:555   */\n      dup3\n        /* \"#utility.yul\":532:556   */\n      tag_18\n      jump\t// in\n    tag_33:\n        /* \"#utility.yul\":521:556   */\n      swap1\n      pop\n        /* \"#utility.yul\":466:562   */\n      swap2\n      swap1\n      pop\n      jump\t// out\n        /* \"#utility.yul\":568:690   */\n    tag_20:\n        /* \"#utility.yul\":641:665   */\n      tag_35\n        /* \"#utility.yul\":659:664   */\n      dup2\n        /* \"#utility.yul\":641:665   */\n      tag_19\n      jump\t// in\n    tag_35:\n        /* \"#utility.yul\":634:639   */\n      dup2\n        /* \"#utility.yul\":631:666   */\n      eq\n        /* \"#utility.yul\":621:684   */\n      tag_36\n      jumpi\n        /* \"#utility.yul\":680:681   */\n      0x00\n        /* \"#utility.yul\":677:678   */\n      dup1\n        /* \"#utility.yul\":670:682   */\n      revert\n        /* \"#utility.yul\":621:684   */\n    tag_36:\n        /* \"#utility.yul\":568:690   */\n      pop\n      jump\t// out\n        /* \"#utility.yul\":696:835   */\n    tag_21:\n        /* \"#utility.yul\":742:747   */\n      0x00\n        /* \"#utility.yul\":780:786   */\n      dup2\n        /* \"#utility.yul\":767:787   */\n      calldataload\n        /* \"#utility.yul\":758:787   */\n      swap1\n      pop\n        /* \"#utility.yul\":796:829   */\n      tag_38\n        /* \"#utility.yul\":823:828   */\n      dup2\n        /* \"#utility.yul\":796:829   */\n      tag_20\n      jump\t// in\n    tag_38:\n        /* \"#utility.yul\":696:835   */\n      swap3\n      swap2\n      pop\n      pop\n      jump\t// out\n        /* \"#utility.yul\":841:918   */\n    tag_22:\n        /* \"#utility.yul\":878:885   */\n      0x00\n        /* \"#utility.yul\":907:912   */\n      dup2\n        /* \"#utility.yul\":896:912   */\n      swap1\n      pop\n        /* \"#utility.yul\":841:918   */\n      swap2\n      swap1\n      pop\n      jump\t// out\n        /* \"#utility.yul\":924:1046   */\n    tag_23:\n        /* \"#utility.yul\":997:1021   */\n      tag_41\n        /* \"#utility.yul\":1015:1020   */\n      dup2\n        /* \"#utility.yul\":997:1021   */\n      tag_22\n      jump\t// in\n    tag_41:\n        /* \"#utility.yul\":990:995   */\n      dup2\n        /* \"#utility.yul\":987:1022   */\n      eq\n        /* \"#utility.yul\":977:1040   */\n      tag_42\n      jumpi\n        /* \"#utility.yul\":1036:1037   */\n      0x00\n        /* \"#utility.yul\":1033:1034   */\n      dup1\n        /* \"#utility.yul\":1026:1038   */\n      revert\n        /* \"#utility.yul\":977:1040   */\n    tag_42:\n        /* \"#utility.yul\":924:1046   */\n      pop\n      jump\t// out\n        /* \"#utility.yul\":1052:1191   */\n    tag_24:\n        /* \"#utility.yul\":1098:1103   */\n      0x00\n        /* \"#utility.yul\":1136:1142   */\n      dup2\n        /* \"#utility.yul\":1123:1143   */\n      calldataload\n        /* \"#utility.yul\":1114:1143   */\n      swap1\n      pop\n        /* \"#utility.yul\":1152:1185   */\n      tag_44\n        /* \"#utility.yul\":1179:1184   */\n      dup2\n        /* \"#utility.yul\":1152:1185   */\n      tag_23\n      jump\t// in\n    tag_44:\n        /* \"#utility.yul\":1052:1191   */\n      swap3\n      swap2\n      pop\n      pop\n      jump\t// out\n        /* \"#utility.yul\":1197:1816   */\n    tag_6:\n        /* \"#utility.yul\":1274:1280   */\n      0x00\n        /* \"#utility.yul\":1282:1288   */\n      dup1\n        /* \"#utility.yul\":1290:1296   */\n      0x00\n        /* \"#utility.yul\":1339:1341   */\n      0x60\n        /* \"#utility.yul\":1327:1336   */\n      dup5\n        /* \"#utility.yul\":1318:1325   */\n      dup7\n        /* \"#utility.yul\":1314:1337   */\n      sub\n        /* \"#utility.yul\":1310:1342   */\n      slt\n        /* \"#utility.yul\":1307:1426   */\n      iszero\n      tag_46\n      jumpi\n        /* \"#utility.yul\":1345:1424   */\n      tag_47\n      tag_16\n      jump\t// in\n    tag_47:\n        /* \"#utility.yul\":1307:1426   */\n    tag_46:\n        /* \"#utility.yul\":1465:1466   */\n      0x00\n        /* \"#utility.yul\":1490:1543   */\n      tag_48\n        /* \"#utility.yul\":1535:1542   */\n      dup7\n        /* \"#utility.yul\":1526:1532   */\n      dup3\n        /* \"#utility.yul\":1515:1524   */\n      dup8\n        /* \"#utility.yul\":1511:1533   */\n      add\n        /* \"#utility.yul\":1490:1543   */\n      tag_21\n      jump\t// in\n    tag_48:\n        /* \"#utility.yul\":1480:1543   */\n      swap4\n      pop\n        /* \"#utility.yul\":1436:1553   */\n      pop\n        /* \"#utility.yul\":1592:1594   */\n      0x20\n        /* \"#utility.yul\":1618:1671   */\n      tag_49\n        /* \"#utility.yul\":1663:1670   */\n      dup7\n        /* \"#utility.yul\":1654:1660   */\n      dup3\n        /* \"#utility.yul\":1643:1652   */\n      dup8\n        /* \"#utility.yul\":1639:1661   */\n      add\n        /* \"#utility.yul\":1618:1671   */\n      tag_21\n      jump\t// in\n    tag_49:\n        /* \"#utility.yul\":1608:1671   */\n      swap3\n      pop\n        /* \"#utility.yul\":1563:1681   */\n      pop\n        /* \"#utility.yul\":1720:1722   */\n      0x40\n        /* \"#utility.yul\":1746:1799   */\n      tag_50\n        /* \"#utility.yul\":1791:1798   */\n      dup7\n        /* \"#utility.yul\":1782:1788   */\n      dup3\n        /* \"#utility.yul\":1771:1780   */\n      dup8\n        /* \"#utility.yul\":1767:1789   */\n      add\n        /* \"#utility.yul\":1746:1799   */\n      tag_24\n      jump\t// in\n    tag_50:\n        /* \"#utility.yul\":1736:1799   */\n      swap2\n      pop\n        /* \"#utility.yul\":1691:1809   */\n      pop\n        /* \"#utility.yul\":1197:1816   */\n      swap3\n      pop\n      swap3\n      pop\n      swap3\n      jump\t// out\n        /* \"#utility.yul\":1822:2002   */\n    tag_25:\n        /* \"#utility.yul\":1870:1947   */\n      0x4e487b7100000000000000000000000000000000000000000000000000000000\n        /* \"#utility.yul\":1867:1868   */\n      0x00\n        /* \"#utility.yul\":1860:1948   */\n      mstore\n        /* \"#utility.yul\":1967:1971   */\n      0x11\n        /* \"#utility.yul\":1964:1965   */\n      0x04\n        /* \"#utility.yul\":1957:1972   */\n      mstore\n        /* \"#utility.yul\":1991:1995   */\n      0x24\n        /* \"#utility.yul\":1988:1989   */\n      0x00\n        /* \"#utility.yul\":1981:1996   */\n      revert\n        /* \"#utility.yul\":2008:2202   */\n    tag_10:\n        /* \"#utility.yul\":2048:2052   */\n      0x00\n        /* \"#utility.yul\":2068:2088   */\n      tag_53\n        /* \"#utility.yul\":2086:2087   */\n      dup3\n        /* \"#utility.yul\":2068:2088   */\n      tag_22\n      jump\t// in\n    tag_53:\n        /* \"#utility.yul\":2063:2088   */\n      swap2\n      pop\n        /* \"#utility.yul\":2102:2122   */\n      tag_54\n        /* \"#utility.yul\":2120:2121   */\n      dup4\n        /* \"#utility.yul\":2102:2122   */\n      tag_22\n      jump\t// in\n    tag_54:\n        /* \"#utility.yul\":2097:2122   */\n      swap3\n      pop\n        /* \"#utility.yul\":2146:2147   */\n      dup3\n        /* \"#utility.yul\":2143:2144   */\n      dup3\n        /* \"#utility.yul\":2139:2148   */\n      sub\n        /* \"#utility.yul\":2131:2148   */\n      swap1\n      pop\n        /* \"#utility.yul\":2170:2171   */\n      dup2\n        /* \"#utility.yul\":2164:2168   */\n      dup2\n        /* \"#utility.yul\":2161:2172   */\n      gt\n        /* \"#utility.yul\":2158:2195   */\n      iszero\n      tag_55\n      jumpi\n        /* \"#utility.yul\":2175:2193   */\n      tag_56\n      tag_25\n      jump\t// in\n    tag_56:\n        /* \"#utility.yul\":2158:2195   */\n    tag_55:\n        /* \"#utility.yul\":2008:2202   */\n      swap3\n      swap2\n      pop\n      pop\n      jump\t// out\n        /* \"#utility.yul\":2208:2399   */\n    tag_12:\n        /* \"#utility.yul\":2248:2251   */\n      0x00\n        /* \"#utility.yul\":2267:2287   */\n      tag_58\n        /* \"#utility.yul\":2285:2286   */\n      dup3\n        /* \"#utility.yul\":2267:2287   */\n      tag_22\n      jump\t// in\n    tag_58:\n        /* \"#utility.yul\":2262:2287   */\n      swap2\n      pop\n        /* \"#utility.yul\":2301:2321   */\n      tag_59\n        /* \"#utility.yul\":2319:2320   */\n      dup4\n        /* \"#utility.yul\":2301:2321   */\n      tag_22\n      jump\t// in\n    tag_59:\n        /* \"#utility.yul\":2296:2321   */\n      swap3\n      pop\n        /* \"#utility.yul\":2344:2345   */\n      dup3\n        /* \"#utility.yul\":2341:2342   */\n      dup3\n        /* \"#utility.yul\":2337:2346   */\n      add\n        /* \"#utility.yul\":2330:2346   */\n      swap1\n      pop\n        /* \"#utility.yul\":2365:2368   */\n      dup1\n        /* \"#utility.yul\":2362:2363   */\n      dup3\n        /* \"#utility.yul\":2359:2369   */\n      gt\n        /* \"#utility.yul\":2356:2392   */\n      iszero\n      tag_60\n      jumpi\n        /* \"#utility.yul\":2372:2390   */\n      tag_61\n      tag_25\n      jump\t// in\n    tag_61:\n        /* \"#utility.yul\":2356:2392   */\n    tag_60:\n        /* \"#utility.yul\":2208:2399   */\n      swap3\n      swap2\n      pop\n      pop\n      jump\t// out\n        /* \"#utility.yul\":2405:2523   */\n    tag_26:\n        /* \"#utility.yul\":2492:2516   */\n      tag_63\n        /* \"#utility.yul\":2510:2515   */\n      dup2\n        /* \"#utility.yul\":2492:2516   */\n      tag_22\n      jump\t// in\n    tag_63:\n        /* \"#utility.yul\":2487:2490   */\n      dup3\n        /* \"#utility.yul\":2480:2517   */\n      mstore\n        /* \"#utility.yul\":2405:2523   */\n      pop\n      pop\n      jump\t// out\n        /* \"#utility.yul\":2529:2751   */\n    tag_14:\n        /* \"#utility.yul\":2622:2626   */\n      0x00\n        /* \"#utility.yul\":2660:2662   */\n      0x20\n        /* \"#utility.yul\":2649:2658   */\n      dup3\n        /* \"#utility.yul\":2645:2663   */\n      add\n        /* \"#utility.yul\":2637:2663   */\n      swap1\n      pop\n        /* \"#utility.yul\":2673:2744   */\n      tag_65\n        /* \"#utility.yul\":2741:2742   */\n      0x00\n        /* \"#utility.yul\":2730:2739   */\n      dup4\n        /* \"#utility.yul\":2726:2743   */\n      add\n        /* \"#utility.yul\":2717:2723   */\n      dup5\n        /* \"#utility.yul\":2673:2744   */\n      tag_26\n      jump\t// in\n    tag_65:\n        /* \"#utility.yul\":2529:2751   */\n      swap3\n      swap2\n      pop\n      pop\n      jump\t// out\n\n    auxdata: 0xa26469706673582212200a3e8765fe0e91b11f3eb6b656aed0eb3a03ce0808f4c073f010622cf2010b4564736f6c634300081a0033\n}\n",
				"bytecode": {
					"linkReferences": {},
					"object": "6080604052348015600e575f80fd5b5061036d8061001c5f395ff3fe608060405234801561000f575f80fd5b5060043610610029575f3560e01c806330e0789e1461002d575b5f80fd5b6100476004803603810190610042919061022c565b610049565b005b629896805f808573ffffffffffffffffffffffffffffffffffffffff1673ffffffffffffffffffffffffffffffffffffffff1681526020019081526020015f2081905550805f808573ffffffffffffffffffffffffffffffffffffffff1673ffffffffffffffffffffffffffffffffffffffff1681526020019081526020015f205f8282546100d891906102a9565b92505081905550805f808473ffffffffffffffffffffffffffffffffffffffff1673ffffffffffffffffffffffffffffffffffffffff1681526020019081526020015f205f82825461012a91906102dc565b925050819055508173ffffffffffffffffffffffffffffffffffffffff168373ffffffffffffffffffffffffffffffffffffffff167fddf252ad1be2c89b69c2b068fc378daa952ba7f163c4a11628f55a4df523b3ef8360405161018e919061031e565b60405180910390a3505050565b5f80fd5b5f73ffffffffffffffffffffffffffffffffffffffff82169050919050565b5f6101c88261019f565b9050919050565b6101d8816101be565b81146101e2575f80fd5b50565b5f813590506101f3816101cf565b92915050565b5f819050919050565b61020b816101f9565b8114610215575f80fd5b50565b5f8135905061022681610202565b92915050565b5f805f606084860312156102435761024261019b565b5b5f610250868287016101e5565b9350506020610261868287016101e5565b925050604061027286828701610218565b9150509250925092565b7f4e487b71000000000000000000000000000000000000000000000000000000005f52601160045260245ffd5b5f6102b3826101f9565b91506102be836101f9565b92508282039050818111156102d6576102d561027c565b5b92915050565b5f6102e6826101f9565b91506102f1836101f9565b92508282019050808211156103095761030861027c565b5b92915050565b610318816101f9565b82525050565b5f6020820190506103315f83018461030f565b9291505056fea26469706673582212200a3e8765fe0e91b11f3eb6b656aed0eb3a03ce0808f4c073f010622cf2010b4564736f6c634300081a0033",
					"opcodes": "PUSH1 0x80 PUSH1 0x40 MSTORE CALLVALUE DUP1 ISZERO PUSH1 0xE JUMPI PUSH0 DUP1 REVERT JUMPDEST POP PUSH2 0x36D DUP1 PUSH2 0x1C PUSH0 CODECOPY PUSH0 RETURN INVALID PUSH1 0x80 PUSH1 0x40 MSTORE CALLVALUE DUP1 ISZERO PUSH2 0xF JUMPI PUSH0 DUP1 REVERT JUMPDEST POP PUSH1 0x4 CALLDATASIZE LT PUSH2 0x29 JUMPI PUSH0 CALLDATALOAD PUSH1 0xE0 SHR DUP1 PUSH4 0x30E0789E EQ PUSH2 0x2D JUMPI JUMPDEST PUSH0 DUP1 REVERT JUMPDEST PUSH2 0x47 PUSH1 0x4 DUP1 CALLDATASIZE SUB DUP2 ADD SWAP1 PUSH2 0x42 SWAP2 SWAP1 PUSH2 0x22C JUMP JUMPDEST PUSH2 0x49 JUMP JUMPDEST STOP JUMPDEST PUSH3 0x989680 PUSH0 DUP1 DUP6 PUSH20 0xFFFFFFFFFFFFFFFFFFFFFFFFFFFFFFFFFFFFFFFF AND PUSH20 0xFFFFFFFFFFFFFFFFFFFFFFFFFFFFFFFFFFFFFFFF AND DUP2 MSTORE PUSH1 0x20 ADD SWAP1 DUP2 MSTORE PUSH1 0x20 ADD PUSH0 KECCAK256 DUP2 SWAP1 SSTORE POP DUP1 PUSH0 DUP1 DUP6 PUSH20 0xFFFFFFFFFFFFFFFFFFFFFFFFFFFFFFFFFFFFFFFF AND PUSH20 0xFFFFFFFFFFFFFFFFFFFFFFFFFFFFFFFFFFFFFFFF AND DUP2 MSTORE PUSH1 0x20 ADD SWAP1 DUP2 MSTORE PUSH1 0x20 ADD PUSH0 KECCAK256 PUSH0 DUP3 DUP3 SLOAD PUSH2 0xD8 SWAP2 SWAP1 PUSH2 0x2A9 JUMP JUMPDEST SWAP3 POP POP DUP2 SWAP1 SSTORE POP DUP1 PUSH0 DUP1 DUP5 PUSH20 0xFFFFFFFFFFFFFFFFFFFFFFFFFFFFFFFFFFFFFFFF AND PUSH20 0xFFFFFFFFFFFFFFFFFFFFFFFFFFFFFFFFFFFFFFFF AND DUP2 MSTORE PUSH1 0x20 ADD SWAP1 DUP2 MSTORE PUSH1 0x20 ADD PUSH0 KECCAK256 PUSH0 DUP3 DUP3 SLOAD PUSH2 0x12A SWAP2 SWAP1 PUSH2 0x2DC JUMP JUMPDEST SWAP3 POP POP DUP2 SWAP1 SSTORE POP DUP2 PUSH20 0xFFFFFFFFFFFFFFFFFFFFFFFFFFFFFFFFFFFFFFFF AND DUP4 PUSH20 0xFFFFFFFFFFFFFFFFFFFFFFFFFFFFFFFFFFFFFFFF AND PUSH32 0xDDF252AD1BE2C89B69C2B068FC378DAA952BA7F163C4A11628F55A4DF523B3EF DUP4 PUSH1 0x40 MLOAD PUSH2 0x18E SWAP2 SWAP1 PUSH2 0x31E JUMP JUMPDEST PUSH1 0x40 MLOAD DUP1 SWAP2 SUB SWAP1 LOG3 POP POP POP JUMP JUMPDEST PUSH0 DUP1 REVERT JUMPDEST PUSH0 PUSH20 0xFFFFFFFFFFFFFFFFFFFFFFFFFFFFFFFFFFFFFFFF DUP3 AND SWAP1 POP SWAP2 SWAP1 POP JUMP JUMPDEST PUSH0 PUSH2 0x1C8 DUP3 PUSH2 0x19F JUMP JUMPDEST SWAP1 POP SWAP2 SWAP1 POP JUMP JUMPDEST PUSH2 0x1D8 DUP2 PUSH2 0x1BE JUMP JUMPDEST DUP2 EQ PUSH2 0x1E2 JUMPI PUSH0 DUP1 REVERT JUMPDEST POP JUMP JUMPDEST PUSH0 DUP2 CALLDATALOAD SWAP1 POP PUSH2 0x1F3 DUP2 PUSH2 0x1CF JUMP JUMPDEST SWAP3 SWAP2 POP POP JUMP JUMPDEST PUSH0 DUP2 SWAP1 POP SWAP2 SWAP1 POP JUMP JUMPDEST PUSH2 0x20B DUP2 PUSH2 0x1F9 JUMP JUMPDEST DUP2 EQ PUSH2 0x215 JUMPI PUSH0 DUP1 REVERT JUMPDEST POP JUMP JUMPDEST PUSH0 DUP2 CALLDATALOAD SWAP1 POP PUSH2 0x226 DUP2 PUSH2 0x202 JUMP JUMPDEST SWAP3 SWAP2 POP POP JUMP JUMPDEST PUSH0 DUP1 PUSH0 PUSH1 0x60 DUP5 DUP7 SUB SLT ISZERO PUSH2 0x243 JUMPI PUSH2 0x242 PUSH2 0x19B JUMP JUMPDEST JUMPDEST PUSH0 PUSH2 0x250 DUP7 DUP3 DUP8 ADD PUSH2 0x1E5 JUMP JUMPDEST SWAP4 POP POP PUSH1 0x20 PUSH2 0x261 DUP7 DUP3 DUP8 ADD PUSH2 0x1E5 JUMP JUMPDEST SWAP3 POP POP PUSH1 0x40 PUSH2 0x272 DUP7 DUP3 DUP8 ADD PUSH2 0x218 JUMP JUMPDEST SWAP2 POP POP SWAP3 POP SWAP3 POP SWAP3 JUMP JUMPDEST PUSH32 0x4E487B7100000000000000000000000000000000000000000000000000000000 PUSH0 MSTORE PUSH1 0x11 PUSH1 0x4 MSTORE PUSH1 0x24 PUSH0 REVERT JUMPDEST PUSH0 PUSH2 0x2B3 DUP3 PUSH2 0x1F9 JUMP JUMPDEST SWAP2 POP PUSH2 0x2BE DUP4 PUSH2 0x1F9 JUMP JUMPDEST SWAP3 POP DUP3 DUP3 SUB SWAP1 POP DUP2 DUP2 GT ISZERO PUSH2 0x2D6 JUMPI PUSH2 0x2D5 PUSH2 0x27C JUMP JUMPDEST JUMPDEST SWAP3 SWAP2 POP POP JUMP JUMPDEST PUSH0 PUSH2 0x2E6 DUP3 PUSH2 0x1F9 JUMP JUMPDEST SWAP2 POP PUSH2 0x2F1 DUP4 PUSH2 0x1F9 JUMP JUMPDEST SWAP3 POP DUP3 DUP3 ADD SWAP1 POP DUP1 DUP3 GT ISZERO PUSH2 0x309 JUMPI PUSH2 0x308 PUSH2 0x27C JUMP JUMPDEST JUMPDEST SWAP3 SWAP2 POP POP JUMP JUMPDEST PUSH2 0x318 DUP2 PUSH2 0x1F9 JUMP JUMPDEST DUP3 MSTORE POP POP JUMP JUMPDEST PUSH0 PUSH1 0x20 DUP3 ADD SWAP1 POP PUSH2 0x331 PUSH0 DUP4 ADD DUP5 PUSH2 0x30F JUMP JUMPDEST SWAP3 SWAP2 POP POP JUMP INVALID LOG2 PUSH5 0x6970667358 0x22 SLT KECCAK256 EXP RETURNDATACOPY DUP8 PUSH6 0xFE0E91B11F3E 0xB6 0xB6 JUMP 0xAE 0xD0 0xEB GASPRICE SUB 0xCE ADDMOD ADDMOD DELEGATECALL 0xC0 PUSH20 0xF010622CF2010B4564736F6C634300081A003300 "
				},
				"gasEstimates": {
					"creation": {
						"codeDepositCost": "175400",
						"executionCost": "218",
						"totalCost": "175618"
					},
					"external": {
						"_transfer(address,address,uint256)": "infinite"
					}
				},
				"methodIdentifiers": {
					"_transfer(address,address,uint256)": "30e0789e"
				}
			},
			"storageLayout": {
				"storage": [
					{
						"astId": 5,
						"contract": "tests/12事件.sol:Event",
						"label": "_balances",
						"offset": 0,
						"slot": "0",
						"type": "t_mapping(t_address,t_uint256)"
					}
				],
				"types": {
					"t_address": {
						"encoding": "inplace",
						"label": "address",
						"numberOfBytes": "20"
					},
					"t_mapping(t_address,t_uint256)": {
						"encoding": "mapping",
						"key": "t_address",
						"label": "mapping(address => uint256)",
						"numberOfBytes": "32",
						"value": "t_uint256"
					},
					"t_uint256": {
						"encoding": "inplace",
						"label": "uint256",
						"numberOfBytes": "32"
					}
				}
			},
			"userdoc": {
				"kind": "user",
				"methods": {},
				"version": 1
			}
		}
	}
}